:020000040800F2
:10000000E0090020F9010008C1440008293F000868
:10001000BD440008211E0008094800080000000037
:10002000000000000000000000000000E94500089A
:10003000251E000800000000C5440008994600087D
:10004000130200081302000813020008130200083C
:10005000130200081302000813020008130200082C
:10006000130200081302000813020008130200081C
:10007000130200081302000813020008130200080C
:1000800013020008130200081302000813020008FC
:10009000130200081302000813020008591E00088A
:1000A00013020008130200081302000813020008DC
:1000B00005470008114700081D4700081302000803
:1000C00013020008130200081302000813020008BC
:1000D00013020008130200081302000813020008AC
:1000E000291E00081302000813020008130200086A
:1000F000130200081302000813020008130200088C
:10010000130200081302000813020008130200087B
:10011000130200081302000813020008130200086B
:10012000130200081302000813020008130200085B
:1001300000F002F800F050F814A696E8000CB24463
:10014000B344DA4501D100F047F8BAE80F000FA632
:1001500096E83000A5EB040504EB0607AAEB0704BC
:10016000A7F101074FEA15154FEA3414A4F1010471
:10017000AC4201D300F030F813F0010F18BFFB1AA6
:1001800043F0010300F001F8DBE71847D84700000F
:10019000F8470000103A24BF78C878C1FAD852074F
:1001A00024BF30C830C144BF04680C6070470000F1
:1001B000704700000023002400250026103A28BFC5
:1001C00078C1FBD8520728BF30C148BF0B607047C9
:1001D0001FB51FBD10B510BD00F031F81146FFF777
:1001E000F7FF04F013FB00F04FF803B4FFF7F2FF42
:1001F00003BC00F057F80000094880470948004751
:10020000FEE7FEE7FEE7FEE7FEE7FEE7FEE7FEE7C6
:10021000FEE7FEE704480549054A064B7047000023
:100220000147000831010008E0030020E009002038
:10023000E0050020E00500207047704770477546D4
:1002400000F02CF8AE4605006946534620F0070042
:10025000854618B020B5FFF7DDFFBDE820404FF020
:1002600000064FF000074FF000084FF0000BAC46BF
:10027000ACE8C009ACE8C009ACE8C009ACE8C0090A
:1002800021F007018D46704710B50446AFF300809A
:100290002046BDE81040FFF7A8BF000000487047A7
:1002A0001000002001491820ABBEFEE72600020026
:1002B000704700002DE9F04184B0117B0446AA2963
:1002C00006D1507BAA38B0FA80F0400901E000BFA7
:1002D0000020517992F80280167959B9917949B97B
:1002E000D17939B9117A29B9517A19B9917A002994
:1002F00000F08A80721E022A4FF000024FF00001C7
:1003000038BF01220323002808BF0123B8F1030FDF
:1003100036D1276808400137104027606071E371CB
:1003200060790027002863D0701EB0FA80F045097C
:1003300040F60040C4F201004FF480512A4601F01B
:1003400057F94AF6AA20C0F203002571CDF8020041
:1003500045F25550ADF80E000DF102000E21642259
:100360008DF80660CDF80770CDF80A7001F03EFDFB
:10037000B0FA80F047090625675504B0BDE8F08162
:10038000A768084001371040A7606073E373607B83
:10039000002798B3701EB0FA80F0450940F600407F
:1003A000C4F201004FF400512A4601F021F94AF647
:1003B000AA202573ADF8020045F25550ADF80E00A5
:1003C0000DF102000E2164228DF804808DF8057075
:1003D0008DF80660CDF80770CDF80A700E2501F093
:1003E00005FDB0FA80F04709675504B0BDE8F0811B
:1003F0000625675504B0BDE8F08100BF0E2567559E
:1004000004B0BDE8F08100BFD17A731ECFB2B7FA55
:1004100087F1012B4FF000054FEA51114FF0000218
:1004200088BF0125022B4FF0030338BF0122002FA4
:1004300008BF6B0067E7000080B501F053FE40F293
:100440009801C2F20001486000200870BDE88040B9
:1004500001F010B980B501F045FE40F29801C2F2FA
:1004600000014A68821AB2F5FA7F38BF80BD0A7867
:100470004860501E82F00103B0FA80F040090B7012
:10048000BDE8804001F000B910B584B0087B0C468F
:10049000AA2805D1607BB0F1AA0218BF012200E0B2
:1004A000012263792079A1793BB9E3792BB9237AC9
:1004B0001BB9637A0BB9A37A73B301231A43D2072A
:1004C00028D1C21E12F1020F24D34A1FD2B2FC2A35
:1004D00020D34A1E00210128D0B208BF40F6FF7188
:1004E00001F0DCF8B0B14AF6AA20ADF80200D4F869
:1004F0000200D4F80610019060890291ADF80C005A
:1005000045F25550ADF80E000DF102000E216422A7
:1005100001F06CFC04B010BDE37A002B18BF01237E
:100520001A43D207CDD0F5E740F2A002EFF31081D5
:10053000EFF3108072B6C2F2000250880023002947
:10054000538018BF704762B67047000010B504466C
:1005500000F092FF40F2A001C2F2000108800020EA
:10056000488020700888217811B1618981421DD0AE
:1005700000F001016170C0F34001A170C0F380017F
:10058000E170C0F3C0012171C0F300116171C0F3CB
:100590004011A171C0F38011E171C1B2C90921728A
:1005A000C0F300216172608101202070BDE810401D
:1005B00000F05ABEF0B581B00C46074600F018FFB7
:1005C0000546204600F04CFF0DB30646384600F0C5
:1005D0009BFF012814D140F2A000C2F20000018864
:1005E0002E4241EA05010180418841EA050141802E
:1005F0000DD0204601F09AFA012001B0F0BD00BFF5
:1006000040F2A000C2F200000188A943018000204E
:1006100001B0F0BD40F2A001C2F2000109880278E9
:100620001AB142898A4208BF704701F00102427044
:10063000C1F340028270C1F38002C270C1F3C002F4
:100640000271C1F300124271C1F340128271C1F311
:100650008012C271CAB2D2090272C1F30022427280
:100660004181012101707047002908BF7047B0B572
:100670000C46A0F1280500BF05F12C00002101F077
:100680002DFBE86BB5F84010002200F0B1FF013CF3
:1006900005F12805F0D1BDE8B04070472DE9F04FD5
:1006A00087B08046109898F829208B4678B3DDF8FB
:1006B00044C000EB80006FF077076FF027066FF003
:1006C0004F054FEAC00E07EBC00706EBC00605EB6F
:1006D000C0000025595D914200F0D880AE4216D08E
:1006E0005C1994F82810914200F0D280A8420ED0F4
:1006F00094F85010914200F0CF80AF4207D094F8A8
:100700007810914200F0CC80A035AE45E2D10020B7
:1007100002904FF0040A0026019098F81300002878
:1007200000F0DE80CDF800A098F8147000205FB1D2
:10073000D8F81C104FF0060A01310B254FF0FF09C5
:10074000C8F81C1005E000BF4FF0050A4FF0020981
:10075000002588F8130088F8140088F81000DBF8EA
:100760000000007848B1307801F070FA307801F07C
:10077000C7F9DBF8000000210170DBF804005C46DB
:100780004FF0000B80F800B0F069318C012200F0CE
:1007900031FFF069318C002200F02AFF98F8120036
:1007A00070B101986A2101F065FAC8F83800D8F8EC
:1007B0003800D8F83410401A6FF39F20A8F83C0096
:1007C0000298224680F83AB088F812B0E06880F8C3
:1007D00000B04AF6AA2088F80FB088F811A088F86F
:1007E0000E5088F8309088F83150ADF80E004FF078
:1007F00002008DF810008DF811903FB100208DF8A7
:100800001250CDF81300CDF8160022E098F8290018
:100810008DF8120098F82A0091698DF81300088865
:10082000000A8DF8140008888DF81500D8F82C00FF
:10083000000E8DF81600D8F82C00000C8DF817006B
:10084000D8F82C00000A8DF81800D8F82C008DF884
:10085000190045F255509346DDF800A0ADF81A0096
:100860000DF10E000E21642201F0C0FAB0FA80F002
:10087000400988F83200002F1CBF98F8320088F831
:10088000280098F8100080BB2FE100BF5E1909E036
:1008900004F1280606E000BF04F1500602E000BFA4
:1008A00004F17806C2EB021008EB8000718C043072
:1008B000029011EA0C0006F1040A0AD0A8F82600FA
:1008C00098F80F0000281EBF012088F8140088F84F
:1008D0001300CDF804A098F8130000287FF422AF8D
:1008E00098F81000002800F00081DBF80000007884
:1008F000002840F0FA80002488F8104088F8124060
:10090000357800F0B9FD718C084003D0A8F82600B6
:100910000B25C2E0C5EB051008EB8000071D504613
:10092000002101F0DBF95046042187F83A4001F03C
:10093000A1F9386038684FF0010900F07F4000F1FC
:100940005040B0FA80F04009387187F80590387946
:10095000002800F0A180504600210822082501F05F
:10096000C7F95046002101F085F9B860B868083829
:10097000B0FA80F04009387387F80D90387B002872
:1009800000F08B80504601214FF0010901F072F90F
:10099000386150460121072287F8149001F0A8F928
:1009A000642001F071FA5046012101F063F9B86149
:1009B000B86900F0040089EA9000387787F81D9044
:1009C000387F002868D050466C2101F053F9386216
:1009D00087F8249096F8240096F8251000F01F0060
:1009E00001F01F0140EA01225046102101F080F978
:1009F0003D6A96F826006C2160F3030550462A46AE
:100A000001F076F950466C2101F034F9B862B86A09
:100A1000401BB0FA80F0400987F82C0087F82D9031
:100A200097F82C00C0B300F027FD718C08407FF4CC
:100A30006DAF50460121012501F050F9C82087F81B
:100A40003A5001F021FA5046012101F013F93863C0
:100A500050466F2101F00EF97863386B00F0060004
:100A6000B0FA80F0400987F8380087F8395097F8D5
:100A70003800002800F0E48000F0FEFC718C084093
:100A800000F0E880A8F8260050460021002401F07C
:100A900025F987F83A403BE708250020042188F82B
:100AA0000E5088F80F0088F81110FF2188F83010D8
:100AB0004AF6AA2188F83150CFF60271CDF813001A
:100AC000CDF8160045F25550CDF80E10ADF81A00CD
:100AD0000DF10E000E2164228DF8125001F086F9FE
:100AE000B0FA80F0400988F83200DBF804000178A1
:100AF000002900F0A18000250570F069318C0122E9
:100B0000012700F077FDF069318C002200F070FDC4
:100B100001986A2101F0AEF8C8F83800D8F838001A
:100B2000D8F83410401A6FF39F20A8F83C00B8F8AA
:100B30003C10DBF8140002686FF39F228A4209D050
:100B4000B8F83C10006840426FF39F20401AB0FA9A
:100B500080F0470988F83E70029880F83A5088F88B
:100B60001250DBF80C00057088F8145088F80F500C
:100B7000DBF83C000178D9B1042188F81110017824
:100B800088F80E10FF2188F83010017888F83110AD
:100B900000784AF6AA21CFF602718DF812000020E3
:100BA000CDF80E10CDF81300CDF8160035E000BFDB
:100BB000032088F811000020012188F80E0088F831
:100BC000301088F831004AF6AA20C0F20210CDF8A1
:100BD0000E0098F829008DF8120098F82A00DBF82A
:100BE00018108DF813000888000A8DF81400088882
:100BF0008DF81500D8F82C00000E8DF81600D8F8E6
:100C00002C00000C8DF81700D8F82C00000A8DF885
:100C10001800D8F82C008DF8190045F25550ADF8A1
:100C20001A000DF10E000E21642201F0DFF8B0FA77
:100C300080F0400988F8320007B0BDE8F08F00BFAF
:100C400050460021002401F049F887F83A40082571
:100C500023E700BF7069318B98F82A20002A18BF5B
:100C6000012200F0C5FCF069318C0022002500F063
:100C7000BFFC012001F008F9F069318C022200F07C
:100C8000B9FCF069318C002200F0B2FC50466A21B8
:100C900000F0F0FFC8F8340088F83E500BF11C0259
:100CA00007CA0BF1280305800D8015700FCB056076
:100CB0000D6015601D60DBF838000560DBF83C0056
:100CC0000570DBF81000DBF808100560307808705C
:100CD000DBF840008047C8B1307800F06FFFE8B122
:100CE000DBF8000001240470307800F09BFFF8B1BD
:100CF000DBF8000000240470307800F0A7FF3078A3
:100D000000F0FEFE504600210BE000BF50460021DF
:100D100000F0E4FF87F83A500925BEE6504600216E
:100D2000002400F0DBFF87F83A400925B5E600BF54
:100D3000022088F8110088F81240DBF804000178DE
:100D400000297FF4D8AE77E72DE9F04F87B004464D
:100D50000068119A0130206018790191207158794A
:100D60006071D978D888029147BAF0291ABF98687B
:100D700001BA0021E780A1602079B846002A3DD061
:100D800002EB82026FF04F0707EBC20B6FF07707A1
:100D900007EBC20A6FF02707DDF8409007EBC206A9
:100DA0006FF09F0707EBC20E002719F80720151AEE
:100DB00018BF0125824218BFBE4220D009EB070CA4
:100DC0009CF82820151A18BF0125824218BFBB4580
:100DD00015D09CF85020151A18BF0125824218BF63
:100DE000BA450CD09CF87820151A18BF012582420C
:100DF00005D0BE4507F1A007D7D100E00125187B3B
:100E0000AA2813D15A7B4FF0020CB2F1AA0018BFE6
:100E1000012045EA0007AA2A18BF4FF0010C3FB98C
:100E2000607901285ED94FF0030C01E04FF0010C0E
:100E3000002284F80EC02273227BF2B10298277937
:100E4000A0F1F00284F829706779084684F82A70C6
:100E50000199B2FA82F2CF68D1E905565209A6F893
:100E60000080E06228603A70096900220A6001216E
:100E70002174E1736174E27422754AF6AA21ADF817
:100E80000E1002218DF81010217B00294FF0000177
:100E900008BF4FF0FF318DF81110217B00294FF072
:100EA000000107D098685968CDF81600CDF81210E7
:100EB00006E000BF8DF812C0CDF81310CDF8161063
:100EC00045F25550ADF81A000DF10E000E216422C6
:100ED00000F08CFFB0FA80F04009607307B0BDE805
:100EE000F08F00BF42F211704DF6D742A8EB000020
:100EF000CFF6FF72904203D24FF0040C98E700BF88
:100F00000298F02808D0481E42F6DF62904203D9CA
:100F10004FF0050C8CE700BF0298F02806D008EBD4
:100F20008800814202D94FF0060C81E794F80FC087
:100F3000BCFA8CF25209BCF1000F18BF4FF0070C3D
:100F400077E7000010B584B00446006A01302062E3
:100F5000187BAA2828D1587BAA2825D14AF6AA208E
:100F6000C0F20230CDF8020094F829008DF8060096
:100F7000607C8DF80700886909690288120A8DF87B
:100F8000082000888DF809000868000E8DF80A0016
:100F90000868000C8DF80B000868000A8DF80C003A
:100FA00008688DF80D000EE001204AF6AA21A07312
:100FB000CFF602718DF806000020CDF80210CDF8B2
:100FC0000700CDF80A0045F25550ADF80E000DF1BE
:100FD00002000E21642200F009FFB0FA80F04009FF
:100FE00084F8240004B010BD2DE9F04184B080469F
:100FF00080690B9A0130C8F8180072B302EB8202C4
:101000006FF0770707EBC2046FF02707DDF828E0E1
:10101000197907EBC2056FF04F074FEAC20C07EBD7
:10102000C20700261EF80600884257D0B54214D0E9
:101030000EEB060292F82800884253D0B7420CD03B
:1010400092F85000884251D0B44206D092F878000D
:1010500088424FD0A036B445E4D10020197BAA299C
:1010600018D1597BAA2915D1B0B398F80F1021B126
:10107000007898F8291088422ED198F80F0000289F
:101080003CD0012088F81300002088F80D0004B03F
:10109000BDE8F081012088F80E004AF6AA218DF8FB
:1010A00006000020CFF60271CDF80700CDF80A0047
:1010B00045F25550CDF80210ADF80E000DF10200CA
:1010C0000E21642200F092FEB0FA80F0400988F808
:1010D0000D0004B0BDE8F0810220DCE70EEB060055
:1010E000BCE700BF02F12800B8E700BF02F15000E2
:1010F000B4E700BF02F17800B0E700BF0A20CAE7FA
:1011000000218173704700002DE9F04114460D461F
:10111000064600F061FE002818BF00F071FE00F0E6
:1011200049FE002808BFBDE8F08144F648080027C2
:10113000C0F6000804E000BFB77300F03BFED8B370
:1011400000F042FEB17B09B95528F6D1012901D141
:101150005528F1D14A1CB2737054B07B0E28ECD3E1
:101160003078B773552823D17078552820D1B078BE
:1011700001281DD1F078D8B93079C8B97079B8B9DB
:10118000B079A8B9F07998B9307A88B9707A78B915
:10119000B07A68B9F07A58B9307BAA2808D1707B48
:1011A000AA2805D140460E21642200F01FFEC4E7A4
:1011B00020463146A847C0E7BDE8F08110B540F2AF
:1011C000B824C2F20004C4F8200100F071F800F065
:1011D000B5FD00F01DFA00F085FA00F0C7FA00F046
:1011E00053FB00F0E3FB00F0C7FDFFF725F944F6E1
:1011F000A800C0F600000321FFF736FA04F58A7054
:10120000FFF7A4F92046BDE81040FFF779BF0000C2
:1012100082B040F2B82544F2ED58C2F2000544F61F
:10122000A809C0F6000805F58A7A4FF0030B05F10E
:101230001007C0F6000900BFFFF70CF92846414629
:101240002A46FFF761FF5046FFF7E4F9D5F8204141
:10125000FFF76AF90646384621462A464B46CDE94D
:1012600000B6FFF71BFAE7E780B5172001F09CF9FD
:10127000282001F099F940F21440C4F201004FF423
:10128000707101604FF45C41016017200121002260
:1012900001F0B2F928200121002201F0ADF9172058
:1012A00001F098F92820BDE8804001F093B90000D2
:1012B0002DE9F04F85B0002441F21800CDE9034438
:1012C000CDE90144C4F20200016841F2000841F096
:1012D000100101600168C4F2010801F010010091E1
:1012E00000990168002241F020010160016801F0CD
:1012F000200100910099016841F00401016001683A
:1013000001F0040100910099016841F008010160B9
:1013100000684FF4C04100F008000090009840467B
:1013200000F0DAFE40463C2101224FF0010900F0B6
:10133000D3FEA8F5006B58460121002200F0CCFE38
:10134000A8F58066304643F22101002200F0C4FE79
:1013500030469021012200F0BFFE46F23C0001AF72
:10136000CDE901094FF0020A404639460394CDF811
:1013700010A000F0B7FD4FF40040CDE90104404655
:101380003946039400F0AEFD58463946CDE901993F
:10139000CDE9034A00F0A6FD43F2B100CDE9010911
:1013A00030463946CDE9034A00F09CFD4FF44040F9
:1013B00000250190C1F2310530463946CDE902548D
:1013C00000F090FD4FF47070CDE9010540463946BC
:1013D000039400F087FD4FF4E050CDE90105584635
:1013E0003946039400F07EFD05B0BDE8F08F0000A3
:1013F000B0F5806F10DBB0F5805F25DB04BF4020C7
:101400007047B0F5804F04BF04207047B0F5004F1F
:1014100004BF0220704709E0FF2809DC402804BF10
:1014200001207047802804BF2020704700207047AB
:10143000B0F5807F04BF10207047B0F5007F04BF77
:1014400008207047F2E700BFB0F5806F04BF4FF48B
:1014500080707047B0F5006F04BF80207047E5E7EB
:101460000138C0B202288FBF002044F62A01C0F61E
:10147000000131F81000704710B5402000F044F82A
:101480000138B0FA80F044094FF4004000F03CF815
:1014900001284FF4804008BF023400F035F80128DD
:1014A0004FF4007008BF043400F02EF801284FF408
:1014B000807008BF083400F027F801284FF0800042
:1014C00008BF44F0100400F01FF801284FF48050CA
:1014D00008BF44F0200400F017F801284FF4006022
:1014E00008BF44F0400400F00FF801284FF480607A
:1014F00008BF44F0800400F007F8012808BF44F456
:101500008074A0B210BD0000B0F5806F14DBB0F5A0
:10151000805F2DDB4CD0B0F5804F5DD0B0F5004F33
:1015200064D141F20000C4F20100A0F580604FF4E4
:10153000004100F0CBBD00BFFF280BDC402827D0C6
:10154000802853D141F20000C4F20100802100F054
:10155000BDBD00BFB0F5807F22D0B0F5007F45D182
:1015600041F20000C4F201004FF4007100F0AEBD82
:10157000B0F5806F26D0B0F5006F37D141F2000092
:10158000C4F20100A0F500604FF4006100F09EBDC0
:1015900041F20000C4F20100402100F097BD00BFFD
:1015A00041F20000C4F201004FF4807100F08EBDE2
:1015B00041F20000C4F20100A0F500604FF4805138
:1015C00000F084BD41F20000C4F20100A0F500600B
:1015D0004FF4806100F07ABD41F20000C4F20100D6
:1015E000A0F580604FF4804100F070BD002070478E
:1015F00000F072BD80B584B0CDE9001200210291E7
:1016000003210391694600F06DFC04B080BD000029
:1016100080B540F2A40045F20041C2F20000C4F2DD
:10162000000148F2A06200234FF4804CC0F2010296
:1016300080E80E00C0E9033CC0E90533C0E9073388
:1016400000F056FD002808BF80BDBDE8804000F0D6
:1016500015BC000080B582B09C4613460A46014680
:1016600040F2A400C2F20000CDF800C000F0F2FD8C
:1016700002B080BD41F20000C4F201004FF480418D
:10168000012200F029BD0000024641F20000C4F230
:1016900001004FF4804100F01FBD00000246032806
:1016A0004FF000001CD8B0EB113F18BF704780B559
:1016B00082B0402040EA42008DF80500080A8DF80B
:1016C00006008DF807100DF10501C02003226423E8
:1016D000FFF7C0FFB0FA80F0400902B0BDE88040DB
:1016E00070470000B0B540F2F80043F20001C2F2CA
:1016F0000000C4F201014FF48272002380E80E0062
:1017000000F10C014FF0020C4FF0010E4FF4007489
:10171000202581E808500A21C0E90645C0E90833C0
:10172000C0E90A3101F0AAFA002808BFB0BDBDE83F
:10173000B04000F0A3BB000080B582B09C461346C9
:101740000A46014640F2F800C2F20000CDF800C09F
:1017500001F024FC02B080BD13460A46014640F267
:10176000F800C2F2000001F01BBB0000B0B590B061
:1017700040F250100021C2F200006325CDE90811AB
:10178000CDE90611CDE904114FF080424723C0E9AD
:10179000021501618021C0E90023816101F0A8FFE9
:1017A000002818BF00F06AFB40F25010C2F200009F
:1017B00008A901F077FD002818BF00F05FFB60204A
:1017C00040F2501401903220C2F200040290002531
:1017D00001A9204604220395059501F05BFE00282F
:1017E00018BF00F04BFB206840F60001C4F2000176
:1017F00088420F95CDE90D550C9529D040F2004156
:10180000C4F20001884217D0B0F1804F3AD141F2C2
:101810001800C4F20200016841F004010160006890
:10182000022100F004000B900B9840F60040C4F237
:101830000100A0F580601DE041F21800C4F2020032
:10184000016841F008010160006802210AE000BF60
:1018500041F21800C4F20200016841F00801016081
:101860000068402100F008000B900B9840F6004003
:10187000C4F201000C9102210D9103210F910CA9DA
:1018800000F030FB10B0B0BD70B590B040F6004431
:1018900040F29810C4F201040021C2F2000040F2AC
:1018A000E736CDE90811CDE90611CDE90411A4F51B
:1018B00084324723C0E9021601618021C0E9002378
:1018C000816101F015FF002818BF00F0D7FA40F23F
:1018D0009810C2F2000008A901F0E4FC002818BF2B
:1018E00000F0CCFA602040F2981501903220C2F24C
:1018F00000050290002601A928460C2203960596B1
:1019000001F0C8FD002818BF00F0B8FA286840F6BA
:101910000001C4F2000188420F96CDE90D660C96D5
:101920002AD040F20041C4F20001884214D0B0F144
:10193000804F38D141F21800C4F202000168A4F5CA
:10194000806441F004010160006800F004000B9025
:101950000B9802201EE000BF41F21800C4F2020002
:10196000016841F008010160006800F008000B9078
:101970000B9802200EE000BF41F21800C4F20200F2
:10198000016841F008010160006800F008000B9058
:101990000B9840200C9002200D9003200F900CA972
:1019A000204600F09FFA10B070BD000070B590B0F6
:1019B00040F6004440F2E010C4F201040021C2F2FB
:1019C000000040F2E736CDE90811CDE90611CDE976
:1019D0000411A4F582324723C0E902160161802177
:1019E000C0E90023816101F083FE002818BF00F0E8
:1019F00045FA40F2E010C2F2000008A901F052FCE2
:101A0000002818BF00F03AFA602040F2E01501907B
:101A10003220C2F200050290002601A928460022C9
:101A20000396059601F036FD002818BF00F026FA4F
:101A3000286840F60001C4F2000188420F96CDE903
:101A40000D660C962AD040F20041C4F20001884293
:101A500014D0B0F1804F38D141F21800C4F2020026
:101A60000168A4F5806441F004010160006800F0A1
:101A700004000B900B9802201EE000BF41F21800FA
:101A8000C4F20200016841F008010160006800F042
:101A900008000B900B9802200EE000BF41F21800E6
:101AA000C4F20200016841F008010160006800F022
:101AB00008000B900B9840200C9002200D90032002
:101AC0000F900CA9204600F00DFA10B070BD000078
:101AD000021F12F1030F3CBF0020704744F658026A
:101AE00000EB8000C0F6000202EB800050F8140CFE
:101AF00009680068081AB0FA80F0400970470000D1
:101B0000011F11F1030F38BF704744F6580100EB75
:101B10008000C0F6000101EB800050F8140C006852
:101B2000C16821F00101C16070470000011F11F17F
:101B3000030F38BF704744F6580100EB8000C0F631
:101B4000000101EB800050F8101C50F8140C0268E2
:101B5000D36823F00103D36001F0AABE021F12F183
:101B6000030F3CBF0020704744F6580200EB800092
:101B7000C0F6000202EB800050E90532481ED3F89F
:101B800000C04FEA5101CCF82C00D86082B1082A7D
:101B900008D0042A14BF4022382201204CF8021039
:101BA000704700BF3C2201204CF80210704700BF74
:101BB000342201204CF8021070470000014604381E
:101BC00010F1030F4FF0000038BF704710B544F616
:101BD000580201EB8101C0F6000202EB810151F8CD
:101BE000142C51E90334126850626FF001009843DD
:101BF0001061D068A043D060D06840F00100D06090
:101C000011F9044C02212046002200F0F5FC204688
:101C100000F0B8FC204600F0DDFC0120BDE81040DB
:101C200070470000011F11F1030F3CBF01207047F6
:101C300044F6580100EB8000C0F6000101EB800083
:101C400050F8101C50F8140C01F0C2BD011F11F126
:101C5000030F3CBF0120704744F6580100EB8000A1
:101C6000C0F6000101EB800050F8101C50F8140C75
:101C700001F01EBEF0B585B004468DF80C1000686A
:101C8000A18800270022CDF80D7000F025FA03ADE1
:101C90000DF107062846314605224FF0FF33FFF7C6
:101CA0004BFD2068A188012200F016FA2068A18867
:101CB00000228DF81070039700F00EFA2846314686
:101CC00005224FF0FF33FFF737FD2068A18801227E
:101CD00000F002FA029800BA05B0F0BDD0F808C0D2
:101CE0008389B1FA81F042096046194600F0F4B9DF
:101CF00010B582B0044641F080008DF80300100E4C
:101D00008DF80400100C8DF80500100A8DF80600FF
:101D10002068A1888DF80720002200F0DDF90DF180
:101D2000030005214FF0FF32FFF716FD2068A18860
:101D3000012200F0D1F902B010BD000080B540F2E0
:101D4000282044F20041C2F20000C4F20001002346
:101D50004FF00C0C4FF4E13280E80E00C0E9033381
:101D6000C0E905C3C36101F021FF002808BF80BDA1
:101D7000BDE8804000F082B880B540F2702044F6A3
:101D80000001C2F20000C4F2000100234FF00C0C6D
:101D90004FF4E13280E80E00C0E90333C0E905C327
:101DA000C36101F003FF002808BF80BDBDE880408B
:101DB00000F064B840F27020C2F2000000680068D1
:101DC000C0F340107047000040F27020C2F20000E3
:101DD00000684068C0B2704740F27020C2F2000054
:101DE00000680068C0F3C0007047000013460A4650
:101DF000014640F27020C2F2000001F0CBBF0000AB
:101E000081B00020009040F27020C2F20000006813
:101E10000168009140680090009801B07047000090
:101E2000FEE700007047000080B54FF4806000F0CE
:101E30004DF84FF4006000F049F84FF4805000F086
:101E400045F84FF4804000F041F84FF40040BDE801
:101E5000804000F03BB8000080B5402000F036F82C
:101E6000802000F033F84FF4807000F02FF84FF42A
:101E70000070BDE8804000F029B80000EFF310804A
:101E800072B600BFFEE70000B0B5044600F02AF9C4
:101E9000054640F20000C2F200000078611C18BF45
:101EA000044400BF00F01EF9401BA042FAD3B0BDAD
:101EB00010B540F27004C2F200046178FEF77AFBBC
:101EC00000281EBF00202070E07010BD40F21441B9
:101ED000C4F201010A68024214BF08607047FFF7AC
:101EE000E7BF00002DE9F04F82B00E68002E00F031
:101EF000E980A0F1804241F6004540F20043A2F59E
:101F00008432C4F201050624C4F201034FEAB22769
:101F1000A84208BF05244FF0000E4FF001080F251E
:101F20004FF0000A4FF0000B052F38BF4FEAB224E4
:101F3000009408E00E680AF1010A36FA0AF20EF17E
:101F4000040E00F0BF8008FA0AFC16EA0C09F1D072
:101F50004E684FF6FF72C1F21002964212DC122E4A
:101F600056D8DFE806F0350B4D49555555555555B2
:101F70005555555555555545510000BFD1F80CB034
:101F800046E000BF4FF6FF72C1F2210296420FDC1D
:101F90000022C1F2110296421AD00022C1F21202AE
:101FA000964215D00022C1F22102964210D02FE0B5
:101FB0000022C1F2220296420AD00022C1F231026E
:101FC000964205D00022C1F23202964220D100BFD3
:101FD0008A684AB1012A14BFC0F814C0C0F810C002
:101FE0004FF0080B14E000BF4FF0040B10E000BFEF
:101FF000CA6802F1040B0BE04FF0000B08E000BFD1
:10200000CA6802F1080B03E0CA6802F10C0B00BFBA
:1020100002467446B9F5807F24BF0432203C16681E
:1020200005FA04F726EA07070BFA04F637431760A8
:10203000CA79D2067FF57EAF41F21807C4F20207D3
:102040003A684FF6084542F001023A603A68CFF626
:10205000FF7502F001020192019A2AF003021A446C
:102060000F2457590EF00C06B440A743009C04FA05
:1020700006F6374357514E6840F20C44F2029A6814
:1020800054BF22EA090242EA0902C4F201049A603A
:102090002268B70254BF22EA090242EA090222601A
:1020A0005A68B70354BF22EA090242EA09025A6099
:1020B0000F251A68F70354BF22EA090242EA09020F
:1020C0001A6037E702B0BDE8F08F00008068084072
:1020D00018BF012070470000002A08BF09040161F1
:1020E0007047000040F2DC30C2F200000068704728
:1020F000002804BF01207047F0B581B0044690F875
:102100003D0028B9002084F83C00204600F090F9FA
:10211000242084F83D002068016821F0010101605D
:10212000016841F400410160016821F4004101604F
:1021300000F07CFB636848F2A16CC0F2010C40F631
:102140000011C0F23D0163453CBF48F28041C0F23E
:102150001E01884202D2012001B0F0BD4DF683611C
:10216000C4F21B31A0FB01122168970CD1F804E0E6
:102170004FF496762EF03F0545EA92454D60774341
:1021800048F638160D6AC0F24106A7FB067625F020
:102190003F07634538BF960C721C3A430A62CA690E
:1021A00048F2A0664CF6FF77C0F20106B34222EA7D
:1021B00007020BD801385B00B0FBF3F001306FF37E
:1021C0001F30042898BF04201BE000BFA768013817
:1021D00057B119277B43B0FBF3F001306FF31F3089
:1021E00070B100F5804007E003EB4303B0FBF3F070
:1021F00001306FF31F3018B100F5004001E000BF5F
:1022000001201043C8610868D4E9072320F0C0000A
:10221000104318430860886848F2FF3204F10C0745
:1022200090438CCF18431043A6698860C86820F09B
:10223000FF0038433043C860086840F00100086080
:1022400000202021206484F83D10206384F83E00A3
:1022500001B0F0BD2DE9F04383B01E461746894614
:102260000446FFF73FFF94F83D10202924D105468E
:10227000206800BF816989071AD5FFF733FF411B2A
:1022800020681A29F6D381698907F3D50020202117
:10229000206384F83D1084F83E00216C41F0200159
:1022A000216484F83C00022003B0BDE8F08300BF45
:1022B00094F83C10012903D1022003B0BDE8F0835B
:1022C000012184F83C100168C90703D1016841F07D
:1022D00001010160016840F2020821F4006101601F
:1022E000212184F83D10102184F83E100021216442
:1022F00067626685618DC0F201082185A8F102112F
:10230000E162E16A0A9E11F5803F18BF01291DD1E3
:10231000016841F48071016020464FF001110022F4
:102320003346009501F060FE50B120680068C0059A
:1023300044BF4FF400702064012003B0BDE8F08377
:102340002069B0F5804F07D1FE2015E00829DFD0C5
:10235000216B1229DCD0DFE7062000EAD9102168C2
:10236000F030086108F10601204632462B4601F0A4
:1023700021FF0028E0D1FF20216800EA0900086160
:102380002046414632462B4601F014FF0028D3D1A7
:1023900000200290206841690291806902900298B1
:1023A00006E000BF204631462A4601F0BFFD18BBBB
:1023B000208D68B3204631462A4601F067FFD8B920
:1023C000606A2168024612F8013B0B616262628D0D
:1023D000013A6285228D531E23854F697F07E1D51F
:1023E0001B04DFD0437802300B616062608D0138DE
:1023F0006085901E2085D5E7206C04289CD120683C
:10240000016841F400710160012003B0BDE8F08370
:102410002068016841F400710160202084F83D00CB
:10242000002084F83E0084F83C0003B0BDE8F0834F
:1024300010B586B0006845F20041C4F20001884240
:102440004FF00000CDE90400CDE9020002D006B053
:1024500010BD00BF41F21804C4F20204206802A9B2
:1024600040F008002060206800F00800019001980A
:102470004FF440700290122003900320059040F624
:102480000040C4F20100FFF72DFD0420C4F201005A
:10249000016841F0E06141F002010160606840F4D0
:1024A00000106060606800F400100190019806B0B0
:1024B00010BD000040F2000040F2DC31C2F200002A
:1024C000C2F2000100780A681044086070470000FA
:1024D00080B542F20000C4F20200016841F0100130
:1024E0000160032000F0B4F80F2000F005F800F0C0
:1024F00027F8002080BD000070B540F20006C2F24F
:10250000000640F208013278C2F200014FF47A73FB
:102510000968B3FBF2F20446B1FBF2F1084600F0A1
:10252000A7FE0F2C4FF0010508D838B94FF0FF3047
:1025300021460022002500F05FF87460284670BD37
:1025400082B041F21800C4F202000168022241F098
:1025500001010160016801F00101019101994168E7
:1025600041F080514160406800F080500090009838
:102570000420C4F20100016862F31A61016002B034
:1025800070470000002848BF704700F01F0101227B
:1025900002FA01F11C2202EAD0004EF28022CEF2B1
:1025A0000002815070470000002848BF704700F0CB
:1025B0001F01012202FA01F11C2202EAD0004EF2B0
:1025C0008012CEF200028150BFF34F8FBFF36F8FA6
:1025D00070470000002848BF704700F01F0101222B
:1025E00002FA01F11C2202EAD0004EF20012CEF2F1
:1025F000000281507047000010B54EF60C5CCEF220
:10260000000CDCF80030C3F3022E8EF00704042C1B
:1026100028BF0424BEF103034FF0FF3E0EFA04F47A
:1026200038BF0023A14399400EFA03F39A431143A4
:1026300000F00F0200F160430901043A03F564431E
:102640006244002848BF02F10C03197010BD00005D
:102650004EF60C51CEF200010A684FF6FF031A4005
:1026600060F30A2242F0806040F0FD70086070471D
:10267000002804BF012070472DE9F04381B042F2E9
:102680000008C4F202080446D8F800000D4600F025
:10269000070081420CD9D8F8000020F00700284339
:1026A000C8F80000D8F8000000F00700A8426CD17C
:1026B000206841F204098107C4F2020917D54107D5
:1026C00005D5D9F8001041F4E061C9F80010010700
:1026D00005D5D9F8001041F46051C9F80010D9F8B7
:1026E0000010A26821F0F0011143C9F80010C007E2
:1026F00042D1D8F8000000F0070085420CD2D8F88B
:10270000000020F007002843C8F80000D8F80000B7
:1027100000F00700A84238D12068410707D5D9F852
:102720000010E26821F4E0611143C9F800100007CD
:1027300008D5D9F80000216920F4605040EAC100B2
:10274000C9F80000D9F8002002F00C00082841F276
:102750000020C0F27A004DD144F69603C2F38341C3
:10276000C0F60003595CD20338D440F60010C0F222
:102770003D0048433EE000BF606859F8041C022851
:1027800008D0012826D1890306D4012001B0BDE874
:10279000F08300BF8901F8D5D9F8001021F00301BA
:1027A0000843C9F80000FFF79DFC064641F2883750
:1027B000D9F80000616800F00C00B0EB810F98D0F0
:1027C000FFF790FC801BB842F2D9032001B0BDE8AE
:1027D000F08300BF8907D8D5DEE700BFD9F8002015
:1027E00044F69403C2F34042C0F600039A5C4843A7
:1027F000B0FBF2F0D9F8001044F63002C1F3031137
:10280000C0F60002515C40F2080220FA01F140F2E9
:102810000400C2F200000068C2F200021160FFF77B
:102820006BFE002001B0BDE8F083000040F208001C
:1028300041F20401C2F20000C4F20201006809681A
:1028400044F64002C1F30221C0F60002515CC840C8
:102850007047000040F2080041F20401C2F200009B
:10286000C4F202010068096844F64002C1F3C221C3
:10287000C0F60002515CC84070470000002804BF49
:10288000012070472DE9F04182B00446007841F202
:102890000006C007C4F202060CD0706800F00C00FD
:1028A000042840F081803068800303D560680028E8
:1028B00000F04681207880071BD5706810F00C0F5F
:1028C00009D0706800F00C00082840F0878070681C
:1028D000C00300F183803068800703D52069012898
:1028E00040F02E813068616920F0F80040EAC100B4
:1028F00030602078000713D4207840072CD4E56995
:10290000002D00F01881706800F00C00082840F0DD
:10291000A780012D40F00481012002B0BDE8F081C4
:10292000A069002800F084800020C4F24220012128
:10293000C0F88014FFF7D6FB054600BF706A800719
:1029400000F1B280FFF7CEFB401B0228F6D903202E
:1029500002B0BDE8F08100BFF0695FEAC00808D4AA
:10296000F06940F08050F061F06900F08050009014
:10297000009847F20007C4F200073868C00549D440
:10298000386840F480703860FFF7ACFB054600BF44
:102990003868C0053ED4FFF7A5FB401B6428F7D973
:1029A000032002B0BDE8F081706800F00C00082838
:1029B00003D17068C0033FF576AF616830680029C5
:1029C00000F00C81B1F5A02F00F00081B1F5803F3F
:1029D00040F01A8140F480301CE100BF20690028DB
:1029E00040F20000C4F2422000F088800121016022
:1029F000FFF778FB054600BF306880073FF572AFF0
:102A0000FFF770FB401B0228F6D9032002B0BDE897
:102A1000F08100BFE168306A002900F09D8005293F
:102A200000F09280012940F0AF8040F00100B1E059
:102A30000020C4F242200021C0F88014FFF752FBAE
:102A4000054600BF706A80077FF556AFFFF74AFB67
:102A5000401B0228F6D9032002B0BDE8F08100BF78
:102A60000027C4F2422700203866FFF73BFB022D07
:102A700005460DD13068800140F1DE80FFF732FB62
:102A8000401B02284FF00300F4D902B0BDE8F081EA
:102A9000306880014FD5FFF725FB401B02284FF01F
:102AA0000300F5D9F1E700BF40F20800C2F20000D0
:102AB000006844F6D351C1F26201A0FB0101480A4B
:102AC000019000BF00BF0198411E002801913FF412
:102AD00013AF00BF0198411E002801913FF40CAFD5
:102AE00000BF0198411E002801913FF405AF00BFCF
:102AF0000198411E00280191E4D1FDE6002101600A
:102B0000FFF7F0FA054600BF306880077FF5F1AEA9
:102B1000FFF7E8FA401B02284FF00300F4D9B4E7AE
:102B20007068216A00F480328A4209D1616A00F437
:102B30007010884204D1002002B0BDE8F08100BFCF
:102B4000012002B0BDE8F08140F004003062306A3C
:102B500040F001001EE000BF20F001003062306A4A
:102B600020F004003062FFF7BDFA054641F28837D5
:102B7000306A800720D5FFF7B5FA401BB8424FF006
:102B80000300F5D981E700BF20F001003062306A10
:102B900020F004003062FFF7A5FA054641F28837BD
:102BA000306A800708D4FFF79DFA401BB842F7D976
:102BB000032002B0BDE8F081B8F1000F3FF59FAEF1
:102BC000F06920F08050F06199E600BF40F4802069
:102BD0003060306840F480301CE000BF20F480306A
:102BE0003060306820F480203060FFF77BFA0546C3
:102BF000306880037FF55EAEFFF774FA401B6428EF
:102C00004FF00300F4D940E720F4803030603068A2
:102C100020F480203060FFF765FA054630688003B5
:102C20003FF548AEFFF75EFA401B6428F6D9032053
:102C300002B0BDE8F08100BF206AB0F5803F05D149
:102C40007168A26821F40031114371607168626A91
:102C500021F4741111430843706001203866FFF7B6
:102C600041FA0446306880013FF565AFFFF73AFA54
:102C7000001B02284FF00300F4D906E770B528B115
:102C8000416A29B100210161142106E0012070BDD3
:102C90004168B1F5827F02D01C21002242500026FB
:102CA000866290F8511029B980F85060054600F00E
:102CB00039F82846022180F8511090E82E0002F4DD
:102CC00082720C6803F4044324F040040C601A443C
:102CD00005F4006305691A4405F0020345691A44C6
:102CE00005F001038569C4691A4405F400731A44A8
:102CF00004F03803046A1A4404F08003846A1A4317
:102D000004F400531A430A60042202EA15424A609E
:102D1000CA6922F40062CA610121466580F8511037
:102D2000304670BD70B586B040F60004C4F20104B0
:102D3000006804F52051002688420596CDE9036617
:102D4000029601D006B070BD41F21800C4F2020034
:102D5000016802AD41F480510160016801F48051C5
:102D600001910199016841F0040101600068294660
:102D700000F0040001900198A0200290022003902E
:102D8000032005902046FFF7ADF84020CDE902066C
:102D90000120049020462946FFF7A4F806B070BD34
:102DA0002DE9F04182B01D4616460F460446FFF756
:102DB00099F994F8511001290ED18046002F4FF057
:102DC000010018BF002E03D102B0BDE8F08100BFA2
:102DD00094F85000012803D1022002B0BDE8F08130
:102DE000012084F850000320002184F8510061651F
:102DF0002763A686E686A163A187E187A068216490
:102E0000B0F5004F2068616407D1016821F04001EE
:102E10000160016841F4804101600168490603D402
:102E2000016841F0400101606168731EE268B1FA17
:102E300081F1B3FA83F349095B09B2F5006F41EA06
:102E4000030139D131B137F8021BC1602763E08E2D
:102E50000138E086E08E002870D0681C0BD11AE0A3
:102E6000216B31F8022BC2602163E08E0138E086CD
:102E7000E08E002862D0206881688907F0D4FFF7CF
:102E800031F9A0EB0800A842F2D338E0FFF72AF9A5
:102E9000E08E002852D0206881688907F6D5216B22
:102EA00031F8022BC2602163E08E0138E086E08EAB
:102EB0000028F0D142E000BF39B139780173206BAE
:102EC00001302063E08E0138E086E08EB0B3681CEC
:102ED0000BD123E0216B09780173206B0130206353
:102EE000E08E0138E086E08E40B320688168890773
:102EF000F0D4FFF7F7F8A0EB0800A842F3D30120C5
:102F000084F85100002084F85000032002B0BDE88E
:102F1000F08100BFFFF7E6F8E08E78B120688168A5
:102F20008907F7D5216B09780173206B0130206385
:102F3000E08E0138E086E08E0028EFD120460221A5
:102F400001222B46CDF8008001F0BEFA40B92046A0
:102F5000802100222B46CDF8008001F0B5FA28B17F
:102F6000606D40F02000606520206065A06838B981
:102F7000002001902068C16801918068019001984B
:102F8000012084F85100002084F85000606D002872
:102F900018BF012002B0BDE8F08100002DE9F04328
:102FA00083B01E4615460F460446FFF79BF894F87B
:102FB00051108146012909D1002F4FF0010018BF9F
:102FC000002D0FD103B0BDE8F08300BF6068B0F5FD
:102FD000827F0DD104294FF00200F3D1A1680029AE
:102FE000EAD0EFE7002EEDD094F85000012803D18D
:102FF000022003B0BDE8F083012084F8500094F86B
:103000005100002104281CBF052084F8510061658F
:10301000A563E687A6872763E6862068A6862164DF
:1030200061640168490603D4016841F04001016010
:103030006168731EE268B1FA81F1B3FA83F3DDF8D7
:10304000288049095B09B2F5006F41EA030165D1A7
:1030500031B137F8021BC1602763E08E0138E0868A
:10306000012518F1010032D102E000BFFFF73AF864
:10307000E08E18B9E08F002800F0B88020688168E1
:1030800089070CD5E18E51B1012D08D1216B0025A6
:1030900031F8022BC2602163E18E0139E18681683B
:1030A000C907E3D0E18F0029E0D0C068A16B0125FA
:1030B00021F8020BA163E08F0138E087D6E700BF5B
:1030C000FFF710F8A0EB0900404580F0AF80E08EDC
:1030D00018B9E08F002800F089802068816889078E
:1030E0000CD5E18E51B1012D08D1216B002531F8AD
:1030F000022BC2602163E18E0139E1868168C90734
:10310000DED0E18F0029DBD0C068A16B012521F85A
:10311000020BA163E08F0138E087D1E739B139783C
:103120000173206B01302063E08E0138E0860125B9
:1031300018F1010032D101E0FEF7D4FFE08E10B9A2
:10314000E08F002852D02068816889070ED5E18E73
:1031500061B1012D0AD1216B002509780173216B22
:10316000206801312163E18E0139E1868168C90758
:10317000E2D0E18F0029DFD0C068A16B0125087083
:10318000A06B0130A063E08F0138E087D4E700BF77
:10319000FEF7A8FFA0EB0900404547D2E08E08B932
:1031A000E08F18B32068816889070ED5E18E61B180
:1031B000012D0AD1216B002509780173216B20684C
:1031C00001312163E18E0139E1868168C907DFD0D1
:1031D000E18F0029DCD0C068A16B01250870A06BCD
:1031E0000130A063E08F0138E087D1E7204602215B
:1031F00001224346CDF8009001F066F940B920461F
:10320000802100224346CDF8009001F05DF9B8B16D
:10321000606D40F02000606520206065002084F82B
:103220005000012003B0BDE8F08300BF012084F806
:103230005100002084F85000032003B0BDE8F08363
:10324000A06838B9002002902068C16802918068A7
:1032500002900298012084F85100002084F8500068
:10326000606D002818BF012003B0BDE8F0830000A6
:10327000411E0020B0EB116F1CBF012070474EF2C1
:103280001002CEF2000251604EF62351CEF2000140
:10329000F0230B70072190601160704770470000A9
:1032A0007047000090F83C20012A4FF0020242D003
:1032B00010B580F83D200268D2F804E0D2F808C0CA
:1032C0000C682EF07003234340F6FF34C4F2000470
:1032D000A242536010DCB2F1804F1FD040F2004395
:1032E000C4F200039A4219D040F60003C4F200036E
:1032F0009A4213D017E000BF40F60043C4F2000327
:103300009A420BD043F20043C4F201039A4205D023
:1033100042F60043C4F201039A4204D149682CF0FA
:103320008003194391600121002280F83D1080F84C
:103330003C20BDE810401046704700007047000078
:1033400070B504460068C5680669B10716D515F062
:10335000020113D06FF00201016101212177806920
:10336000800703D02046FFF7E9FF05E0204600F084
:103370008FF8204600F02AFA00202077700719D530
:1033800015F0040016D020686FF0040101610221DD
:103390002177806910F4407F04D02046FFF7CEFFEC
:1033A00006E000BF204600F073F8204600F00EFA59
:1033B00000202077300717D515F0080014D02068BA
:1033C0006FF00801016104212177C069800703D0F3
:1033D0002046FFF7B3FF05E0204600F059F82046ED
:1033E00000F0F4F900202077F00619D515F0100050
:1033F00016D020686FF01001016108212177C069A3
:1034000010F4407F04D02046FFF798FF06E000BF8D
:10341000204600F03DF8204600F0D8F90020207743
:10342000F00718BF15F0010002D1300609D412E0F0
:1034300020686FF001010161204600F091FA30062A
:1034400009D515F0800006D020686FF08001016179
:103450002046FFF723FF700609D515F0400006D07F
:1034600020686FF040010161204600F09DFBB0062E
:1034700058BF70BD15F0200008D021686FF0200201
:1034800020460A61BDE87040FFF70ABF70BD00002A
:103490007047000090F83C30012B04BF02207047B9
:1034A0004FEAB202032A00F21D812DE9F041DFE864
:1034B00002F003C7479100BF036843F200461D6A4C
:1034C0001A6A25F0020522F001021A621A465C68A7
:1034D00052F818CF8F68D1F800E0C4F20106B34269
:1034E00045EA070505D042F60047C4F20107BB4292
:1034F00005D1CF6825F00C0527F004073D43B34202
:1035000005D042F60046C4F20106B34205D1D1E926
:10351000056724F4407434433C432CF0730747EAB6
:103520000E075C609F614F6809695F631D629F6958
:1035300047F008079F619F6927F004079F61C6E075
:10354000036843F200461D6A1A6A25F4007522F4E6
:1035500080721A621A46D3F804C052F81CEF8F68C2
:10356000D1F80080C4F20106B34245EA072505D030
:1035700042F60047C4F20107BB4208D1CF6840F2CF
:10358000FF443F0225F4406527EA04042543B34283
:1035900005D042F60044C4F20104A34206D1D1E9A9
:1035A00005462CF44057264347EA061C2EF07307C5
:1035B00047EA0807C3F804C0DF614F680969DF63A1
:1035C0001D62DF6947F00807DF61DF6927F0040744
:1035D000DF617CE0036843F20047D3F820C01A6A39
:1035E000C4F2010722F480521A621A465C6852F84B
:1035F0001C5FD1F800E08E68BB4205D042F6004760
:10360000C4F20107BB4204D14F6924F4804444EA68
:1036100087142CF4005747EA063725F4E64646EAB5
:103620000E265C60DE614E6809691E641F62DF69F8
:1036300047F40067DF61DF6927F48067DF6145E0F9
:10364000036843F200481D6A1A6A25F0200522F03B
:1036500010021A621A465C6852F818CF8F68D1F8C7
:1036600000E0C4F20108434545EA071505D042F6DB
:103670000047C4F20107BB4207D1CF686FF0400694
:1036800025F0C00506EA07163543434505D042F646
:103690000046C4F20106B34206D1D1E9056724F41D
:1036A00040643E4344EA86042CF4E64747EA0E278A
:1036B0005C609F614F6809699F631D629F6947F461
:1036C00000679F619F6927F480679F610902136803
:1036D000194311600021BDE8F041002280F83C2030
:1036E000084670470121002280F83C2008467047B8
:1036F000002804BF0120704710B5044690F83D0033
:1037000028B9002084F83C00204600F01FF8022071
:1037100084F83D002068211D01F006F8012084F89E
:10372000460084F83E0084F83F0084F8400084F8A6
:10373000410084F8420084F8430084F8440084F88F
:10374000450084F83D00002010BD000083B00068F3
:1037500040F60001C4F20001884227D040F2004147
:10376000C4F20001884211D0B0F1804F2BD141F258
:103770001C00C4F20200016841F001010160006810
:1037800000F001000290029803B0704741F21C0063
:10379000C4F20200016841F002010160006800F01B
:1037A00002000190019803B0704700BF41F21C0075
:1037B000C4F20200016841F004010160006800F0F9
:1037C00004000090009803B07047000070470000AC
:1037D000C1B1042908D0082914BF41224022825CCB
:1037E000012A05D016E000BF3F22825C012A11D1D8
:1037F0000222082910D0042914BF80F8412080F843
:103800003F200BE090F83E20012A03D1022280F8ED
:103810003E2003E00120704780F84020006801F05E
:103820001F010122036A02FA01F123EA0102026286
:10383000026A114340F6FF32C4F200029042016274
:103840000EDCB0F1804F25D040F20041C4F20001FF
:1038500088421FD040F60001C4F2000118E000BF0A
:1038600040F60041C4F20001884213D043F2004206
:10387000C4F2010242F600419042C4F2010101D0BB
:1038800088420ED1436C904243F40043436401D01C
:10389000884206D1816801F00701062904BF002093
:1038A0007047016841F0010101600020704700008D
:1038B00010B5026801F01F0E4FF0010C146A0CFAEB
:1038C0000EF324EA0303136243F20044136AC4F2C2
:1038D0000104A242136205D042F60043C4F2010380
:1038E0009A4209D1136A41F21114234204D1136A96
:1038F00040F2444423420FD0136A41F21114234290
:1039000013D1136A40F2444423420ED1136823F0CA
:103910000103136009E000BF536C23F400435364B8
:10392000136A41F211142342EBD0082912D0042962
:103930000AD000294FF0010114BF80F8411080F82F
:103940003E10002010BD00BF012180F83F10002074
:1039500010BD00BF012180F84010002010BD000004
:103960002DE9F04140F27008C2F2000898F800100A
:10397000002900F0FC80014698F80100FEF7A8F845
:10398000002800F0F480D8F80C000130C8F80C00D2
:1039900098F8020028B9D8F80C00D8F8101088421E
:1039A0006CD244F24020D8F80C10C0F20F00B8F8E6
:1039B0000620B8F8063044F6206701FB070653439B
:1039C00098F802209E4238BF33460AB10AE000BF91
:1039D000D8F81020CE4302EB060C0CFB07029A42EB
:1039E00038BF13464FF0804214469A420FD9B3EBCA
:1039F000940F0BD2B3EB141F3AD2B3EB941F4FEAE0
:103A00001422F1D3A409002524B944E0A408002518
:103A1000002C40D02E1904EB5507B34238BF6F0875
:103A2000A20835D09E1B38BF1E46BB1802EB5705B7
:103A30009E4238BF7D0827092DD0F31A05EB0702F7
:103A400038BF334607EB5506934238BF6E08A709C7
:103A500020D09A1A38BF1A46F319D31A07EB560525
:103A600038BF134638BF7508240AD3D113E000BF0E
:103A700024090025002CCDD10DE000BF98F80100ED
:103A8000FEF7E4F898F80100FEF73AF869E000BFA5
:103A90003D4600E035464FF6F8722A40B2F57A7F8F
:103AA00038BF4FF47A75B8F80620ABB2934288BF9E
:103AB000B8F8065098F8022042B1B8F80610AAB239
:103AC00001238A4208BF022312E000BFD8F8102069
:103AD000914207D2B8F80620ABB2934204D1022338
:103AE00006E000BF032303E001238C4538BF032316
:103AF00042F21171691A89B24DF6D742914288F8A3
:103B0000053023D3AEB2B0FBF6F498F8010021469D
:103B1000FEF724F8D0B1A8F80850C8F82440B8F847
:103B20000A00864288BFA8F80A50D8F82000013061
:103B3000C8F8200098F8050001281BD108F11400EE
:103B4000016801310160BDE8F08100BF98F8010013
:103B5000FEF77CF898F80100FDF7D2FF092088F8FD
:103B60000400002088F80000012088F80300BDE868
:103B7000F08100BF98F80500022807D108F118006D
:103B8000016801310160BDE8F08100BF98F80500CF
:103B9000032818BFBDE8F08108F11C00016801315D
:103BA0000160BDE8F081000070470000002804BFFC
:103BB0000120704710B5044690F8410028B9002054
:103BC00084F84000204600F063F8242084F8410087
:103BD0002068D4E90212C36823F40053C360036968
:103BE00023F440531A430261D4E904231143C26809
:103BF000194341F20C639A431143C1604169A269C0
:103C000021F44071114343F60002C4F201029042D4
:103C1000416103D0FEF70AFE02E000BFFEF71AFE84
:103C2000D4E90023192148439900B0FBF1F048F290
:103C30001F5CC5F2EB1CA0FB0C314FF69C734909CD
:103C4000C0F6FF7301FB0300322303EB0010A0FB5F
:103C50000C03F02000EA531000EB0110C3F34311F2
:103C6000084490601069202120F490401061506950
:103C700020F02A005061D06840F40050D06000204D
:103C8000606484F8411084F84210606310BD000045
:103C900070B586B0006844F60001C4F20001002649
:103CA00088420596CDE90366029635D044F200417C
:103CB000C4F2000188426BD141F21800C4F2020044
:103CC000416840F6000441F4003141604168C4F2AB
:103CD000010401F4003101910199016802AD41F044
:103CE000040101600068294600F004000190019879
:103CF0000420029002200390032005902046FEF746
:103D0000F1F8082002900020CDE903002046294662
:103D1000FEF7E8F806B070BD41F21800C4F20200E8
:103D2000416802AD41F480214160416801F4802185
:103D300001910199016841F0100101600068294674
:103D400000F01000019001984FF480600290022072
:103D500003900320059040F60000C4F2010000F536
:103D600000642046FEF7BEF84FF40060CDE902067D
:103D7000204629460496FEF7B5F80420C4F2010057
:103D8000016841F0E06141F0100121F02001016083
:103D900006B070BD2DE9F04381B0044690F84100B3
:103DA000202809D100294FF0010018BF002A07D1AF
:103DB00001B0BDE8F08300BF022001B0BDE8F08390
:103DC0000020606421201D460E4684F841001746FD
:103DD000FEF788F9A784E784A1688146B1F5805F82
:103DE00002D1206900285DD037460020E28C21688E
:103DF000002A5DD06A1C24D0002D4AD0804600BF26
:103E00000868000608D4FEF76DF9A0EB0900A84287
:103E10007AD82168C868F3E717B117F8010B04E0F6
:103E200038F8020B00276FF35F204860E08C013800
:103E3000E084E08C0028E3D13AE000BF0A68120673
:103E400009D40A68120606D40A6812065CBF0A681A
:103E50005FEA0262F2D51FB117F8012B05E000BF3F
:103E600030F8022B00276FF35F224A60E28C013AA0
:103E7000E284E28C002AE4D11AE000BF30F8022B81
:103E800000276FF35F224A60E28C013AE284E28C01
:103E900072B10A68120635D5002FEFD017F8012B42
:103EA000F1E700BF00273046E28C2168002AA1D14B
:103EB000086840061ED42DB3681C14D1086840065B
:103EC0002AD40868400627D40868400624D4086825
:103ED00040064FF00000F1D50DE000BF2068C1683A
:103EE0000068400618D4FEF7FDF8A0EB0900A842D0
:103EF000F4D909E00020202184F8411001B0BDE888
:103F0000F08300BFFEF7EEF80320202184F8411073
:103F100001B0BDE8F08300BF0020202184F84110EB
:103F200001B0BDE8F0830000FEE7000070B5036853
:103F3000044653F8140F400711D40E46481C29D0EC
:103F400086BB00BF1868400527D4FEF7CBF823686E
:103F500053F8140F400737D518684007F2D50020F2
:103F600070BD00BF18684007F9D41868400514D424
:103F700018684007F3D4186840050ED41868400745
:103F8000EDD41868400508D4186840074FF00000C9
:103F900048BF70BD18684005E4D56FF480601860B4
:103FA000042012E0154603E053F8140F4007D6D45E
:103FB00018684005F1D4FEF795F8401B2368B0421D
:103FC000F2D958694007EFD4202000212022216334
:103FD00084F83D2084F83E10226C104320640120B8
:103FE00084F83C1070BD00002DE9F04105460068E2
:103FF0001E46144601F47F0201338FB242D0DDF831
:104000001880B2F5803F40F0878040693840C01B7F
:10401000B0FA80F04009844240F0C8804EB924E0F4
:1040200040693840C01BB0FA80F04009844240F03B
:10403000BD80FEF757F8A0EB08012868B142EFD920
:1040400041693940C91BB1FA81F149098C42E7D174
:104050009BE000BF40693840C01BB0FA80F04009C7
:1040600084424FF0000040F0A280FEF73BF8286841
:1040700041693940C91BB1FA81F149098C42E9D142
:1040800083E000BFB2F5803F24D100BF41693940D1
:10409000C91BB1FA81F149098C4240F0878041691E
:1040A0003940C91BB1FA81F149098C4240F07E8048
:1040B00041693940C91BB1FA81F149098C4275D176
:1040C00041693940C91BB1FA81F149098C42DDD0FF
:1040D0006CE000BF81693940C91BB1FA81F149091F
:1040E0008C4263D181693940C91BB1FA81F1490918
:1040F0008C425BD181693940C91BB1FA81F1490910
:104100008C4253D181693940C91BB1FA81F1490907
:104110008C42DFD04AE000BF80693840C01BB0FA53
:1041200080F04009844241D146B923E0806938409B
:10413000C01BB0FA80F04009844237D1FDF7D2FFAE
:10414000A0EB08012868B142F0D981693940C91B48
:10415000B1FA81F149098C42E8D116E08069384012
:10416000C01BB0FA80F0400984424FF0000018BF35
:10417000BDE8F081FDF7B6FF286881693940C91BA9
:10418000B1FA81F149098C42E8D10020202128634D
:1041900085F83D1085F83E00296C41F02001296426
:1041A00085F83C000120BDE8F08100BF0020BDE89B
:1041B000F0810000F0B581B0044600681D464369F7
:1041C0008FB203EA0701B94202D1002001B0F0BD6D
:1041D0004169164601323CD0490512D47EB300BF76
:1041E000FDF780FF411B2068B14203D94169394086
:1041F000B9422BD141693940B942E6D041694905FC
:10420000EED5016841F4007101606FF48061416195
:10421000042000212022216384F83D2084F83E10F0
:10422000226C1043206484F83C10012001B0F0BDE2
:1042300041693940B942C8D041694905E1D4FDF727
:1042400051FF206841693940B942F1D02020E0E7B0
:1042500041694905D5D441693940B942B5D0416970
:104260004905CED441693940B942AED041694905CA
:10427000C7D441693940B942A7D041694905C0D482
:1042800041693940B942E3D19FE7000070B5036846
:10429000044653F8140F000611D40E46481C29D0CA
:1042A00086BB00BF1868400527D4FDF71BFF2368B5
:1042B00053F8140F000637D518680006F2D5002011
:1042C00070BD00BF18680006F9D41868400514D402
:1042D00018680006F3D4186840050ED41868000664
:1042E000EDD41868400508D4186800064FF00000A7
:1042F00048BF70BD18684005E4D56FF48060186051
:10430000042012E0154603E053F8140F0006D6D43B
:1043100018684005F1D4FDF7E5FE401B2368B04264
:10432000F2D958690006EFD4202000212022216311
:1043300084F83D2084F83E10226C10432064012054
:1043400084F83C1070BD0000F0B581B040F27005FB
:10435000C2F20005E888E988AA78414344F2402087
:10436000C0F20F00814228BF01465AB92A694FF2B4
:104370002043C0F20E0344F6206702FB07328A4254
:1043800038BF11464FF080431A468B420FD9B1EB2C
:10439000920F0BD2B1EB121F3CD2B1EB921F4FEA3E
:1043A0001223F1D39209002622B937E092080026A1
:1043B000A2B300BFB71802EB5603B94238BF730867
:1043C000960825D0CF1B38BF0F46991906EB530628
:1043D0008F4238BF5E08130920D0791A06EB030418
:1043E00038BF394603EB5603A14238BF730897091B
:1043F0000ED00E1B38BF0E46D919711A38BF314680
:1044000007EB530638BF5E08120AD3D106E000BF9F
:104410001E4603E012090026002ACBD14FF6F871A0
:104420003140B1F57A7F38BF4FF47A76E988B2B27D
:104430008A4288BFEE88A97809B9296981B3EA88D8
:10444000B3B20121934208BF022142F21172B21AA3
:1044500092B24DF6D7439A42697117D3B7B2B0FB07
:10446000F7F468782146FDF779FB78B12E816C620C
:104470006889874288BF6E81286A0130286268791E
:10448000012807D105F1140011E000BF002001B0A0
:10449000F0BD00BF6879022804D105F1180006E0DC
:1044A0000321D2E76879032804D105F11C000168D3
:1044B00001310160012001B0F0BD0000FEE7000005
:1044C000FEE70000704700002DE9F04381B0089C32
:1044D000984615460E468146FDF704FE201A00EB6D
:1044E0000804FDF7FFFD40F20801C2F2000109686F
:1044F000C1F3CB3161430091D9F800108A68324092
:10450000921BB2FA82F2520995423DD0074618F149
:10451000010031D0FDF7E6FDC01BA04238D2009863
:1045200000990028A1F101010091D9F800108968D3
:1045300008BF044601EA0600801BB0FA80F040097B
:104540008542E7D120E000BF88683040801BB0FA88
:1045500080F04009854217D088683040801BB0FA4F
:1045600080F0400985420FD088683040801BB0FA47
:1045700080F04009854207D088683040801BB0FA3F
:1045800080F040098542DFD1002001B0BDE8F08312
:10459000D9E900014268B1F5827F22F0E002426071
:1045A0000BD1D9F80810B1F5004F02D0B1F5806FEA
:1045B00003D1016821F040010160D9F82810B1F55C
:1045C000005F07D1016821F400510160016841F4E6
:1045D00000510160012089F85100002089F8500045
:1045E000032001B0BDE8F0837047000010B582B031
:1045F0008A780C46C978022A16D102292CDC79B3B4
:1046000002293CD1D0F8201144F6A80E0246103001
:104610004FF0030CC0F6000E2346CDE900ECFCF78A
:10462000E3FC02B010BD00BFD31E012B0AD849B96C
:10463000014600F58270224602B0BDE81040FBF74B
:1046400039BE00BF052A08BF002918D1214602B093
:10465000BDE81040FBF718BF032913D0F0290ED195
:10466000D0F8201144F6A80E024610304FF0030C8B
:10467000C0F6000E2346CDE900ECFCF765FB02B066
:1046800010BD00BF0246D2F820111030234602B000
:10469000BDE81040FCF756BCFDF70CBFB0B590B0BC
:1046A00000240120CDE90B44CDE9094406900A908D
:1046B0004FF4E0104FF4803102250F9006A8CDE9A9
:1046C0000714CDE90D51FEF7D9F828B1EFF31080AA
:1046D00072B600BFFEE700BF0F20CDE901054FF421
:1046E0008060CDE9040401A802210394FDF7C0FF16
:1046F00020B1EFF3108072B6FEE700BF10B0B0BD7E
:104700007047000040F25010C2F20000FEF718BEE1
:1047100040F29810C2F20000FEF712BE40F2E01024
:10472000C2F20000FEF70CBE10B540F6FF3203687F
:10473000C4F2000240F6004E43F2004C9042C4F234
:10474000000EC4F2010C21DCB0F1804F28D040F201
:104750000044C4F20004A04222D040F60004C4F297
:104760000004A0421CD0904220DCB0F1804F27D042
:1047700040F20042C4F20002904221D040F6000212
:10478000C4F2000290421BD01EE000BF704507D06B
:10479000604505D042F60044C4F20104A042E2D1D3
:1047A0004C6823F0700323439042DEDD704507D050
:1047B000604505D042F60042C4F20102904203D1A6
:1047C000CA6823F4407313434C6923F08002D1F884
:1047D00000E08B68224360450260C362C0F828E0B5
:1047E00005D042F60042C4F20102904201D10969AB
:1047F0000163012141610169C90708BF10BD016959
:1048000021F00101016110BDFEE7000080B5FDF758
:104810005FFEFFF743FF44F62010C0F60000FCF7F0
:10482000CDFCFCF7F5FC002080BD07003800C0017E
:104830000000000000000000010203040607080950
:104840000000000001020304AAAA01000000000009
:104850000000000055550000500100200400000039
:1048600004000000040000001C000000980100206B
:104870000C00000010000000100000001D000000EF
:10488000E001002000000000020000000200000023
:104890001E000000010202030405060708090A0BB6
:1048A0000C0D0E0F10100000010000000010014060
:1048B0000400000000100140080000000008014052
:1048C000010000000008014002000700000303008F
:1048D0000200000000100140100000000010014024
:1048E00020000000000C014001000000000C01400D
:1048F000020038000003030003000000000C014028
:1049000080000000000C014010000000000C01407D
:1049100020000000000C01404000C0010003030023
:104920007000002073000020710000207200002041
:104930007C0000208000002076000020780000200D
:104940007A000020750000208400002088000020EC
:104950008C000020900000209400002074000020B3
:1049600049430008884900080000002010000000AA
:10497000940100089849000810000020D0090000A8
:10498000B401000800000000010000001000000059
:0849900000127A000000000093
:0400000508000131BD
:00000001FF
