:020000040800F2
:10000000E8090020F90100085D400008993A00085D
:1000100059400008291A00085D430008000000004C
:100020000000000000000000000000008541000802
:100030002D1A000800000000614000080542000879
:10004000130200081302000813020008130200083C
:10005000130200081302000813020008130200082C
:10006000130200081302000813020008130200081C
:10007000130200081302000813020008130200080C
:1000800013020008130200081302000813020008FC
:10009000130200081302000813020008611A000886
:1000A00013020008130200081302000813020008DC
:1000B000714200081302000813020008130200082E
:1000C00013020008130200081302000813020008BC
:1000D00013020008130200081302000813020008AC
:1000E000311A000813020008130200081302000866
:1000F000130200081302000813020008130200088C
:10010000130200081302000813020008130200087B
:10011000130200081302000813020008130200086B
:10012000130200081302000813020008130200085B
:1001300000F002F800F050F814A696E8000CB24463
:10014000B344DA4501D100F047F8BAE80F000FA632
:1001500096E83000A5EB040504EB0607AAEB0704BC
:10016000A7F101074FEA15154FEA3414A4F1010471
:10017000AC4201D300F030F813F0010F18BFFB1AA6
:1001800043F0010300F001F8DBE718477C42000070
:100190009C420000103A24BF78C878C1FAD85207B0
:1001A00024BF30C830C144BF04680C6070470000F1
:1001B000704700000023002400250026103A28BFC5
:1001C00078C1FBD8520728BF30C148BF0B607047C9
:1001D0001FB51FBD10B510BD00F031F81146FFF777
:1001E000F7FF04F0BDF800F04FF803B4FFF7F2FF9B
:1001F00003BC00F057F80000094880470948004751
:10020000FEE7FEE7FEE7FEE7FEE7FEE7FEE7FEE7C6
:10021000FEE7FEE704480549054A064B7047000023
:100220006D42000831010008E8030020E8090020C1
:10023000E8050020E80500207047704770477546C4
:1002400000F02CF8AE4605006946534620F0070042
:10025000854618B020B5FFF7DDFFBDE820404FF020
:1002600000064FF000074FF000084FF0000BAC46BF
:10027000ACE8C009ACE8C009ACE8C009ACE8C0090A
:1002800021F007018D46704710B50446AFF300809A
:100290002046BDE81040FFF7A8BF000000487047A7
:1002A0001000002001491820ABBEFEE72600020026
:1002B00070470000704700002DE9F04184B00C4603
:1002C000002184F82110137B0546AA2B04D1507B12
:1002D000AA38B0FA80F041095079977892F80480F2
:1002E00050B9907940B9D07930B9107A20B9507AA4
:1002F00010B9907A00285DD00020032F60D12A68C1
:1003000001322A6001EA0002012A4FF0000204D102
:10031000A8F10103022B38BF01226A7151B10028F4
:100320003ED06879002814BF00200220E871687967
:1003300020B93AE00120E8716879B0B3A8F1010072
:10034000B0FA80F0460940F60040C4F201004FF4D4
:100350008051324600F0DAFF4AF6AA20C0F20300CC
:100360002E71CDF802000020CDF80700CDF80A006C
:1003700045F25550ADF80E000DF102000E21642239
:100380008DF8068001F036FBB0FA80F04009A871C4
:100390000626A85D84F8220004B0BDE8F08100BF05
:1003A0000320E87168790028C8D10020A87160692D
:1003B00006265EE0D07AB0FA80F04009032F9ED086
:1003C000AA6800230132AA6001EA0002012AA8F10A
:1003D000010202D1022A38BF01236B7351B10028F8
:1003E0003ED0687B002814BF00200220E873687BA1
:1003F00020B93AE00120E873687BB0B3B2FA82F02A
:10040000460940F60040C4F201004FF40051324664
:1004100000F07CFF4AF6AA202E73ADF802000020FF
:100420008DF80500CDF80700CDF80A0045F25550CB
:10043000ADF80E000DF102000E2164228DF804705B
:100440008DF806800E2601F0D5FAB0FA80F040094A
:10045000A873A85D84F8220004B0BDE8F08100BF55
:100460000320E873687B0028C8D10020A873606966
:100470000E2601306061A85D84F8220004B0BDE85A
:10048000F081000080B501F025FC40F29801C2F235
:100490000001486000200870BDE8804000F07CBF8B
:1004A00080B501F017FC40F29801C2F200014A68E1
:1004B000821AB2F5FA7F38BF80BD0A784860501EB4
:1004C00082F00103B0FA80F040090B70BDE8804073
:1004D00000F06CBF70470000B0B584B00446002047
:1004E00084F82100087B0D46AA2805D1687BB0F16D
:1004F000AA0218BF012200E001226B792879A979AC
:100500003BB9EB792BB92B7A1BB96B7A0BB9AB7A68
:10051000A3B301231A43D20737D1C21E12F1020F2F
:1005200033D34A1FD2B2FB2A2FD94A1E00210128F9
:10053000D0B208BF40F6FF7100F04CFF28B34AF676
:10054000AA20ADF80200D5F80200D5F806100190F7
:1005500068890291ADF80C0045F25550ADF80E00D7
:100560000DF102000E21642201F044FAB0FA80F08D
:10057000400984F8220004B0B0BD00BFEB7A002B24
:1005800018BF01231A43D207C7D0606901306061E8
:10059000002084F8220004B0B0BD000010B504466D
:1005A00001F098FB206010BDF0B581B0044601F069
:1005B00091FB2168401A0A287AD301F08BFB206056
:1005C00041F20800C4F20100006840F2A007C2F244
:1005D00000077860786841F20005C0F38010387039
:1005E000B868C4F201050130B8602846402100F027
:1005F0006BFEA5F58066607130464FF4004100F057
:1006000063FEA07130464FF4804100F05DFEE07162
:1006100028464FF4007100F057FE207228464FF430
:10062000807100F051FE60722846802100F04CFE7F
:10063000A5F50065A07228464FF4805100F044FEF5
:10064000E07228464FF4006100F03EFE2073284619
:100650004FF4806100F038FE60730020E081607923
:10066000012827D0A07901282BD0E07901282FD0AC
:10067000207A012833D0607A012837D0A07A012867
:100680003BD0E07A01283FD0207B012843D0607B1B
:10069000012803D1E08940F48070E08101202071BD
:1006A00020686168A268E368BB617A613961F860BB
:1006B00001B0F0BDE08940F00100E081A07901289F
:1006C000D3D1E08940F00200E081E0790128CFD168
:1006D000E08940F00400E081207A0128CBD1E08954
:1006E00040F00800E081607A0128C7D1E08940F03D
:1006F0001000E081A07A0128C3D1E08940F02000F9
:10070000E081E07A0128BFD1E08940F04000E0813B
:10071000207B0128BBD1E08940F08000E081607B34
:100720000128B7D0BAE7000010B540F60044C4F283
:10073000010404F580602821012200F0E7FD204635
:100740001021012200F0E2FDA4F5806001210022C9
:1007500000F0DCFD20460121002200F0D7FD2046FC
:1007600020210022BDE8104000F0D0BD2DE9F04F5F
:1007700087B08A460968994609789046054619B9AE
:10078000DAF80400007838B100F0A0FD410703D08A
:10079000E88401202875E874E87C109F002800F0A8
:1007A000A780CDE901892C7D00203CB1E969FF27B4
:1007B00001314FF006090B26E96103E002274FF0F3
:1007C00005090026E87428752874DAF80000007816
:1007D00038B101F04BF801F017F8DAF80000002109
:1007E0000170DAF804004FF0000B80F800B001202F
:1007F00000F08EFD40F60000C4F20100022100224C
:1008000000F084FDA87CDDF8408050B140466A21AC
:1008100001F034F8A863A86B696B401A6FF39F204E
:10082000A8874046002101F05DF8029880F852B098
:1008300085F812B0DAF8080080F800B04AF6AA206D
:1008400085F80FB085F81190AE7385F8307085F893
:100850003160ADF80E004FF002008DF810008DF8F9
:1008600011703CB100208DF81260CDF81300CDF866
:1008700016001FE095F829008DF8120095F82A005F
:10088000DAF814108DF813000888000A8DF81400A7
:1008900008888DF81500E86A000E8DF81600E86AE1
:1008A000000C8DF81700E86A000A8DF81800E86A55
:1008B0008DF8190045F25550DDF80480ADF81A00A6
:1008C0000DF10E000E21642201F094F8B0FA80F0D0
:1008D000400985F83200002CDDF808901CBF95F81F
:1008E000320085F8280095F83200109F88F8220021
:1008F000287C002800F0FC80DAF80000007800284E
:1009000040F0F68000202874A87400F0DFFC410756
:1009100002D0E8840B24C2E03846002100F0E2FF58
:100920003846042100F0AAFFC9F80800D9F80800E9
:10093000012600F07F4000F15040B0FA80F04009FD
:1009400089F80C0089F80D6099F80C00002800F077
:10095000A580384600210822082400F0CDFF384643
:10096000002100F08BFFC9F81000D9F810000838FA
:10097000B0FA80F0400989F8140089F8156099F8F8
:100980001400002800F08B8038460121012600F079
:1009900075FFC9F8180038460121072289F81C6044
:1009A00000F0AAFF642001F073F83846012100F03E
:1009B00065FFC9F82800D9F8280000F0040086EA8D
:1009C000900089F82C0089F82D6099F82C000028F7
:1009D00064D038466C2100F051FFC9F83000384629
:1009E00010214FF4407289F8346000F085FFD9F887
:1009F0003040032060F3030438466C21224600F0A7
:100A00007BFF38466C2100F039FFC9F83800D9F86F
:100A10003800001BB0FA80F0400989F83C0089F8E2
:100A20003D6099F83C00C8B300F050FC41077FF4EA
:100A300070AF38460121012400F054FFC82089F826
:100A4000524001F025F83846012100F017FFC9F89F
:100A5000480038466F2100F011FFC9F84C00D9F862
:100A6000480000F00600B0FA80F0400989F8500014
:100A700089F8514099F85000002800F0DB8000F020
:100A800025FC410700F0E080E8843846002100247E
:100A900000F028FF89F852403CE700BF08240020FE
:100AA0000421AC73E8736974FF2185F830104AF6AD
:100AB000AA2185F83140CFF60271CDF81300CDF8A8
:100AC000160045F25550CDF80E10ADF81A000DF194
:100AD0000E000E2164228DF8124000F08BFFB0FA58
:100AE00080F0400985F8320095F8320088F822003D
:100AF000DAF804000178002900F0988000240470DE
:100B00000120012600F004FC40F60000C4F20100C0
:100B10000221002200F0FAFB38466A2100F0AEFE06
:100B2000A863A86B696B401A6FF39F20A887A98FF1
:100B3000DAF8100002686FF39F228A4208D0A98F6A
:100B4000006840426FF39F20401AB0FA80F04609D7
:100B50003846002185F83E6000F0C4FE89F8524016
:100B6000AC74DAF8080004702C75EC73DAF838000D
:100B70000178C9B1042169740178A973FF2185F84E
:100B80003010017885F8311000784AF6AA21CFF6A6
:100B900002718DF812000020CDF80E10CDF8130070
:100BA000CDF816002FE000BF03206874002001215B
:100BB000A87385F8301085F831004AF6AA20C0F2F3
:100BC0000210CDF80E0095F829008DF8120095F866
:100BD0002A00DAF814108DF813000888000A8DF83E
:100BE000140008888DF81500E86A000E8DF81600CC
:100BF000E86A000C8DF81700E86A000A8DF8180002
:100C0000E86A8DF8190045F25550ADF81A000DF15B
:100C10000E000E21642200F0EDFEB0FA80F04009D3
:100C200085F8320095F8320088F8220007B0BDE858
:100C3000F08F00BF38460021002400F053FE89F8F1
:100C4000524008242BE700BF40F6000495F82A2004
:100C5000C4F2010420460121002A18BF01224FF0EE
:100C6000010B00F053FB204602210022002600F079
:100C70004DFB012000F00CFF022000F049FB204654
:100C80000221002200F042FB38466A2100F0F6FD06
:100C9000686385F83E600AF1180207CA0AF1240366
:100CA00006800E8016700FCB06600E6016601E6008
:100CB000DAF834000660DAF838000670DAF80C006A
:100CC000DAF83C1006608847B0B100F0A7FDDAF80A
:100CD000000080F800B000F0C1FDA8B1DAF8000013
:100CE0000024047000F090FD3846002100F0FAFD69
:100CF00089F8524006E000BF3846002100F0F2FDBE
:100D000089F852600924CAE6022068740120A87498
:100D1000DAF80400017800297FF4F0AE86E70000DD
:100D20002DE9F04184B00546002082F8210090466C
:100D30002A6801322A601A792A715A796A71DA8826
:100D4000DC7892FA92FCF02C1CBF986800BAA5F8E7
:100D500006C0A8601F7BAA2F0CD15F7BAA2F09D1E8
:100D60002F79012F66D16F79012F67D94FF0030ECC
:100D700002E000BF4FF0010E002785F80EE02F7350
:100D80002F7BDFB1A4F1F0072C79B7FA87F785F84C
:100D900029406C797F0985F82A408C68D1E9046282
:100DA000A2F800C0E86230602770C86800210160C6
:100DB00001202874E8736874E97429754AF6AA203A
:100DC000ADF8020002208DF80400287B00284FF0C7
:100DD000000008BF4FF0FF308DF80500287B002889
:100DE0004FF0000006D098685968CDF80A00CDF899
:100DF00006100AE08DF806E0CDF80700CDF80A00ED
:100E0000D8F814000130C8F8140045F25550ADF878
:100E10000E000DF102000E21642200F0EBFDB0FA8D
:100E200080F040096873687B88F8220004B0BDE850
:100E3000F08100BF4FF0020E9EE700BF42F2117733
:100E40004DF6D746ACEB0707CFF6FF76B74203D295
:100E50004FF0040E90E700BFF02C07D0471E42F67B
:100E6000DF66B74202D94FF0050E85E7F02C07D0B8
:100E70000CEB8C07B84203D94FF0060E7CE700BF9D
:100E800095F80FE0BEFA8EF77F09BEF1000F18BF8C
:100E90004FF0070E71E70000B0B584B005460020A2
:100EA00082F8210014462A6A01322A621A7BAA2A91
:100EB00028D15A7BAA2A25D14AF6AA20C0F20230AC
:100EC000CDF8020095F829008DF80600687C8DF8B1
:100ED00007004869C9680288120A8DF8082000884E
:100EE0008DF809000868000E8DF80A000868000CEB
:100EF0008DF80B000868000A8DF80C0008688DF862
:100F00000D000DE04AF6AA220121CFF60272A97364
:100F1000CDF802208DF80610CDF80700CDF80A00B4
:100F200045F25550ADF80E000DF102000E2164227D
:100F300000F060FDB0FA80F0400985F8240095F8D3
:100F4000240084F8220004B0B0BD0000B0B584B025
:100F50000546002082F82100A96914460131A961E3
:100F6000197BAA290CD1597BAA2909D11879012802
:100F700028D1E87B40B30120E87400201BE000BFCB
:100F80004AF6AA220121CFF60272A973CDF80220F7
:100F90008DF80610CDF80700CDF80A0045F255503F
:100FA000ADF80E000DF102000E21642200F022FDCA
:100FB000B0FA80F040096873687B84F8220004B0BE
:100FC000B0BD00BF022000E00A204AF6AA21CFF6F9
:100FD0000271A873CDF802108DF806000020D9E741
:100FE00040F62601C2F22601416270472DE9F04128
:100FF00014460D46064600F0F3FC20B100F004FD57
:10100000F0690130F06100F0D9FC002808BFBDE8AC
:10101000F08144F296380027C0F6000805E000BFD2
:10102000B77300F0CBFC002852D000F0D1FCB169BE
:101030000131B16186F82000B17B09B95528F0D1A2
:10104000012901D15528EBD14A1CB2737054B07BF1
:101050000E28E6D3317800205529B07321D170785D
:1010600055281DD1B07801281AD1F078C0B930794F
:10107000B0B97079A0B9B07990B9F07980B9307A07
:1010800070B9707A60B9B07A50B9F07A40B9307BF3
:10109000AA2805D1707BAA38B0FA80F0400900E098
:1010A000002086F8210096F8210068B130690E21F1
:1010B000013030614046642200F09CFCB0FA80F0C0
:1010C000400986F82200ACE720463146A847A8E749
:1010D000BDE8F08110B540F2D024C2F20004C4F89B
:1010E0000C0100F055F800F02DFC00F023F900F0A1
:1010F00095F900F0D7F900F063FA00F0F3FA00F088
:101100003FFCFFF7BFF9FFF70FFB04F17800FFF793
:1011100045FA04F1880000F033F82046FFF760FF3D
:10112000FFF7C8F800F04CF9BDE81040FFF7D2B95E
:1011300082B040F2D02544F28918C2F2000544F290
:10114000F839C0F6000805F17806C0F6000905F187
:10115000280705F1880400BFFFF7A2F92846414699
:101160002A46FFF743FF3046FFF71EFAD5F80C1169
:1011700038462A462346CDF80090FFF7F7FAEBE70A
:1011800010B5044600F0A6FD20600120207110BDBE
:101190002DE9F04786B0002441F21800CDE904445F
:1011A000CDE90244C4F20200016841F2000841F0B6
:1011B000100101600168C4F2010801F01001019101
:1011C00001990168002241F020010160016801F0ED
:1011D000200101910199016841F004010160016859
:1011E00001F0040101910199016841F008010160D9
:1011F00000684FF4C04100F008000190019840469B
:1012000000F062FD40463C2101224FF0010900F050
:101210005BFDA8F5006528460121002200F054FD81
:10122000A8F58066304643F22101002200F04CFD13
:1012300030469021012200F047FD46F23C0002AF0B
:10124000CDE902094FF0020A404639460494CDF830
:1012500014A000F03FFC4FF40040CDE902044046EA
:101260003946049400F036FC28463946CDE9029907
:10127000CDE9044A00F02EFC43F2B100CDE90209A9
:1012800030463946CDE9044A00F024FC4FF4404092
:10129000CDE9020430463946049400F01BFC4FF4BB
:1012A0007070CDE9020440463946049400F012FC07
:1012B0004FF4E050CDE9020428463946049400F08A
:1012C00009FC06B0BDE8F08700F0F8BCB0B540F608
:1012D0000044C4F2010404F58060402100F0EEFCFB
:1012E0000138B0FA80F0450920464FF4004100F083
:1012F000E5FC012820464FF4804108BF023500F08C
:10130000DDFC012808BF04352846B0BD00F0DCBC78
:1013100080B584B00221CDE90010002002900320A6
:10132000039040F60000C4F20100694600F0D2FBD1
:1013300004B080BD80B540F2BC0045F20041C2F26D
:101340000000C4F2000148F2A06200234FF4804C78
:10135000C0F2010280E80E00C0E9033CC0E9053399
:10136000C0E9073300F0BCFC002808BF80BDBDE821
:10137000804000F087BB000080B582B09C461346D9
:101380000A46014640F2BC00C2F20000CDF800C09F
:1013900000F058FD02B080BD41F20000C4F201002F
:1013A0004FF48041012200F08FBC0000024641F260
:1013B0000000C4F201004FF4804100F085BC000041
:1013C00041F20000C4F201004FF40051002200F08D
:1013D0007BBC0000024603284FF000001CD8B0EB95
:1013E000113F18BF704780B582B0402040EA4200EC
:1013F0008DF80500080A8DF806008DF807100DF12C
:101400000501C02003226423FFF7B6FFB0FA80F085
:10141000400902B0BDE8804070470000B0B540F21E
:10142000101043F20001C2F20000C4F201014FF4B7
:101430008272002380E80E0000F10C014FF0020CD4
:101440004FF0010E4FF40074202581E808500A2166
:10145000C0E90645C0E90833C0E90A3101F0F0F9F6
:10146000002808BFB0BDBDE8B04000F00BBB0000D5
:1014700080B582B09C4613460A46014640F21010E1
:10148000C2F20000CDF800C001F06AFB02B080BDDE
:1014900013460A46014640F21010C2F2000001F065
:1014A00061BA0000B0B590B040F268100021C2F2FD
:1014B00000006325CDE90811CDE90611CDE904113D
:1014C0004FF080424723C0E9021501618021C0E945
:1014D0000023816101F0EEFE002818BF00F0D2FA6F
:1014E00040F26810C2F2000008A901F0BDFC00281B
:1014F00018BF00F0C7FA602040F268140190322053
:10150000C2F200040290002501A92046042203959E
:10151000059501F0A1FD002818BF00F0B3FA20687E
:1015200040F60001C4F2000188420F95CDE90D5547
:101530000C9529D040F20041C4F20001884217D036
:10154000B0F1804F3AD141F21800C4F202000168B4
:1015500041F0040101600068022100F004000B90DA
:101560000B9840F60040C4F20100A0F580601DE039
:1015700041F21800C4F20200016841F00801016064
:10158000006802210AE000BF41F21800C4F2020024
:10159000016841F0080101600068402100F0080086
:1015A0000B900B9840F60040C4F201000C91022110
:1015B0000D9103210F910CA900F08CFA10B0B0BD71
:1015C00070B590B040F6004440F2B010C4F201048F
:1015D0000021C2F2000040F2E736CDE90811CDE962
:1015E0000611CDE90411A4F584324723C0E902169F
:1015F00001618021C0E90023816101F05BFE0028C8
:1016000018BF00F03FFA40F2B010C2F2000008A983
:1016100001F02AFC002818BF00F034FA602040F2E4
:10162000B01501903220C2F200050290002601A9F7
:1016300028460C220396059601F00EFD002818BFDF
:1016400000F020FA286840F60001C4F20001884248
:101650000F96CDE90D660C962AD040F20041C4F2F7
:101660000001884214D0B0F1804F38D141F2180007
:10167000C4F202000168A4F5806441F00401016035
:10168000006800F004000B900B9802201EE000BFE1
:1016900041F21800C4F20200016841F00801016043
:1016A000006800F008000B900B9802200EE000BFCD
:1016B00041F21800C4F20200016841F00801016023
:1016C000006800F008000B900B9840200C9002205E
:1016D0000D9003200F900CA9204600F0FBF910B0EC
:1016E00070BD000070B590B040F6004440F2F810B4
:1016F000C4F201040021C2F2000040F2E736CDE955
:101700000811CDE90611CDE90411A4F58232472371
:10171000C0E9021601618021C0E90023816101F066
:10172000C9FD002818BF00F0ADF940F2F810C2F270
:10173000000008A901F098FB002818BF00F0A2F9EA
:10174000602040F2F81501903220C2F200050290AC
:10175000002601A9284600220396059601F07CFC8C
:10176000002818BF00F08EF9286840F60001C4F286
:10177000000188420F96CDE90D660C962AD040F202
:101780000041C4F20001884214D0B0F1804F38D13A
:1017900041F21800C4F202000168A4F5806441F02F
:1017A00004010160006800F004000B900B98022017
:1017B0001EE000BF41F21800C4F20200016841F0CF
:1017C00008010160006800F008000B900B980220EF
:1017D0000EE000BF41F21800C4F20200016841F0BF
:1017E00008010160006800F008000B900B98402091
:1017F0000C9002200D9003200F900CA9204600F0C1
:1018000069F910B070BD000040F26810C2F200002B
:101810000068C16821F00101C160704780B540F2E5
:101820006810C2F200000068002141626FF00501FB
:101830000161C168002221F00401C160C16841F06A
:101840000101C1601C20022100F0B8FC1C2000F046
:1018500091FC1C20BDE8804000F09EBC40F2681066
:10186000C2F20000042101F095BD000040F26810B2
:10187000C2F20000042101F0FDBD0000F0B585B00A
:1018800004468DF80C100068A18800270022CDF8CE
:101890000D7000F019FA03AD0DF107062846314628
:1018A00005224FF0FF33FFF7E3FD2068A1880122F6
:1018B00000F00AFA2068A18800228DF810700397C2
:1018C00000F002FA2846314605224FF0FF33FFF7B9
:1018D000CFFD2068A188012200F0F6F9029800BA35
:1018E00005B0F0BDD0F808C08389B1FA81F0420993
:1018F0006046194600F0E8B910B582B0044641F0E0
:1019000080008DF80300100E8DF80400100C8DF887
:101910000500100A8DF806002068A1888DF80720C0
:10192000002200F0D1F90DF1030005214FF0FF3244
:10193000FFF7AEFD2068A188012200F0C5F902B0D2
:1019400010BD000080B540F2402044F20041C2F2D8
:101950000000C4F2000100234FF00C0C4FF4E13200
:1019600080E80E00C0E90333C0E905C3C36101F09C
:10197000D5FE002808BF80BDBDE8804000F082B8D9
:1019800080B540F2882044F60001C2F20000C4F2A3
:10199000000100234FF00C0C4FF4E13280E80E0000
:1019A000C0E90333C0E905C3C36101F0B7FE0028F5
:1019B00008BF80BDBDE8804000F064B840F28820D8
:1019C000C2F2000000680068C0F3401070470000D9
:1019D00040F28820C2F2000000684068C0B2704740
:1019E00040F28820C2F2000000680068C0F3C00026
:1019F0007047000013460A46014640F28820C2F2B2
:101A0000000001F07FBF000081B00020009040F294
:101A10008820C2F2000000680168009140680090D0
:101A2000009801B070470000FEE70000704700001A
:101A300080B54FF4806000F041F84FF4006000F092
:101A40003DF84FF4805000F039F84FF4804000F03A
:101A500035F84FF40040BDE8804000F02FB800009A
:101A600080B5402000F02AF8802000F027F84FF4DD
:101A7000807000F023F84FF40070BDE8804000F063
:101A80001DB80000EFF3108072B600BFFEE7000043
:101A9000B0B5044600F01EF9054640F20000C2F25F
:101AA00000000078611C18BF044400BF00F012F968
:101AB000401BA042FAD3B0BD7047000040F2144171
:101AC000C4F201010A68024214BF08607047FFF7C0
:101AD000F3BF00002DE9F04F82B00E68002E00F039
:101AE000E980A0F1804241F6004540F20043A2F5B2
:101AF0008432C4F201050624C4F201034FEAB2277E
:101B0000A84208BF05244FF0000E4FF001080F2532
:101B10004FF0000A4FF0000B052F38BF4FEAB224F8
:101B2000009408E00E680AF1010A36FA0AF20EF192
:101B3000040E00F0BF8008FA0AFC16EA0C09F1D086
:101B40004E684FF6FF72C1F21002964212DC122E5E
:101B500056D8DFE806F0350B4D49555555555555C6
:101B60005555555555555545510000BFD1F80CB048
:101B700046E000BF4FF6FF72C1F2210296420FDC31
:101B80000022C1F2110296421AD00022C1F21202C2
:101B9000964215D00022C1F22102964210D02FE0C9
:101BA0000022C1F2220296420AD00022C1F2310282
:101BB000964205D00022C1F23202964220D100BFE7
:101BC0008A684AB1012A14BFC0F814C0C0F810C016
:101BD0004FF0080B14E000BF4FF0040B10E000BF03
:101BE000CA6802F1040B0BE04FF0000B08E000BFE5
:101BF000CA6802F1080B03E0CA6802F10C0B00BFCF
:101C000002467446B9F5807F24BF0432203C166832
:101C100005FA04F726EA07070BFA04F637431760BC
:101C2000CA79D2067FF57EAF41F21807C4F20207E7
:101C30003A684FF6084542F001023A603A68CFF63A
:101C4000FF7502F001020192019A2AF003021A4480
:101C50000F2457590EF00C06B440A743009C04FA19
:101C600006F6374357514E6840F20C44F2029A6828
:101C700054BF22EA090242EA0902C4F201049A604E
:101C80002268B70254BF22EA090242EA090222602E
:101C90005A68B70354BF22EA090242EA09025A60AD
:101CA0000F251A68F70354BF22EA090242EA090223
:101CB0001A6037E702B0BDE8F08F00008068084086
:101CC00018BF012070470000002A08BF0904016105
:101CD0007047000040F2E030C2F200000068704738
:101CE000002804BF01207047F0B581B0044690F889
:101CF0003D0028B9002084F83C00204600F090F90F
:101D0000242084F83D002068016821F00101016071
:101D1000016841F400410160016821F40041016063
:101D200000F066FB636848F2A16CC0F2010C40F65B
:101D30000011C0F23D0163453CBF48F28041C0F252
:101D40001E01884202D2012001B0F0BD4DF6836130
:101D5000C4F21B31A0FB01122168970CD1F804E0FA
:101D60004FF496762EF03F0545EA92454D60774355
:101D700048F638160D6AC0F24106A7FB067625F034
:101D80003F07634538BF960C721C3A430A62CA6922
:101D900048F2A0664CF6FF77C0F20106B34222EA91
:101DA00007020BD801385B00B0FBF3F001306FF392
:101DB0001F30042898BF04201BE000BFA76801382B
:101DC00057B119277B43B0FBF3F001306FF31F309D
:101DD00070B100F5804007E003EB4303B0FBF3F084
:101DE00001306FF31F3018B100F5004001E000BF73
:101DF00001201043C8610868D4E9072320F0C0001F
:101E0000104318430860886848F2FF3204F10C0759
:101E100090438CCF18431043A6698860C86820F0AF
:101E2000FF0038433043C860086840F00100086094
:101E300000202021206484F83D10206384F83E00B7
:101E400001B0F0BD2DE9F04383B01E461746894628
:101E50000446FFF73FFF94F83D10202924D10546A2
:101E6000206800BF816989071AD5FFF733FF411B3E
:101E700020681A29F6D381698907F3D5002020212B
:101E8000206384F83D1084F83E00216C41F020016D
:101E9000216484F83C00022003B0BDE8F08300BF59
:101EA00094F83C10012903D1022003B0BDE8F0836F
:101EB000012184F83C100168C90703D1016841F091
:101EC00001010160016840F2020821F40061016033
:101ED000212184F83D10102184F83E100021216456
:101EE00067626685618DC0F201082185A8F1021143
:101EF000E162E16A0A9E11F5803F18BF01291DD1F8
:101F0000016841F48071016020464FF00111002208
:101F10003346009501F020FE50B120680068C005EE
:101F200044BF4FF400702064012003B0BDE8F0838B
:101F30002069B0F5804F07D1FE2015E00829DFD0D9
:101F4000216B1229DCD0DFE7062000EAD9102168D6
:101F5000F030086108F10601204632462B4601F0B8
:101F6000E1FE0028E0D1FF20216800EA09000861B5
:101F70002046414632462B4601F0D4FE0028D3D1FC
:101F800000200290206841690291806902900298C5
:101F900006E000BF204631462A4601F07FFD18BB0F
:101FA000208D68B3204631462A4601F027FFD8B974
:101FB000606A2168024612F8013B0B616262628D21
:101FC000013A6285228D531E23854F697F07E1D533
:101FD0001B04DFD0437802300B616062608D0138F2
:101FE0006085901E2085D5E7206C04289CD1206850
:101FF000016841F400710160012003B0BDE8F08385
:102000002068016841F400710160202084F83D00DF
:10201000002084F83E0084F83C0003B0BDE8F08363
:1020200010B586B0006845F20041C4F20001884254
:102030004FF00000CDE90400CDE9020002D006B067
:1020400010BD00BF41F21804C4F20204206802A9C6
:1020500040F008002060206800F00800019001981E
:102060004FF440700290122003900320059040F638
:102070000040C4F20100FFF72DFD0420C4F201006E
:10208000016841F0E06141F002010160606840F4E4
:1020900000106060606800F400100190019806B0C4
:1020A00010BD000040F2000040F2E031C2F200003A
:1020B000C2F2000100780A6810440860704700000E
:1020C00080B542F20000C4F20200016841F0100144
:1020D0000160032000F09EF80F2000F005F800F0EA
:1020E00027F8002080BD000070B540F20006C2F263
:1020F000000640F208013278C2F200014FF47A7310
:102100000968B3FBF2F20446B1FBF2F1084600F0B5
:1021100091FE0F2C4FF0010508D838B94FF0FF3071
:1021200021460022002500F049F87460284670BD61
:1021300082B041F21800C4F202000168022241F0AC
:1021400001010160016801F00101019101994168FB
:1021500041F080514160406800F08050009000984C
:102160000420C4F20100016862F31A61016002B048
:1021700070470000002848BF704700F01F0101228F
:1021800002FA01F11C2202EAD0004EF28022CEF2C5
:102190000002815070470000002848BF704700F0DF
:1021A0001F01012202FA01F11C2202EAD0004EF2C4
:1021B0000012CEF2000281507047000010B54EF6BA
:1021C0000C5CCEF2000CDCF80030C3F3022E8EF073
:1021D0000704042C28BF0424BEF103034FF0FF3E84
:1021E0000EFA04F438BF0023A14399400EFA03F31A
:1021F0009A43114300F00F0200F160430901043AD1
:1022000003F564436244002848BF02F10C031970CF
:1022100010BD00004EF60C51CEF200010A684FF6D8
:10222000FF031A4060F30A2242F0806040F0FD7024
:1022300008607047002804BF012070472DE9F04373
:1022400081B042F20008C4F202080446D8F8000047
:102250000D4600F0070081420CD9D8F8000020F0AC
:1022600007002843C8F80000D8F8000000F0070075
:10227000A8426CD1206841F204098107C4F2020926
:1022800017D5410705D5D9F8001041F4E061C9F828
:102290000010010705D5D9F8001041F46051C9F8C4
:1022A0000010D9F80010A26821F0F0011143C9F81C
:1022B0000010C00742D1D8F8000000F007008542A6
:1022C0000CD2D8F8000020F007002843C8F800001E
:1022D000D8F8000000F00700A84238D12068410774
:1022E00007D5D9F80010E26821F4E0611143C9F87C
:1022F0000010000708D5D9F80000216920F46050CB
:1023000040EAC100C9F80000D9F8002002F00C0032
:10231000082841F20020C0F27A004DD144F2A633E1
:10232000C2F38341C0F60003595CD20338D440F6AF
:102330000010C0F23D0048433EE000BF606859F81D
:10234000041C022808D0012826D1890306D40120C4
:1023500001B0BDE8F08300BF8901F8D5D9F80010BD
:1023600021F003010843C9F80000FFF7B3FC06465B
:1023700041F28837D9F80000616800F00C00B0EB3A
:10238000810F98D0FFF7A6FC801BB842F2D903203A
:1023900001B0BDE8F08300BF8907D8D5DEE700BFF4
:1023A000D9F8002044F2A433C2F34042C0F600033F
:1023B0009A5C4843B0FBF2F0D9F8001044F27E3248
:1023C000C1F30311C0F60002515C40F2080220FA8A
:1023D00001F140F20400C2F200000068C2F2000203
:1023E0001160FFF781FE002001B0BDE8F08300001E
:1023F00040F2080041F20401C2F20000C4F20201FE
:102400000068096844F28E32C1F30221C0F600026E
:10241000515CC8407047000040F2080041F20401DE
:10242000C2F20000C4F202010068096844F28E3270
:10243000C1F3C221C0F60002515CC84070470000E1
:10244000002804BF012070472DE9F04182B0044606
:10245000007841F20006C007C4F202060CD0706892
:1024600000F00C00042840F081803068800303D520
:102470006068002800F04681207880071BD57068CE
:1024800010F00C0F09D0706800F00C00082840F024
:1024900087807068C00300F183803068800703D5AF
:1024A0002069012840F02E813068616920F0F80031
:1024B00040EAC10030602078000713D4207840073C
:1024C0002CD4E569002D00F01881706800F00C0034
:1024D000082840F0A780012D40F00481012002B0BF
:1024E000BDE8F081A069002800F084800020C4F2DB
:1024F00042200121C0F88014FFF7ECFB054600BF25
:10250000706A800700F1B280FFF7E4FB401B0228ED
:10251000F6D9032002B0BDE8F08100BFF0695FEAA0
:10252000C00808D4F06940F08050F061F06900F014
:1025300080500090009847F20007C4F20007386806
:10254000C00549D4386840F480703860FFF7C2FB9A
:10255000054600BF3868C0053ED4FFF7BBFB401BF3
:102560006428F7D9032002B0BDE8F081706800F05C
:102570000C00082803D17068C0033FF576AF61688E
:102580003068002900F00C81B1F5A02F00F0008127
:10259000B1F5803F40F01A8140F480301CE100BF6B
:1025A0002069002840F20000C4F2422000F0888038
:1025B00001210160FFF78EFB054600BF30688007F0
:1025C0003FF572AFFFF786FB401B0228F6D90320C8
:1025D00002B0BDE8F08100BFE168306A002900F078
:1025E0009D80052900F09280012940F0AF8040F0E5
:1025F0000100B1E00020C4F242200021C0F88014A4
:10260000FFF768FB054600BF706A80077FF556AF8D
:10261000FFF760FB401B0228F6D9032002B0BDE89B
:10262000F08100BF0027C4F2422700203866FFF780
:1026300051FB022D05460DD13068800140F1DE804E
:10264000FFF748FB401B02284FF00300F4D902B00B
:10265000BDE8F081306880014FD5FFF73BFB401BA0
:1026600002284FF00300F5D9F1E700BF40F208005F
:10267000C2F20000006844F6D351C1F26201A0FB2F
:102680000101480A019000BF00BF0198411E0028C7
:1026900001913FF413AF00BF0198411E0028019142
:1026A0003FF40CAF00BF0198411E002801913FF498
:1026B00005AF00BF0198411E00280191E4D1FDE65D
:1026C00000210160FFF706FB054600BF3068800768
:1026D0007FF5F1AEFFF7FEFA401B02284FF0030032
:1026E000F4D9B4E77068216A00F480328A4209D1D3
:1026F000616A00F47010884204D1002002B0BDE885
:10270000F08100BF012002B0BDE8F08140F004007C
:102710003062306A40F001001EE000BF20F001008E
:102720003062306A20F004003062FFF7D3FA0546C9
:1027300041F28837306A800720D5FFF7CBFA401B7B
:10274000B8424FF00300F5D981E700BF20F0010047
:102750003062306A20F004003062FFF7BBFA0546B1
:1027600041F28837306A800708D4FFF7B3FA401B7C
:10277000B842F7D9032002B0BDE8F081B8F1000FEC
:102780003FF59FAEF06920F08050F06199E600BF00
:1027900040F480203060306840F480301CE000BF9E
:1027A00020F480303060306820F480203060FFF703
:1027B00091FA0546306880037FF55EAEFFF78AFA2E
:1027C000401B64284FF00300F4D940E720F4803028
:1027D0003060306820F480203060FFF77BFA0546D7
:1027E000306880033FF548AEFFF774FA401B642859
:1027F000F6D9032002B0BDE8F08100BF206AB0F531
:10280000803F05D17168A26821F4003111437160E5
:102810007168626A21F474111143084370600120E9
:102820003866FFF757FA0446306880013FF565AF18
:10283000FFF750FA001B02284FF00300F4D906E717
:1028400070B528B1416A29B100210161142106E067
:10285000012070BD4168B1F5827F02D01C210022A9
:1028600042500026866290F8511029B980F85060D5
:10287000054600F039F82846022180F8511090E80A
:102880002E0002F482720C6803F4044324F0400426
:102890000C601A4405F4006305691A4405F002034C
:1028A00045691A4405F001038569C4691A4405F4B1
:1028B00000731A4404F03803046A1A4404F08003D5
:1028C000846A1A4304F400531A430A60042202EA99
:1028D00015424A60CA6922F40062CA610121466554
:1028E00080F85110304670BD70B586B040F60004D7
:1028F000C4F20104006804F52051002688420596C0
:10290000CDE90366029601D006B070BD41F2180011
:10291000C4F20200016802AD41F480510160016817
:1029200001F4805101910199016841F004010160B5
:102930000068294600F0040001900198A020029050
:1029400002200390032005902046FFF7C3F84020A3
:10295000CDE902060120049020462946FFF7BAF887
:1029600006B070BD2DE9F04182B01D4616460F46F7
:102970000446FFF7AFF994F8511001290ED18046B3
:10298000002F4FF0010018BF002E03D102B0BDE8A8
:10299000F08100BF94F85000012803D1022002B05A
:1029A000BDE8F081012084F850000320002184F864
:1029B000510061652763A686E686A163A187E1874A
:1029C000A0682164B0F5004F2068616407D10168F8
:1029D00021F040010160016841F48041016001681B
:1029E000490603D4016841F0400101606168731E2B
:1029F000E268B1FA81F1B3FA83F349095B09B2F5F0
:102A0000006F41EA030139D131B137F8021BC160CF
:102A10002763E08E0138E086E08E002870D0681CC5
:102A20000BD11AE0216B31F8022BC2602163E08EDA
:102A30000138E086E08E002862D02068816889072E
:102A4000F0D4FFF747F9A0EB0800A842F2D338E032
:102A5000FFF740F9E08E002852D02068816889078E
:102A6000F6D5216B31F8022BC2602163E08E01386C
:102A7000E086E08E0028F0D142E000BF39B139781D
:102A80000173206B01302063E08E0138E086E08E18
:102A9000B0B3681C0BD123E0216B09780173206B64
:102AA00001302063E08E0138E086E08E40B320687C
:102AB00081688907F0D4FFF70DF9A0EB0800A84260
:102AC000F3D3012084F85100002084F85000032043
:102AD00002B0BDE8F08100BFFFF7FCF8E08E78B1EE
:102AE000206881688907F7D5216B09780173206B0D
:102AF00001302063E08E0138E086E08E0028EFD1BF
:102B00002046022101222B46CDF8008001F0AAFACE
:102B100040B92046802100222B46CDF8008001F0EC
:102B2000A1FA28B1606D40F020006065202060654A
:102B3000A06838B9002001902068C16801918068C0
:102B400001900198012084F85100002084F8500081
:102B5000606D002818BF012002B0BDE8F0810000C0
:102B60002DE9F04383B01E4615460F460446FFF795
:102B7000B1F894F851108146012909D1002F4FF086
:102B8000010018BF002D0FD103B0BDE8F08300BFD6
:102B90006068B0F5827F0DD104294FF00200F3D1B7
:102BA000A1680029EAD0EFE7002EEDD094F850009C
:102BB000012803D1022003B0BDE8F083012084F88E
:102BC000500094F85100002104281CBF052084F80F
:102BD00051006165A563E687A6872763E6862068BE
:102BE000A686216461640168490603D4016841F046
:102BF000400101606168731EE268B1FA81F1B3FAC5
:102C000083F3DDF8288049095B09B2F5006F41EADA
:102C1000030165D131B137F8021BC1602763E08E33
:102C20000138E086012518F1010032D102E000BF31
:102C3000FFF750F8E08E18B9E08F002800F0B88058
:102C40002068816889070CD5E18E51B1012D08D12A
:102C5000216B002531F8022BC2602163E18E01391E
:102C6000E1868168C907E3D0E18F0029E0D0C06820
:102C7000A16B012521F8020BA163E08F0138E087E9
:102C8000D6E700BFFFF726F8A0EB0900404580F02B
:102C9000AF80E08E18B9E08F002800F089802068AE
:102CA000816889070CD5E18E51B1012D08D1216BC6
:102CB000002531F8022BC2602163E18E0139E186E3
:102CC0008168C907DED0E18F0029DBD0C068A16B25
:102CD000012521F8020BA163E08F0138E087D1E7DD
:102CE00039B139780173206B01302063E08E0138EF
:102CF000E086012518F1010032D101E0FEF7EAFF7C
:102D0000E08E10B9E08F002852D0206881688907D2
:102D10000ED5E18E61B1012D0AD1216B0025097814
:102D20000173216B206801312163E18E0139E18655
:102D30008168C907E2D0E18F0029DFD0C068A16BAC
:102D400001250870A06B0130A063E08F0138E08797
:102D5000D4E700BFFEF7BEFFA0EB0900404547D215
:102D6000E08E08B9E08F18B32068816889070ED516
:102D7000E18E61B1012D0AD1216B00250978017323
:102D8000216B206801312163E18E0139E186816880
:102D9000C907DFD0E18F0029DCD0C068A16B012515
:102DA0000870A06B0130A063E08F0138E087D1E7A5
:102DB0002046022101224346CDF8009001F052F94D
:102DC00040B92046802100224346CDF8009001F012
:102DD00049F9B8B1606D40F0200060652020606561
:102DE000002084F85000012003B0BDE8F08300BF4C
:102DF000012084F85100002084F85000032003B023
:102E0000BDE8F083A06838B9002002902068C1684E
:102E10000291806802900298012084F851000020FD
:102E200084F85000606D002818BF012003B0BDE891
:102E3000F0830000411E0020B0EB116F1CBF012089
:102E400070474EF21002CEF2000251604EF623514E
:102E5000CEF20001F0230B700721906011607047E3
:102E6000704700007047000090F83C20012A4FF0A6
:102E7000020242D010B580F83D200268D2F804E08A
:102E8000D2F808C00C682EF07003234340F6FF34DC
:102E9000C4F20004A242536010DCB2F1804F1FD094
:102EA00040F20043C4F200039A4219D040F60003F6
:102EB000C4F200039A4213D017E000BF40F600436B
:102EC000C4F200039A420BD043F20043C4F2010360
:102ED0009A4205D042F60043C4F201039A4204D15B
:102EE00049682CF08003194391600121002280F889
:102EF0003D1080F83C20BDE81040104670470000AF
:102F00007047000070B504460068C5680669B107DF
:102F100016D515F0020113D06FF0020101610121F5
:102F200021778069800703D02046FFF7E9FF05E09D
:102F3000204600F08FF8204600F02AFA0020207783
:102F4000700719D515F0040016D020686FF0040141
:102F5000016102212177806910F4407F04D020466E
:102F6000FFF7CEFF06E000BF204600F073F82046D2
:102F700000F00EFA00202077300717D515F0080072
:102F800014D020686FF00801016104212177C06925
:102F9000800703D02046FFF7B3FF05E0204600F08E
:102FA00059F8204600F0F4F900202077F00619D5F2
:102FB00015F0100016D020686FF010010161082193
:102FC0002177C06910F4407F04D02046FFF798FFB6
:102FD00006E000BF204600F03DF8204600F0D8F99A
:102FE00000202077F00718BF15F0010002D130064D
:102FF00009D412E020686FF001010161204600F061
:1030000091FA300609D515F0800006D020686FF0DF
:10301000800101612046FFF723FF700609D515F0F6
:10302000400006D020686FF040010161204600F0AA
:1030300073FBB00658BF70BD15F0200008D02168A2
:103040006FF0200220460A61BDE87040FFF70ABF1A
:1030500070BD00007047000090F83C30012B04BFA9
:10306000022070474FEAB202032A00F21D812DE9C7
:10307000F041DFE802F003C7479100BF036843F265
:1030800000461D6A1A6A25F0020522F001021A6242
:103090001A465C6852F818CF8F68D1F800E0C4F285
:1030A0000106B34245EA070505D042F60047C4F2DF
:1030B0000107BB4205D1CF6825F00C0527F00407B6
:1030C0003D43B34205D042F60046C4F20106B34286
:1030D00005D1D1E9056724F4407434433C432CF016
:1030E000730747EA0E075C609F614F6809695F6379
:1030F0001D629F6947F008079F619F6927F00407D9
:103100009F61C6E0036843F200461D6A1A6A25F40F
:10311000007522F480721A621A46D3F804C052F87D
:103120001CEF8F68D1F80080C4F20106B34245EA73
:10313000072505D042F60047C4F20107BB4208D17B
:10314000CF6840F2FF443F0225F4406527EA0404BB
:103150002543B34205D042F60044C4F20104A34221
:1031600006D1D1E905462CF44057264347EA061C10
:103170002EF0730747EA0807C3F804C0DF614F6801
:103180000969DF631D62DF6947F00807DF61DF69F6
:1031900027F00407DF617CE0036843F20047D3F8BF
:1031A00020C01A6AC4F2010722F480521A621A4639
:1031B0005C6852F81C5FD1F800E08E68BB4205D015
:1031C00042F60047C4F20107BB4204D14F6924F420
:1031D000804444EA87142CF4005747EA063725F464
:1031E000E64646EA0E265C60DE614E6809691E64AA
:1031F0001F62DF6947F40067DF61DF6927F48067DA
:10320000DF6145E0036843F200481D6A1A6A25F051
:10321000200522F010021A621A465C6852F818CF94
:103220008F68D1F800E0C4F20108434545EA07156C
:1032300005D042F60047C4F20107BB4207D1CF6870
:103240006FF0400625F0C00506EA071635434345F2
:1032500005D042F60046C4F20106B34206D1D1E9D8
:10326000056724F440643E4344EA86042CF4E647B0
:1032700047EA0E275C609F614F6809699F631D6282
:103280009F6947F400679F619F6927F480679F618A
:1032900009021368194311600021BDE8F0410022C2
:1032A00080F83C20084670470121002280F83C202D
:1032B00008467047002804BF0120704710B5044637
:1032C00090F83D0028B9002084F83C00204600F02A
:1032D0001FF8022084F83D002068211D00F0CEFF79
:1032E000012084F8460084F83E0084F83F0084F80A
:1032F000400084F8410084F8420084F8430084F8D8
:10330000440084F8450084F83D00002010BD000012
:1033100083B0006840F60001C4F20001884227D063
:1033200040F20041C4F20001884211D0B0F1804F58
:103330002BD141F21C00C4F20200016841F00101EE
:103340000160006800F001000290029803B070472D
:1033500041F21C00C4F20200016841F00201016068
:10336000006800F002000190019803B0704700BFB0
:1033700041F21C00C4F20200016841F00401016046
:10338000006800F004000090009803B0704700004F
:1033900070470000C1B1042908D0082914BF412298
:1033A0004022825C012A05D016E000BF3F22825CE9
:1033B000012A11D10222082910D0042914BF80F853
:1033C000412080F83F200BE090F83E20012A03D1F5
:1033D000022280F83E2003E00120704780F8402060
:1033E000006801F01F010122036A02FA01F123EAD9
:1033F00001020262026A114340F6FF32C4F2000287
:10340000904201620EDCB0F1804F25D040F20041C5
:10341000C4F2000188421FD040F60001C4F200014E
:1034200018E000BF40F60041C4F20001884213D00A
:1034300043F20042C4F2010242F600419042C4F25B
:10344000010101D088420ED1436C904243F4004305
:10345000436401D0884206D1816801F00701062942
:1034600004BF00207047016841F0010101600020A5
:103470007047000010B5026801F01F0E4FF0010CFC
:10348000146A0CFA0EF324EA0303136243F20044B5
:10349000136AC4F20104A242136205D042F600434B
:1034A000C4F201039A4209D1136A41F21114234272
:1034B00004D1136A40F2444423420FD0136A41F20C
:1034C0001114234213D1136A40F2444423420ED113
:1034D000136823F00103136009E000BF536C23F469
:1034E00000435364136A41F211142342EBD00829BC
:1034F00012D004290AD000294FF0010114BF80F82E
:10350000411080F83E10002010BD00BF012180F85E
:103510003F10002010BD00BF012180F840100020A6
:1035200010BD00000168B1F1804F18BF7047F0B5C1
:1035300081B040F27005C2F200052978002900F040
:10354000B980E9680131E960697821B9E9682A69D7
:10355000914280F0878044F2402EEA68C0F20F0E5C
:10356000EB88EF8844F6206102FB01E67B436F782D
:103570009E4238BF33460FB109E000BF2F69D643E2
:1035800007EB060C0CFB01E1994238BF0B464FF0EC
:10359000804400BF21469C420FD9B3EB910F0BD260
:1035A000B3EB111F3AD2B3EB911F4FEA1124F1D3C1
:1035B0008909002421B935E08908002491B300BFAE
:1035C000671801EB5406BB4238BF66088C0823D04D
:1035D000DF1B38BF1F46331904EB56049F4238BF28
:1035E00074080E091ED0FB1A38BF3B46A71906EB1C
:1035F0005406BB4238BF66088C090DD0DF1B38BFAC
:103600001F463319FB1A04EB560438BF3B4638BF3C
:103610007408090AD4D105E0344603E009090024FE
:103620000029CDD14FF6F8712140B1F57A7F38BF2E
:103630004FF47A74E988A3B28B4288BFEC8869782A
:1036400031B1EA88A3B20121934208BF022119E0F7
:1036500029698A4210D2E988A3B28B420ED1022195
:1036600010E000BF04210446FFF704FF2068C16892
:1036700021F00101C16019E0032103E0012194451B
:1036800038BF032142F21172A21A92B24DF6D7430B
:103690009A42297112D204210446FFF7EBFE2068FA
:1036A000C16821F00101C1600920E8700020287084
:1036B0000120A87001B0BDE8F0407047A0B240F210
:1036C0006812BEFBF0F1C2F2000213684F1EDF6207
:1036D000D7604A089A632C8169626989884288BFE9
:1036E0006C81286A013028622879012802D105F10D
:1036F00014000AE02879022802D105F1180004E03C
:1037000028790328D6D105F11C0001680131016038
:1037100001B0BDE8F040704770470000002804BFCA
:103720000120704710B5044690F8410028B90020E8
:1037300084F84000204600F063F8242084F841001B
:103740002068D4E90212C36823F40053C3600369FC
:1037500023F440531A430261D4E904231143C2689D
:10376000194341F20C639A431143C1604169A26954
:1037700021F44071114343F60002C4F20102904269
:10378000416103D0FEF734FE02E000BFFEF744FEC5
:10379000D4E90023192148439900B0FBF1F048F225
:1037A0001F5CC5F2EB1CA0FB0C314FF69C73490962
:1037B000C0F6FF7301FB0300322303EB0010A0FBF4
:1037C0000C03F02000EA531000EB0110C3F3431187
:1037D000084490601069202120F4904010615069E5
:1037E00020F02A005061D06840F40050D0600020E2
:1037F000606484F8411084F84210606310BD0000DA
:1038000070B586B0006844F60001C4F200010026DD
:1038100088420596CDE90366029635D044F2004110
:10382000C4F2000188426BD141F21800C4F20200D8
:10383000416840F6000441F4003141604168C4F23F
:10384000010401F4003101910199016802AD41F0D8
:10385000040101600068294600F00400019001980D
:103860000420029002200390032005902046FEF7DA
:1038700031F9082002900020CDE9030020462946B6
:10388000FEF728F906B070BD41F21800C4F202003C
:10389000416802AD41F480214160416801F480211A
:1038A00001910199016841F0100101600068294609
:1038B00000F01000019001984FF480600290022007
:1038C00003900320059040F60000C4F2010000F5CB
:1038D00000642046FEF7FEF84FF40060CDE90206D2
:1038E000204629460496FEF7F5F80420C4F20100AC
:1038F000016841F0E06141F0100121F02001016018
:1039000006B070BD2DE9F04381B0044690F8410047
:10391000202809D100294FF0010018BF002A07D143
:1039200001B0BDE8F08300BF022001B0BDE8F08324
:103930000020606421201D460E4684F84100174691
:10394000FEF7C8F9A784E784A1688146B1F5805FD6
:1039500002D1206900285DD037460020E28C216822
:10396000002A5DD06A1C24D0002D4AD0804600BFBA
:103970000868000608D4FEF7ADF9A0EB0900A842DC
:103980007AD82168C868F3E717B117F8010B04E08B
:1039900038F8020B00276FF35F204860E08C013895
:1039A000E084E08C0028E3D13AE000BF0A68120608
:1039B00009D40A68120606D40A6812065CBF0A68AF
:1039C0005FEA0262F2D51FB117F8012B05E000BFD4
:1039D00030F8022B00276FF35F224A60E28C013A35
:1039E000E284E28C002AE4D11AE000BF30F8022B16
:1039F00000276FF35F224A60E28C013AE284E28C96
:103A000072B10A68120635D5002FEFD017F8012BD6
:103A1000F1E700BF00273046E28C2168002AA1D1DF
:103A2000086840061ED42DB3681C14D108684006EF
:103A30002AD40868400627D40868400624D40868B9
:103A400040064FF00000F1D50DE000BF2068C168CE
:103A50000068400618D4FEF73DF9A0EB0900A84223
:103A6000F4D909E00020202184F8411001B0BDE81C
:103A7000F08300BFFEF72EF90320202184F84110C7
:103A800001B0BDE8F08300BF0020202184F8411080
:103A900001B0BDE8F0830000FEE7000070B50368E8
:103AA000044653F8140F400711D40E46481C29D081
:103AB00086BB00BF1868400527D4FEF70BF92368C2
:103AC00053F8140F400737D518684007F2D5002087
:103AD00070BD00BF18684007F9D41868400514D4B9
:103AE00018684007F3D4186840050ED418684007DA
:103AF000EDD41868400508D4186840074FF000005E
:103B000048BF70BD18684005E4D56FF48060186048
:103B1000042012E0154603E053F8140F4007D6D4F2
:103B200018684005F1D4FEF7D5F8401B2368B04271
:103B3000F2D958694007EFD42020002120222163C8
:103B400084F83D2084F83E10226C1043206401204C
:103B500084F83C1070BD00002DE9F0410546006876
:103B60001E46144601F47F0201338FB242D0DDF8C5
:103B70001880B2F5803F40F0878040693840C01B14
:103B8000B0FA80F04009844240F0C8804EB924E089
:103B900040693840C01BB0FA80F04009844240F0D0
:103BA000BD80FEF797F8A0EB08012868B142EFD975
:103BB00041693940C91BB1FA81F149098C42E7D109
:103BC0009BE000BF40693840C01BB0FA80F040095C
:103BD00084424FF0000040F0A280FEF77BF8286896
:103BE00041693940C91BB1FA81F149098C42E9D1D7
:103BF00083E000BFB2F5803F24D100BF4169394066
:103C0000C91BB1FA81F149098C4240F087804169B2
:103C10003940C91BB1FA81F149098C4240F07E80DC
:103C200041693940C91BB1FA81F149098C4275D10A
:103C300041693940C91BB1FA81F149098C42DDD093
:103C40006CE000BF81693940C91BB1FA81F14909B3
:103C50008C4263D181693940C91BB1FA81F14909AC
:103C60008C425BD181693940C91BB1FA81F14909A4
:103C70008C4253D181693940C91BB1FA81F149099C
:103C80008C42DFD04AE000BF80693840C01BB0FAE8
:103C900080F04009844241D146B923E08069384030
:103CA000C01BB0FA80F04009844237D1FEF712F809
:103CB000A0EB08012868B142F0D981693940C91BDD
:103CC000B1FA81F149098C42E8D116E080693840A7
:103CD000C01BB0FA80F0400984424FF0000018BFCA
:103CE000BDE8F081FDF7F6FF286881693940C91BFE
:103CF000B1FA81F149098C42E8D1002020212863E2
:103D000085F83D1085F83E00296C41F020012964BA
:103D100085F83C000120BDE8F08100BF0020BDE82F
:103D2000F0810000F0B581B0044600681D4643698B
:103D30008FB203EA0701B94202D1002001B0F0BD01
:103D40004169164601323CD0490512D47EB300BF0A
:103D5000FDF7C0FF411B2068B14203D941693940DA
:103D6000B9422BD141693940B942E6D04169490590
:103D7000EED5016841F4007101606FF4806141612A
:103D8000042000212022216384F83D2084F83E1085
:103D9000226C1043206484F83C10012001B0F0BD77
:103DA00041693940B942C8D041694905E1D4FDF7BC
:103DB00091FF206841693940B942F1D02020E0E705
:103DC00041694905D5D441693940B942B5D0416905
:103DD0004905CED441693940B942AED0416949055F
:103DE000C7D441693940B942A7D041694905C0D417
:103DF00041693940B942E3D19FE7000070B50368DB
:103E0000044653F8140F000611D40E46481C29D05E
:103E100086BB00BF1868400527D4FDF75BFF236809
:103E200053F8140F000637D518680006F2D50020A5
:103E300070BD00BF18680006F9D41868400514D496
:103E400018680006F3D4186840050ED418680006F8
:103E5000EDD41868400508D4186800064FF000003B
:103E600048BF70BD18684005E4D56FF480601860E5
:103E7000042012E0154603E053F8140F0006D6D4D0
:103E800018684005F1D4FDF725FF401B2368B042B8
:103E9000F2D958690006EFD42020002120222163A6
:103EA00084F83D2084F83E10226C104320640120E9
:103EB00084F83C1070BD000010B540F2700EC2F2E4
:103EC000000EBEF80600BEF8061044F2402C01FBBE
:103ED00000F3C0F20F0C9EF80100634528BF634653
:103EE00060B9DEF810004FF22041C0F20E0144F636
:103EF000206200FB0210984238BF03464FF080401A
:103F0000014698420FD9B3EB910F0BD2B3EB111FBF
:103F10003AD2B3EB911F4FEA1120F1D38909002067
:103F200021B935E08908002091B300BF441801EBA6
:103F30005002A34238BF4208880823D01C1B38BF58
:103F40001C46131800EB52009C4238BF50080A0967
:103F50001ED0E31A38BF2346841802EB5002A34256
:103F600038BF420888090DD01C1B38BF1C461318E7
:103F7000E31A00EB520038BF234638BF5008090A45
:103F8000D4D105E0104603E0090900200029CDD175
:103F90004FF6F8710140B1F57A7F38BF4FF47A706F
:103FA000BEF8061082B28A4288BFBEF806009EF8AC
:103FB000011019B9DEF8101000294BD0BEF8062008
:103FC00083B20121934208BF022142F21172821A88
:103FD00092B24DF6D7439A428EF804103CBF0020AF
:103FE00010BD81B2BCFBF1F240F2681CC2F2000CC1
:103FF000DCF80040531EE362CCF80C305308A36396
:10400000AEF80800CEF82420BEF80A20914288BFFE
:10401000AEF80A00DEF820000130CEF820009EF84D
:104020000400012802D10EF114000DE09EF80400F6
:10403000022803D10EF1180006E000BF9EF804002C
:10404000032804D10EF11C00016801310160012038
:1040500010BD00BF0321B8E7FEE70000FEE7000047
:10406000704700002DE9F04381B0089C9846154642
:104070000E468146FDF72EFE201A00EB0804FDF7E0
:1040800029FE40F20801C2F200010968C1F3CB31F8
:1040900061430091D9F800108A683240921BB2FA4D
:1040A00082F2520995423DD0074618F1010031D005
:1040B000FDF710FEC01BA04238D2009800990028DE
:1040C000A1F101010091D9F80010896808BF0446E8
:1040D00001EA0600801BB0FA80F040098542E7D172
:1040E00020E000BF88683040801BB0FA80F04009B3
:1040F000854217D088683040801BB0FA80F04009B4
:1041000085420FD088683040801BB0FA80F04009AB
:10411000854207D088683040801BB0FA80F04009A3
:104120008542DFD1002001B0BDE8F083D9E900016C
:104130004268B1F5827F22F0E00242600BD1D9F8EB
:104140000810B1F5004F02D0B1F5806F03D10168BE
:1041500021F040010160D9F82810B1F5005F07D1C6
:10416000016821F400510160016841F400510160CF
:10417000012089F85100002089F85000032001B087
:10418000BDE8F083704700000B468978024602398B
:10419000032919D8DFE801F00A020216D87898B985
:1041A00002F1680011461A46FCF786B8D878022852
:1041B00014DCB8B1022807D1D2F80C1102F12800A2
:1041C000FCF7C4BED87898B1002082F8210051696C
:1041D0000131516182F82200704700BF03280BD0E3
:1041E000F028F1D1D2F80C1102F12800FCF798BDAB
:1041F00010461946FCF770B9D2F80C1102F12800EC
:10420000FCF74ABEFDF74EBFB0B590B000240120C8
:10421000CDE90B44CDE9094406900A904FF4E01033
:104220004FF4803102250F9006A8CDE90714CDE99F
:104230000D51FEF705F928B1EFF3108072B600BFFB
:10424000FEE700BF0F20CDE901054FF48060CDE906
:10425000040401A802210394FDF7ECFF20B1EFF361
:10426000108072B6FEE700BF10B0B0BD704700000E
:1042700040F26810C2F20000FEF744BE10B540F6EE
:10428000FF320368C4F2000240F6004E43F2004CD5
:104290009042C4F2000EC4F2010C21DCB0F1804F58
:1042A00028D040F20044C4F20004A04222D040F6DC
:1042B0000004C4F20004A0421CD0904220DCB0F103
:1042C000804F27D040F20042C4F20002904221D039
:1042D00040F60002C4F2000290421BD01EE000BF74
:1042E000704507D0604505D042F60044C4F2010491
:1042F000A042E2D14C6823F0700323439042DEDDFC
:10430000704507D0604505D042F60042C4F2010274
:10431000904203D1CA6823F4407313434C6923F0DD
:104320008002D1F800E08B68224360450260C362DE
:10433000C0F828E005D042F60042C4F201029042E3
:1043400001D109690163012141610169C90708BF00
:1043500010BD016921F00101016110BDFEE70000FF
:1043600080B5FDF7ADFEFFF74FFF44F2B830C0F661
:104370000000FCF7AFFEFCF7DBFE002080BD000074
:104380000000000000000102030406070809000005
:10439000000001020304AAAA0100000000000000BE
:1043A00000005555010202030405060708090A0B1F
:1043B0000C0D0E0F10100000700000207200002085
:1043C000710000207C00002080000020760000208A
:1043D000780000207A000020740000208400002073
:1043E000880000208C000020900000209400002015
:1043F00073000020B93E00080010014004000000D6
:1044000000100140080000002844000800000020BF
:10441000100000009401000838440008100000203B
:10442000D8090000B40100080100000010000000DD
:0844300000127A0000000000F8
:0400000508000131BD
:00000001FF
