:020000040800F2
:1000000028090020F901000805260008DD1F000866
:1000100001260008B5020008F528000800000000CD
:100020000000000000000000000000002D27000874
:10003000B902000800000000092600083127000866
:10004000130200081302000813020008130200083C
:10005000130200081302000813020008130200082C
:10006000130200081302000813020008130200081C
:10007000130200081302000813020008130200080C
:1000800013020008130200081302000813020008FC
:10009000130200081302000813020008ED02000812
:1000A00013020008130200081302000813020008DC
:1000B0003927000813020008130200081302000881
:1000C00013020008130200081302000813020008BC
:1000D00013020008130200081302000813020008AC
:1000E000BD020008130200081302000813020008F2
:1000F000130200081302000813020008130200088C
:10010000130200081302000813020008130200087B
:10011000130200081302000813020008130200086B
:10012000130200081302000813020008130200085B
:1001300000F002F800F050F814A696E8000CB24463
:10014000B344DA4501D100F047F8BAE80F000FA632
:1001500096E83000A5EB040504EB0607AAEB0704BC
:10016000A7F101074FEA15154FEA3414A4F1010471
:10017000AC4201D300F030F813F0010F18BFFB1AA6
:1001800043F0010300F001F8DBE71847903100006D
:10019000B0310000103A24BF78C878C1FAD85207AD
:1001A00024BF30C830C144BF04680C6070470000F1
:1001B000704700000023002400250026103A28BFC5
:1001C00078C1FBD8520728BF30C148BF0B607047C9
:1001D0001FB51FBD10B510BD00F031F81146FFF777
:1001E000F7FF02F089FB00F04FF803B4FFF7F2FFCE
:1001F00003BC00F057F80000094880470948004751
:10020000FEE7FEE7FEE7FEE7FEE7FEE7FEE7FEE7C6
:10021000FEE7FEE704480549054A064B7047000023
:100220003527000831010008280300202809002094
:100230002805002028050020704770477047754644
:1002400000F02CF8AE4605006946534620F0070042
:10025000854618B020B5FFF7DDFFBDE820404FF020
:1002600000064FF000074FF000084FF0000BAC46BF
:10027000ACE8C009ACE8C009ACE8C009ACE8C0090A
:1002800021F007018D46704710B50446AFF300809A
:100290002046BDE81040FFF7A8BF000000487047A7
:1002A0001000002001491820ABBEFEE72600020026
:1002B00070470000FEE700007047000080B54FF473
:1002C000806000F041F84FF4006000F03DF84FF41A
:1002D000805000F039F84FF4804000F035F84FF4CA
:1002E0000040BDE8804000F02FB8000080B54020FD
:1002F00000F02AF8802000F027F84FF4807000F01A
:1003000023F84FF40070BDE8804000F01DB80000F5
:10031000EFF3108072B600BFFEE70000B0B50446F0
:1003200000F01EF9054640F20000C2F2000000781D
:10033000611C18BF044400BF00F012F9401BA0422A
:10034000FAD3B0BD7047000040F21441C4F201017D
:100350000A68024214BF08607047FFF7F3BF00004D
:100360002DE9F04F82B00E68002E00F0E980A0F178
:10037000804241F6004540F20043A2F58432C4F2C7
:1003800001050624C4F201034FEAB227A84208BFC0
:1003900005244FF0000E4FF001080F254FF0000A22
:1003A0004FF0000B052F38BF4FEAB224009408E04D
:1003B0000E680AF1010A36FA0AF20EF1040E00F094
:1003C000BF8008FA0AFC16EA0C09F1D04E684FF615
:1003D000FF72C1F21002964212DC122E56D8DFE8EC
:1003E00006F0350B4D4955555555555555555555EF
:1003F00055555545510000BFD1F80CB046E000BF3F
:100400004FF6FF72C1F2210296420FDC0022C1F2C8
:10041000110296421AD00022C1F21202964215D061
:100420000022C1F22102964210D02FE00022C1F238
:10043000220296420AD00022C1F23102964205D031
:100440000022C1F23202964220D100BF8A684AB12E
:10045000012A14BFC0F814C0C0F810C04FF0080B38
:1004600014E000BF4FF0040B10E000BFCA6802F1B7
:10047000040B0BE04FF0000B08E000BFCA6802F16C
:10048000080B03E0CA6802F10C0B00BF0246744679
:10049000B9F5807F24BF0432203C166805FA04F7C2
:1004A00026EA07070BFA04F637431760CA79D20623
:1004B0007FF57EAF41F21807C4F202073A684FF6A3
:1004C000084542F001023A603A68CFF6FF7502F043
:1004D00001020192019A2AF003021A440F2457598B
:1004E0000EF00C06B440A743009C04FA06F637430E
:1004F00057514E6840F20C44F2029A6854BF22EA07
:10050000090242EA0902C4F201049A602268B702B1
:1005100054BF22EA090242EA090222605A68B7037C
:1005200054BF22EA090242EA09025A600F251A68FA
:10053000F70354BF22EA090242EA09021A6037E7C8
:1005400002B0BDE8F08F00008068084018BF0120AD
:1005500070470000002A08BF0904016170470000CD
:1005600040F22430C2F2000000687047002804BF47
:1005700001207047F0B581B0044690F83D0028B9DD
:10058000002084F83C00204600F0A2F8242084F8E3
:100590003D002068016821F001010160016841F41B
:1005A00000410160016821F40041016000F078FA27
:1005B000636848F2A16CC0F2010C40F60011C0F271
:1005C0003D0163453CBF48F28041C0F21E018842B4
:1005D00002D2012001B0F0BD4DF68361C4F21B319F
:1005E000A0FB01122168970CD1F804E04FF4967635
:1005F0002EF03F0545EA92454D60774348F63816A0
:100600000D6AC0F24106A7FB067625F03F07634559
:1006100038BF960C721C3A430A62CA6948F2A06657
:100620004CF6FF77C0F20106B34222EA07020BD86C
:1006300001385B00B0FBF3F001306FF31F3004288A
:1006400098BF04201BE000BFA768013857B11927E5
:100650007B43B0FBF3F001306FF31F3070B100F556
:10066000804007E003EB4303B0FBF3F001306FF38E
:100670001F3018B100F5004001E000BF0120104319
:10068000C8610868D4E9072320F0C000104318436C
:100690000860886848F2FF3204F10C0790438CCF61
:1006A00018431043A6698860C86820F0FF003843EB
:1006B0003043C860086840F0010008600020202135
:1006C000206484F83D10206384F83E0001B0F0BD42
:1006D00010B586B0006845F20041C4F200018842BE
:1006E0004FF00000CDE90400CDE9020002D006B0D1
:1006F00010BD00BF41F21804C4F20204206802A930
:1007000040F008002060206800F008000190019887
:100710004FF440700290122003900320059040F6A1
:100720000040C4F20100FFF71BFE0420C4F20100E8
:10073000016841F0E06141F002010160606840F44D
:1007400000106060606800F400100190019806B02D
:1007500010BD000040F2000040F22431C2F200005F
:10076000C2F2000100780A68104408607047000077
:1007700080B542F20000C4F20200016841F01001AD
:100780000160032000F09EF80F2000F005F800F053
:1007900027F8002080BD000070B540F20006C2F2CC
:1007A000000640F208013278C2F200014FF47A7379
:1007B0000968B3FBF2F20446B1FBF2F1084600F01F
:1007C00091FE0F2C4FF0010508D838B94FF0FF30DB
:1007D00021460022002500F049F87460284670BDCB
:1007E00082B041F21800C4F202000168022241F016
:1007F00001010160016801F0010101910199416865
:1008000041F080514160406800F0805000900098B5
:100810000420C4F20100016862F31A61016002B0B1
:1008200070470000002848BF704700F01F010122F8
:1008300002FA01F11C2202EAD0004EF28022CEF22E
:100840000002815070470000002848BF704700F048
:100850001F01012202FA01F11C2202EAD0004EF22D
:100860000012CEF2000281507047000010B54EF623
:100870000C5CCEF2000CDCF80030C3F3022E8EF0DC
:100880000704042C28BF0424BEF103034FF0FF3EED
:100890000EFA04F438BF0023A14399400EFA03F383
:1008A0009A43114300F00F0200F160430901043A3A
:1008B00003F564436244002848BF02F10C03197039
:1008C00010BD00004EF60C51CEF200010A684FF642
:1008D000FF031A4060F30A2242F0806040F0FD708E
:1008E00008607047002804BF012070472DE9F043DD
:1008F00081B042F20008C4F202080446D8F80000B1
:100900000D4600F0070081420CD9D8F8000020F015
:1009100007002843C8F80000D8F8000000F00700DE
:10092000A8426CD1206841F204098107C4F202098F
:1009300017D5410705D5D9F8001041F4E061C9F891
:100940000010010705D5D9F8001041F46051C9F82D
:100950000010D9F80010A26821F0F0011143C9F885
:100960000010C00742D1D8F8000000F0070085420F
:100970000CD2D8F8000020F007002843C8F8000087
:10098000D8F8000000F00700A84238D120684107DD
:1009900007D5D9F80010E26821F4E0611143C9F8E5
:1009A0000010000708D5D9F80000216920F4605034
:1009B00040EAC100C9F80000D9F8002002F00C009C
:1009C000082841F20020C0F27A004DD143F2CA2338
:1009D000C2F38341C0F60003595CD20338D440F619
:1009E0000010C0F23D0048433EE000BF606859F887
:1009F000041C022808D0012826D1890306D401202E
:100A000001B0BDE8F08300BF8901F8D5D9F8001026
:100A100021F003010843C9F80000FFF7A1FD0646D5
:100A200041F28837D9F80000616800F00C00B0EBA3
:100A3000810F98D0FFF794FD801BB842F2D90320B4
:100A400001B0BDE8F08300BF8907D8D5DEE700BF5D
:100A5000D9F8002043F2BA23C2F34042C0F60003A3
:100A60009A5C4843B0FBF2F0D9F8001043F2A2229E
:100A7000C1F30311C0F60002515C40F2080220FAF3
:100A800001F140F20400C2F200000068C2F200026C
:100A90001160FFF781FE002001B0BDE8F083000087
:100AA00040F2080041F20401C2F20000C4F2020167
:100AB0000068096843F2B222C1F30221C0F60002C5
:100AC000515CC8407047000040F2080041F2040148
:100AD000C2F20000C4F202010068096843F2B222C7
:100AE000C1F3C221C0F60002515CC840704700004B
:100AF000002804BF012070472DE9F04182B0044670
:100B0000007841F20006C007C4F202060CD07068FB
:100B100000F00C00042840F081803068800303D589
:100B20006068002800F04681207880071BD5706837
:100B300010F00C0F09D0706800F00C00082840F08D
:100B400087807068C00300F183803068800703D518
:100B50002069012840F02E813068616920F0F8009A
:100B600040EAC10030602078000713D420784007A5
:100B70002CD4E569002D00F01881706800F00C009D
:100B8000082840F0A780012D40F00481012002B028
:100B9000BDE8F081A069002800F084800020C4F244
:100BA00042200121C0F88014FFF7DAFC054600BF9F
:100BB000706A800700F1B280FFF7D2FC401B022868
:100BC000F6D9032002B0BDE8F08100BFF0695FEA0A
:100BD000C00808D4F06940F08050F061F06900F07E
:100BE00080500090009847F20007C4F20007386870
:100BF000C00549D4386840F480703860FFF7B0FC15
:100C0000054600BF3868C0053ED4FFF7A9FC401B6D
:100C10006428F7D9032002B0BDE8F081706800F0C5
:100C20000C00082803D17068C0033FF576AF6168F7
:100C30003068002900F00C81B1F5A02F00F0008190
:100C4000B1F5803F40F01A8140F480301CE100BFD4
:100C50002069002840F20000C4F2422000F08880A1
:100C600001210160FFF77CFC054600BF306880076A
:100C70003FF572AFFFF774FC401B0228F6D9032042
:100C800002B0BDE8F08100BFE168306A002900F0E1
:100C90009D80052900F09280012940F0AF8040F04E
:100CA0000100B1E00020C4F242200021C0F880140D
:100CB000FFF756FC054600BF706A80077FF556AF08
:100CC000FFF74EFC401B0228F6D9032002B0BDE816
:100CD000F08100BF0027C4F2422700203866FFF7EA
:100CE0003FFC022D05460DD13068800140F1DE80C9
:100CF000FFF736FC401B02284FF00300F4D902B086
:100D0000BDE8F081306880014FD5FFF729FC401B1A
:100D100002284FF00300F5D9F1E700BF40F20800C8
:100D2000C2F20000006844F6D351C1F26201A0FB98
:100D30000101480A019000BF00BF0198411E002830
:100D400001913FF413AF00BF0198411E00280191AB
:100D50003FF40CAF00BF0198411E002801913FF401
:100D600005AF00BF0198411E00280191E4D1FDE6C6
:100D700000210160FFF7F4FB054600BF30688007E3
:100D80007FF5F1AEFFF7ECFB401B02284FF00300AC
:100D9000F4D9B4E77068216A00F480328A4209D13C
:100DA000616A00F47010884204D1002002B0BDE8EE
:100DB000F08100BF012002B0BDE8F08140F00400E6
:100DC0003062306A40F001001EE000BF20F00100F8
:100DD0003062306A20F004003062FFF7C1FB054644
:100DE00041F28837306A800720D5FFF7B9FB401BF6
:100DF000B8424FF00300F5D981E700BF20F00100B1
:100E00003062306A20F004003062FFF7A9FB05462B
:100E100041F28837306A800708D4FFF7A1FB401BF6
:100E2000B842F7D9032002B0BDE8F081B8F1000F55
:100E30003FF59FAEF06920F08050F06199E600BF69
:100E400040F480203060306840F480301CE000BF07
:100E500020F480303060306820F480203060FFF76C
:100E60007FFB0546306880037FF55EAEFFF778FBB9
:100E7000401B64284FF00300F4D940E720F4803091
:100E80003060306820F480203060FFF769FB054651
:100E9000306880033FF548AEFFF762FB401B6428D3
:100EA000F6D9032002B0BDE8F08100BF206AB0F59A
:100EB000803F05D17168A26821F40031114371604F
:100EC0007168626A21F47411114308437060012053
:100ED0003866FFF745FB0446306880013FF565AF93
:100EE000FFF73EFB001B02284FF00300F4D906E792
:100EF00070B528B1416A29B100210161142106E0D1
:100F0000012070BD4168B1F5827F02D01C21002212
:100F100042500026866290F8511029B980F850603E
:100F2000054600F039F82846022180F8511090E873
:100F30002E0002F482720C6803F4044324F040048F
:100F40000C601A4405F4006305691A4405F00203B5
:100F500045691A4405F001038569C4691A4405F41A
:100F600000731A4404F03803046A1A4404F080033E
:100F7000846A1A4304F400531A430A60042202EA02
:100F800015424A60CA6922F40062CA6101214665BD
:100F900080F85110304670BD70B586B040F6000440
:100FA000C4F20104006804F5205100268842059629
:100FB000CDE90366029601D006B070BD41F218007B
:100FC000C4F20200016802AD41F480510160016881
:100FD00001F4805101910199016841F0040101601F
:100FE0000068294600F0040001900198A0200290BA
:100FF00002200390032005902046FFF7B1F940201E
:10100000CDE902060120049020462946FFF7A8F901
:1010100006B070BD2DE9F04182B01D4616460F4660
:101020000446FFF79DFA94F8511001290ED180462D
:10103000002F4FF0010018BF002E03D102B0BDE811
:10104000F08100BF94F85000012803D1022002B0C3
:10105000BDE8F081012084F850000320002184F8CD
:10106000510061652763A686E686A163A187E187B3
:10107000A0682164B0F5004F2068616407D1016861
:1010800021F040010160016841F480410160016884
:10109000490603D4016841F0400101606168731E94
:1010A000E268B1FA81F1B3FA83F349095B09B2F559
:1010B000006F41EA030139D131B137F8021BC16039
:1010C0002763E08E0138E086E08E002870D0681C2F
:1010D0000BD11AE0216B31F8022BC2602163E08E44
:1010E0000138E086E08E002862D020688168890798
:1010F000F0D4FFF735FAA0EB0800A842F2D338E0AD
:10110000FFF72EFAE08E002852D020688168890708
:10111000F6D5216B31F8022BC2602163E08E0138D5
:10112000E086E08E0028F0D142E000BF39B1397886
:101130000173206B01302063E08E0138E086E08E81
:10114000B0B3681C0BD123E0216B09780173206BCD
:1011500001302063E08E0138E086E08E40B32068E5
:1011600081688907F0D4FFF7FBF9A0EB0800A842DB
:10117000F3D3012084F85100002084F850000320AC
:1011800002B0BDE8F08100BFFFF7EAF9E08E78B168
:10119000206881688907F7D5216B09780173206B76
:1011A00001302063E08E0138E086E08E0028EFD128
:1011B0002046022101222B46CDF8008001F026FABC
:1011C00040B92046802100222B46CDF8008001F056
:1011D0001DFA28B1606D40F0200060652020606538
:1011E000A06838B9002001902068C168019180682A
:1011F00001900198012084F85100002084F85000EB
:10120000606D002818BF012002B0BDE8F081000029
:101210002DE9F04383B01E4615460F460446FFF7FE
:101220009FF994F851108146012909D1002F4FF000
:10123000010018BF002D0FD103B0BDE8F08300BF3F
:101240006068B0F5827F0DD104294FF00200F3D120
:10125000A1680029EAD0EFE7002EEDD094F8500005
:10126000012803D1022003B0BDE8F083012084F8F7
:10127000500094F85100002104281CBF052084F878
:1012800051006165A563E687A6872763E686206827
:10129000A686216461640168490603D4016841F0AF
:1012A000400101606168731EE268B1FA81F1B3FA2E
:1012B00083F3DDF8288049095B09B2F5006F41EA44
:1012C000030165D131B137F8021BC1602763E08E9D
:1012D0000138E086012518F1010032D102E000BF9B
:1012E000FFF73EF9E08E18B9E08F002800F0B880D3
:1012F0002068816889070CD5E18E51B1012D08D194
:10130000216B002531F8022BC2602163E18E013987
:10131000E1868168C907E3D0E18F0029E0D0C06889
:10132000A16B012521F8020BA163E08F0138E08752
:10133000D6E700BFFFF714F9A0EB0900404580F0A5
:10134000AF80E08E18B9E08F002800F08980206817
:10135000816889070CD5E18E51B1012D08D1216B2F
:10136000002531F8022BC2602163E18E0139E1864C
:101370008168C907DED0E18F0029DBD0C068A16B8E
:10138000012521F8020BA163E08F0138E087D1E746
:1013900039B139780173206B01302063E08E013858
:1013A000E086012518F1010032D101E0FFF7D8F8FD
:1013B000E08E10B9E08F002852D02068816889073C
:1013C0000ED5E18E61B1012D0AD1216B002509787E
:1013D0000173216B206801312163E18E0139E186BF
:1013E0008168C907E2D0E18F0029DFD0C068A16B16
:1013F00001250870A06B0130A063E08F0138E08701
:10140000D4E700BFFFF7ACF8A0EB0900404547D296
:10141000E08E08B9E08F18B32068816889070ED57F
:10142000E18E61B1012D0AD1216B0025097801738C
:10143000216B206801312163E18E0139E1868168E9
:10144000C907DFD0E18F0029DCD0C068A16B01257E
:101450000870A06B0130A063E08F0138E087D1E70E
:101460002046022101224346CDF8009001F0CEF83B
:1014700040B92046802100224346CDF8009001F07B
:10148000C5F8B8B1606D40F020006065202060654F
:10149000002084F85000012003B0BDE8F08300BFB5
:1014A000012084F85100002084F85000032003B08C
:1014B000BDE8F083A06838B9002002902068C168B8
:1014C0000291806802900298012084F85100002067
:1014D00084F85000606D002818BF012003B0BDE8FB
:1014E000F0830000411E0020B0EB116F1CBF0120F3
:1014F00070474EF21002CEF2000251604EF62351B8
:10150000CEF20001F0230B7007219060116070474C
:10151000704700007047000090F83C20012A4FF00F
:10152000020242D010B580F83D200268D2F804E0F3
:10153000D2F808C00C682EF07003234340F6FF3445
:10154000C4F20004A242536010DCB2F1804F1FD0FD
:1015500040F20043C4F200039A4219D040F600035F
:10156000C4F200039A4213D017E000BF40F60043D4
:10157000C4F200039A420BD043F20043C4F20103C9
:101580009A4205D042F60043C4F201039A4204D1C4
:1015900049682CF08003194391600121002280F8F2
:1015A0003D1080F83C20BDE8104010467047000018
:1015B0007047000070B504460068C5680669B10749
:1015C00016D515F0020113D06FF00201016101215F
:1015D00021778069800703D02046FFF7E9FF05E007
:1015E000204600F08FF8204600F02AFA00202077ED
:1015F000700719D515F0040016D020686FF00401AB
:10160000016102212177806910F4407F04D02046D7
:10161000FFF7CEFF06E000BF204600F073F820463B
:1016200000F00EFA00202077300717D515F00800DB
:1016300014D020686FF00801016104212177C0698E
:10164000800703D02046FFF7B3FF05E0204600F0F7
:1016500059F8204600F0F4F900202077F00619D55B
:1016600015F0100016D020686FF0100101610821FC
:101670002177C06910F4407F04D02046FFF798FF1F
:1016800006E000BF204600F03DF8204600F0D8F903
:1016900000202077F00718BF15F0010002D13006B6
:1016A00009D412E020686FF001010161204600F0CA
:1016B000D3FA300609D515F0800006D020686FF007
:1016C000800101612046FFF723FF700609D515F060
:1016D000400006D020686FF040010161204600F014
:1016E000BDFAB00658BF70BD15F0200008D02168C3
:1016F0006FF0200220460A61BDE87040FFF70ABF84
:1017000070BD00007047000090F83C30012B04BF12
:10171000022070474FEAB202032A00F21D812DE930
:10172000F041DFE802F003C7479100BF036843F2CE
:1017300000461D6A1A6A25F0020522F001021A62AB
:101740001A465C6852F818CF8F68D1F800E0C4F2EE
:101750000106B34245EA070505D042F60047C4F248
:101760000107BB4205D1CF6825F00C0527F004071F
:101770003D43B34205D042F60046C4F20106B342EF
:1017800005D1D1E9056724F4407434433C432CF07F
:10179000730747EA0E075C609F614F6809695F63E2
:1017A0001D629F6947F008079F619F6927F0040742
:1017B0009F61C6E0036843F200461D6A1A6A25F479
:1017C000007522F480721A621A46D3F804C052F8E7
:1017D0001CEF8F68D1F80080C4F20106B34245EADD
:1017E000072505D042F60047C4F20107BB4208D1E5
:1017F000CF6840F2FF443F0225F4406527EA040425
:101800002543B34205D042F60044C4F20104A3428A
:1018100006D1D1E905462CF44057264347EA061C79
:101820002EF0730747EA0807C3F804C0DF614F686A
:101830000969DF631D62DF6947F00807DF61DF695F
:1018400027F00407DF617CE0036843F20047D3F828
:1018500020C01A6AC4F2010722F480521A621A46A2
:101860005C6852F81C5FD1F800E08E68BB4205D07E
:1018700042F60047C4F20107BB4204D14F6924F489
:10188000804444EA87142CF4005747EA063725F4CD
:10189000E64646EA0E265C60DE614E6809691E6413
:1018A0001F62DF6947F40067DF61DF6927F4806743
:1018B000DF6145E0036843F200481D6A1A6A25F0BB
:1018C000200522F010021A621A465C6852F818CFFE
:1018D0008F68D1F800E0C4F20108434545EA0715D6
:1018E00005D042F60047C4F20107BB4207D1CF68DA
:1018F0006FF0400625F0C00506EA0716354343455C
:1019000005D042F60046C4F20106B34206D1D1E941
:10191000056724F440643E4344EA86042CF4E64719
:1019200047EA0E275C609F614F6809699F631D62EB
:101930009F6947F400679F619F6927F480679F61F3
:1019400009021368194311600021BDE8F04100222B
:1019500080F83C20084670470121002280F83C2096
:1019600008467047002804BF0120704710B50446A0
:1019700090F83D0028B9002084F83C00204600F093
:101980001FF8022084F83D002068211D00F0DAFED7
:10199000012084F8460084F83E0084F83F0084F873
:1019A000400084F8410084F8420084F8430084F841
:1019B000440084F8450084F83D00002010BD00007C
:1019C00083B0006840F60001C4F20001884227D0CD
:1019D00040F20041C4F20001884211D0B0F1804FC2
:1019E0002BD141F21C00C4F20200016841F0010158
:1019F0000160006800F001000290029803B0704797
:101A000041F21C00C4F20200016841F002010160D1
:101A1000006800F002000190019803B0704700BF19
:101A200041F21C00C4F20200016841F004010160AF
:101A3000006800F004000090009803B070470000B8
:101A40000168B1F1804F18BF704710B540F27004C3
:101A5000C2F20004217869B1616B01316163616B8D
:101A6000A26B914206D3042100F096F8002020706A
:101A700001206070BDE8104070470000F1B10429FA
:101A800008D0082914BF41224022825C012A05D0D7
:101A900024E000BF3F22825C012A1FD102220829D4
:101AA00020D0042914BF80F8412080F83F204FEA5D
:101AB000B103032B4FF001020DD81BE090F83E203C
:101AC000012A0BD1022280F83E204FEAB103032BFA
:101AD0004FF001020ED91046704700BF0122104698
:101AE000704700BF80F840204FEAB103032B4FF04E
:101AF0000102F0D843F2DC2C0068C0F6000C5CF860
:101B000023C0C36801F01F0143EA0C03C360036AEA
:101B100002FA01F123EA01020262026A114340F66D
:101B2000FF32C4F20002904201620DDCB0F1804F3E
:101B300024D040F20041C4F2000188421ED040F699
:101B40000001C4F2000117E040F60041C4F20001B8
:101B5000884213D043F20042C4F2010242F600412F
:101B60009042C4F2010101D088420ED1436C9042F0
:101B700043F40043436401D0884206D1816801F0F8
:101B80000701062904BF00207047016841F00101E8
:101B900001600020704700004FEAB102032A4FF0B5
:101BA000010C56D810B543F2EC2E0368C0F6000EB7
:101BB0005EF822E0DA6802EA0E02DA6001F01F0E37
:101BC0001C6A0CFA0EF224EA02021A6243F2004482
:101BD0001A6AC4F20104A3421A6205D042F6004216
:101BE000C4F2010293420DD11A6A41F21114224249
:101BF00008D11A6A40F24444224203D15A6C22F4BA
:101C000000425A641A6A41F21114224208D11A6A37
:101C100040F24444224203D11A6822F001021A60C1
:101C20000829BDE810400FD0042909D000294FF041
:101C3000010114BF80F8411080F83E1007E000BF9A
:101C4000012180F83F1002E0012180F840104FF0A0
:101C5000000C6046704700007047000070470000AD
:101C6000002804BF0120704710B5044690F84100D9
:101C700028B9002084F84000204600F063F82420B2
:101C800084F841002068D4E90212C36823F40053A9
:101C9000C360036923F440531A430261D4E9042367
:101CA0001143C268194341F20C639A431143C16066
:101CB0004169A26921F44071114343F60002C4F264
:101CC00001029042416103D0FEF7EAFE02E000BF4C
:101CD000FEF7FAFED4E90023192148439900B0FB2E
:101CE000F1F048F21F5CC5F2EB1CA0FB0C314FF683
:101CF0009C734909C0F6FF7301FB0300322303EB19
:101D00000010A0FB0C03F02000EA531000EB0110C0
:101D1000C3F34311084490601069202120F49040DF
:101D20001061506920F02A005061D06840F40050E2
:101D3000D0600020606484F8411084F84210606331
:101D400010BD000070B586B0006844F60001C4F212
:101D50000001002688420596CDE90366029635D03B
:101D600044F20041C4F2000188426BD141F21800F4
:101D7000C4F20200416840F6000441F400314160C1
:101D80004168C4F2010401F4003101910199016834
:101D900002AD41F0040101600068294600F0040032
:101DA00001900198042002900220039003200590E6
:101DB0002046FEF7D5FA082002900020CDE9030066
:101DC00020462946FEF7CCFA06B070BD41F2180055
:101DD000C4F20200416802AD41F4802141604168D3
:101DE00001F4802101910199016841F01001016025
:101DF0000068294600F01000019001984FF48060BF
:101E00000290022003900320059040F60000C4F2E7
:101E1000010000F500642046FEF7A2FA4FF40060CE
:101E2000CDE90206204629460496FEF799FA0420D9
:101E3000C4F20100016841F0E06141F0100121F0BD
:101E40002001016006B070BD2DE9F04381B0044669
:101E500090F84100202809D100294FF0010018BF57
:101E6000002A07D101B0BDE8F08300BF022001B015
:101E7000BDE8F0830020606421201D460E4684F8F2
:101E800041001746FEF76CFBA784E784A1688146F2
:101E9000B1F5805F02D1206900285DD0374600206F
:101EA000E28C2168002A5DD06A1C24D0002D4AD023
:101EB000804600BF0868000608D4FEF751FBA0EB7F
:101EC0000900A8427AD82168C868F3E717B117F863
:101ED000010B04E038F8020B00276FF35F20486025
:101EE000E08C0138E084E08C0028E3D13AE000BFC8
:101EF0000A68120609D40A68120606D40A6812068D
:101F00005CBF0A685FEA0262F2D51FB117F8012BC5
:101F100005E000BF30F8022B00276FF35F224A6014
:101F2000E28C013AE284E28C002AE4D11AE000BF9C
:101F300030F8022B00276FF35F224A60E28C013AEF
:101F4000E284E28C72B10A68120635D5002FEFD018
:101F500017F8012BF1E700BF00273046E28C21681B
:101F6000002AA1D1086840061ED42DB3681C14D1E4
:101F7000086840062AD40868400627D40868400646
:101F800024D4086840064FF00000F1D50DE000BFF2
:101F90002068C1680068400618D4FEF7E1FAA0EB9B
:101FA0000900A842F4D909E00020202184F841105A
:101FB00001B0BDE8F08300BFFEF7D2FA0320202174
:101FC00084F8411001B0BDE8F08300BF002020215B
:101FD00084F8411001B0BDE8F0830000FEE7000086
:101FE00080B5FEF7BDFA40F2EC03C2F20003586080
:101FF0004FF0000C41F20000C4F201004FF48041A8
:10200000012283F800C0BDE88040FEF7A3BA0000BB
:1020100080B5FEF7A5FA40F2EC03C2F2000359685E
:10202000411AB1F5FA7F38BF80BD19785860481E53
:10203000B0FA80F081F0010C420941F20000C4F2D4
:1020400001004FF4804183F800C0BDE88040FEF7F6
:1020500081BA00002DE9F04786B0002441F2180053
:10206000CDE90444CDE90244C4F20200016841F222
:10207000000841F0100101600168C4F2010801F09C
:102080001001019101990168002241F020010160D5
:10209000016801F0200101910199016841F00401FA
:1020A0000160016801F0040101910199016841F0AA
:1020B0000801016000684FF4C04100F00800019081
:1020C00001984046FEF746FA40463C2101224FF077
:1020D0000109FEF73FFAA8F5006528460121002214
:1020E000FEF738FAA8F58066304643F22101002257
:1020F000FEF730FA304690210122FEF72BFA46F225
:102100003C0002AFCDE902094FF0020A40463946D1
:102110000494CDF814A0FEF723F94FF40040CDE964
:102120000204404639460494FEF71AF92846394617
:10213000CDE90299CDE9044AFEF712F943F2B10064
:10214000CDE9020930463946CDE9044AFEF708F9DF
:102150004FF44040CDE90204304639460494FEF77E
:10216000FFF84FF47070CDE90204404639460494FC
:10217000FEF7F6F84FF4E050CDE902042846394660
:102180000494FEF7EDF806B0BDE8F08780B540F2A4
:10219000101045F20041C2F20000C4F2000148F202
:1021A000A06200234FF4804CC0F2010280E80E00D0
:1021B000C0E9033CC0E90533C0E90733FEF7D6F9AF
:1021C000002808BF80BDBDE88040FEF7A1B8000030
:1021D000B0B540F2641043F20001C2F20000C4F254
:1021E00001014FF48272002380E80E0000F10C011F
:1021F0004FF0020C4FF0010E4FF40074202581E8DF
:1022000008500A21C0E90645C0E90833C0E90A318F
:10221000FEF76EFE002808BFB0BDBDE8B040FEF777
:1022200077B80000B0B590B040F2BC100021C2F207
:1022300000006325CDE90811CDE90611CDE90411AF
:102240004FF080424723C0E9021501618021C0E9B7
:1022500000238161FFF786FB002818BFFEF758F8BE
:1022600040F2BC10C2F2000008A9FFF755F900289F
:1022700018BFFEF74DF8602040F2BC1401903220E8
:10228000C2F200040290002501A920460422039511
:102290000595FFF739FA002818BFFEF739F82068CE
:1022A00040F60001C4F2000188420F95CDE90D55BA
:1022B0000C9529D040F20041C4F20001884217D0A9
:1022C000B0F1804F3AD141F21800C4F20200016827
:1022D00041F0040101600068022100F004000B904D
:1022E0000B9840F60040C4F20100A0F580601DE0AC
:1022F00041F21800C4F20200016841F008010160D7
:10230000006802210AE000BF41F21800C4F2020096
:10231000016841F0080101600068402100F00800F8
:102320000B900B9840F60040C4F201000C91022182
:102330000D9103210F910CA9FEF712F810B0B0BD5A
:1023400070B590B040F6004440F20420C4F201049D
:102350000021C2F2000040F2E736CDE90811CDE9D4
:102360000611CDE90411A4F584324723C0E9021611
:1023700001618021C0E900238161FFF7F3FA0028A1
:1023800018BFFDF7C5FF40F20420C2F2000008A903
:10239000FFF7C2F8002818BFFDF7BAFF602040F22F
:1023A000042501903220C2F200050290002601A906
:1023B00028460C2203960596FFF7A6F9002818BFB9
:1023C000FDF7A6FF286840F60001C4F2000188422C
:1023D0000F96CDE90D660C962AD040F20041C4F26A
:1023E0000001884214D0B0F1804F38D141F218007A
:1023F000C4F202000168A4F5806441F004010160A8
:10240000006800F004000B900B9802201EE000BF53
:1024100041F21800C4F20200016841F008010160B5
:10242000006800F008000B900B9802200EE000BF3F
:1024300041F21800C4F20200016841F00801016095
:10244000006800F008000B900B9840200C900220D0
:102450000D9003200F900CA92046FDF781FF10B0CE
:1024600070BD000070B590B040F6004440F24C20C2
:10247000C4F201040021C2F2000040F2E736CDE9C7
:102480000811CDE90611CDE90411A4F582324723E4
:10249000C0E9021601618021C0E900238161FFF7D4
:1024A00061FA002818BFFDF733FF40F24C20C2F25A
:1024B000000008A9FFF730F8002818BFFDF728FF33
:1024C000602040F24C2501903220C2F200050290BB
:1024D000002601A92846002203960596FFF714F965
:1024E000002818BFFDF714FF286840F60001C4F269
:1024F000000188420F96CDE90D660C962AD040F275
:102500000041C4F20001884214D0B0F1804F38D1AC
:1025100041F21800C4F202000168A4F5806441F0A1
:1025200004010160006800F004000B900B98022089
:102530001EE000BF41F21800C4F20200016841F041
:1025400008010160006800F008000B900B98022061
:102550000EE000BF41F21800C4F20200016841F031
:1025600008010160006800F008000B900B98402003
:102570000C9002200D9003200F900CA92046FDF72F
:10258000EFFE10B070BD000080B540F2942044F220
:102590000041C2F20000C4F2000100234FF00C0C15
:1025A0004FF4E13280E80E00C0E90333C0E905C30F
:1025B000C361FFF755FB002808BF80BDBDE8804020
:1025C000FDF7A6BE80B540F2DC2044F60001C2F261
:1025D0000000C4F2000100234FF00C0C4FF4E13274
:1025E00080E80E00C0E90333C0E905C3C361FFF70B
:1025F00037FB002808BF80BDBDE88040FDF788BEDE
:10260000FEE70000FEE70000704700002DE9F04300
:1026100081B0089C984615460E468146FDF7A0FFFE
:10262000201A00EB0804FDF79BFF40F20801C2F2FC
:1026300000010968C1F3CB3161430091D9F8001062
:102640008A683240921BB2FA82F2520995423DD01A
:10265000074618F1010031D0FDF782FFC01BA042F0
:1026600038D2009800990028A1F101010091D9F811
:102670000010896808BF044601EA0600801BB0FA12
:1026800080F040098542E7D120E000BF88683040F3
:10269000801BB0FA80F04009854217D0886830402E
:1026A000801BB0FA80F0400985420FD08868304026
:1026B000801BB0FA80F04009854207D0886830401E
:1026C000801BB0FA80F040098542DFD1002001B0C4
:1026D000BDE8F083D9E900014268B1F5827F22F0BC
:1026E000E00242600BD1D9F80810B1F5004F02D0DA
:1026F000B1F5806F03D1016821F040010160D9F884
:102700002810B1F5005F07D1016821F40051016084
:10271000016841F400510160012089F85100002056
:1027200089F85000032001B0BDE8F0837047000035
:10273000FEF710B87047000040F2BC10C2F2000073
:10274000FEF738BF10B540F6FF320368C4F200024E
:1027500040F6004E43F2004C9042C4F2000EC4F228
:10276000010C21DCB0F1804F28D040F20044C4F2CB
:102770000004A04222D040F60004C4F20004A042AB
:102780001CD0904220DCB0F1804F27D040F20042B4
:10279000C4F20002904221D040F60002C4F20002CE
:1027A00090421BD01EE000BF704507D0604505D0A9
:1027B00042F60044C4F20104A042E2D14C6823F086
:1027C000700323439042DEDD704507D0604505D09D
:1027D00042F60042C4F20102904203D1CA6823F4D7
:1027E000407313434C6923F08002D1F800E08B68FA
:1027F000224360450260C362C0F828E005D042F67B
:102800000042C4F20102904201D109690163012131
:1028100041610169C90708BF10BD016921F00101CB
:10282000016110BD2DE9F04385B004468DF80C1010
:102830000068A18800250022CDF80D50FDF78AFE22
:1028400040F26419C2F2000903AE0DF107074FF020
:10285000FF38484631463A460523CDF80080FEF75A
:10286000D7FC2068A1880122FDF774FE2068A188AA
:1028700000228DF810500395FDF76CFE4846314656
:102880003A460523CDF80080FEF7C2FC2068A188F7
:102890000122FDF75FFE029800BA05B0BDE8F083A3
:1028A00010B582B0044641F080008DF80300100E90
:1028B0008DF80400100C8DF80500100A8DF8060044
:1028C0002068A1888DF807200022FDF743FE40F222
:1028D0006410C2F200000DF1030105224FF0FF3336
:1028E000FEF798FB2068A1880122FDF733FE02B0B5
:1028F00010BD0000FEE7000094B0FDF739FF002492
:102900000120CDE90F44CDE90D440A900E904FF41B
:10291000E0100DF128084FF4803102251390404655
:10292000CDE90B14CDE91151FEF7E2F820B1EFF338
:10293000108072B6FEE700BF0F20CDE905054FF409
:102940008060CDE9080405A802210794FDF7CAFFBD
:1029500020B1EFF3108072B6FEE700BF40F600042E
:10296000C4F20104FFF776FBFFF70EFEFFF70EFC43
:10297000FFF72EFCFFF756FCFFF7E2FCFFF772FDB6
:10298000FFF720FEFFF72CFB04F500602821012251
:1029900002900127FDF7DEFD04F580652846102131
:1029A0000122FDF7D7FD2046012100224FF000094A
:1029B000FDF7D0FD284601210022FDF7CBFD28467A
:1029C000202100220195FDF7C5FDFDF7C9FD40F26C
:1029D000700AC2F2000ACAF83C00FDF7C1FD40F6D9
:1029E0002600C2F22600CAF8400008F1050040F2B5
:1029F000DC2643F20C3840F2F40BC2F20006C0F6BB
:102A00000008C2F2000B00900DE000BFBAF82C00E5
:102A100040F08000AAF82C009AF80A00002800F084
:102A2000FB838AF80B70FFF7F3FA30680168090737
:102A30000FD5CDF81490016805914168059105996D
:102A4000DAF870100131CAF8701002E08AF82B90A1
:102A500030680168890640F159814068DAF86C10E5
:102A6000C2B20131CAF86C108AF819009AF82B101A
:102A700009B9552AECD1012901D1552AE6D14A1CC0
:102A8000D3B259440E2B8AF82B200873E0D35E464C
:102A9000F07B9BF80C909BF80EB0049096F810C059
:102AA000777CB27CF47C337D707DB57DF17D96F8CA
:102AB00018E04FF00008B9F1550FCDF80CE08AF896
:102AC0002B8047D1767B552E44D1BBF1010FE646D2
:102AD00041D1049EA446C6B9BEF1000F15D1A7B9D5
:102AE0009AB9BCF1000F10D17BB970B96DB961B959
:102AF000039EAA2E09D140F2F406C2F20006767EA9
:102B0000AA3EB6FA86F64FEA56188AF81A809AF85C
:102B10001A603EB3DAF8640040F2DC260130C2F2FB
:102B2000000643F2BC21CAF864003046C0F600013A
:102B30000E226423FFF788F9B0FA80F0400943F2CF
:102B40000C388AF81B0001274FF00009C0F6000876
:102B500050E000BFE646A4468AF81A809AF81A6048
:102B6000002ED7D140F2DC2643F20C38BBF1020F25
:102B70004FF00009C2F20006C0F600088AF81A9069
:102B800030D1049C74BB0004DAF8744040EA03605E
:102B900040EA052001344CEA02220844CAF8744095
:102BA0008AF81CE08AF81D70AAF82E20CAF878006E
:102BB000039B40F2F40B0121AA2B4FF00003C2F259
:102BC000000B1DD19BF81970AA2F4FF001071AD1E5
:102BD0009AF81C10012915D19AF81D1001296BD9FA
:102BE000032110E0DAF8680001270130CAF8680014
:102BF0008AF81B9040F2F40B3068C2F2000B28E711
:102C0000012700E002218AF820108AF81E309AF885
:102C10001E30ABB19AF81C308AF825309AF81D3076
:102C20008AF82630AAF83020CBF80000CAF838001D
:102C3000CAF834908AF822708AF821708AF82370D2
:102C40004AF6AA20ADF8280002208DF82A009AF84A
:102C50001E0000284FF0000008BF4FF0FF308DF835
:102C60002B009AF81E0028B1DBE904010C910B90AF
:102C70000CE000BF00988DF82C10C0F80090C0F850
:102C80000390DAF868000130CAF8680045F2555040
:102C9000ADF8340030460AA90E226423FFF7D4F8B9
:102CA000B0FA80F040098AF81F009AF81F008AF8ED
:102CB0001B003068CDE600BF42F21171511A89B293
:102CC0004DF6D743994203D2042100239BE700BF6E
:102CD00042F6E1614DF22013411ACFF6FF7399429B
:102CE00002D2052100238EE702EB8201884203D93C
:102CF0000621002387E700BF9AF82110B1FA81F37B
:102D00005B09002918BF07217DE700BFCDE90799BE
:102D1000CDE905999AF8220020B19AF80000002820
:102D200000F008819AF80100002800F08880022055
:102D300040F600058AF8019005900320C4F20105D1
:102D400001240890284605A9CDE90649FDF708FBAE
:102D5000284602210022FDF7FDFB40466A21FFF7CD
:102D600061FDCBF80800DBF80800DBF80410401A1E
:102D70006FF39F20AAF83200BAF83200DAF8381060
:102D80006FF39F2181420AD0BAF83200DAF8381086
:102D900049426FF39F21081AB0FA80F044098AF87B
:102DA0002A40029808210122FDF7D4FB03208AF86B
:102DB00018908AF821908AF823004AF6AA20C0F2D7
:102DC00002108AF820908AF827708AF828900A90D2
:102DD0009AF825000AA98DF82C009AF826000E22F0
:102DE0008DF82D00BAF830006423000A8DF82E000B
:102DF000BAF830008DF82F00DBF80000000E8DF8D7
:102E00003000DBF80000000C8DF83100DBF800002A
:102E1000000A8DF83200DBF800008DF8330045F22F
:102E20005550ADF834003046FFF70EF8B0FA80F098
:102E300040098AF829009AF829008AF81B00FDF752
:102E40008FFBDAF83C10401A0A28FFF4ECADFDF7CE
:102E500087FB029CCAF83C0020464021FDF774FB2A
:102E60008AF80200019D4FF400412846FDF76CFBF3
:102E70008AF8030028464FF48041FDF765FB8AF885
:102E8000040020464FF40071FDF75EFB8AF8050050
:102E900020464FF48071FDF757FB8AF80600204664
:102EA0008021FDF751FB40F60004C4F201048AF8CA
:102EB000070020464FF48051FDF746FB8AF80800D2
:102EC00020464FF40061FDF73FFB8AF809002046D9
:102ED0004FF48061FDF738FB8AF80A00AAF82C90BD
:102EE0009AF80200002800F045819AF803000028B3
:102EF00000F04B819AF80400002800F051819AF804
:102F00000500002800F057819AF80600002800F01C
:102F10005D819AF80700002800F063819AF80800A4
:102F2000002800F069819AF80900002840F06F81BC
:102F30006CE500BF8AF822908AF824900298082154
:102F40000122CDE90C99CDE90A990824FDF702FB8D
:102F500040460421FFF766FCCAF84400DAF8440052
:102F600000F07F4000F15040B0FA80F040098AF84C
:102F70000C008AF80D709AF80C00002800F05581BA
:102F80004046002108220824FFF78AFC4046002121
:102F9000FFF748FCCAF84800DAF848000838B0FAE9
:102FA00080F040098AF80E008AF80F709AF80E0037
:102FB000002800F03A8140460121FFF733FCCAF8AF
:102FC0004C004046012107228AF81070FFF768FC88
:102FD0006420FDF7A3F940460121FFF723FCCAF85E
:102FE0005000DAF8500000F0040087EA90008AF8F8
:102FF00011008AF812709AF81100002800F014816C
:1030000040466C21FFF70EFCCAF8540040461021E0
:103010004FF440728AF81370FFF742FCDAF854401C
:10302000032060F3030440466C212246FFF738FC7E
:1030300040466C21FFF7F6FBCAF85800DAF8580052
:10304000001BB0FA80F040098AF814008AF8157065
:103050009AF81400002800F0E78002980821002266
:103060000824FDF777FAC8208AF81870FDF756F99A
:1030700040460121FFF7D6FBCAF85C0040466F21AD
:10308000FFF7D0FBCAF86000DAF85C0000F0060039
:10309000B0FA80F040098AF816008AF817709AF89A
:1030A000160000285ED040F600049AF82620C4F2EC
:1030B000010420460121002A18BF0122FDF74AFA27
:1030C000204602210022FDF745FA0120FDF726F9EE
:1030D0000220CDE90A0003200D9020460AA9CDF870
:1030E0003090FDF73DF9204602210022FDF732FA2B
:1030F00040466A21FFF796FBCBF804008AF82A9035
:10310000BAF8300010282CD344F24021C0F20F014D
:1031100040F2BC14B1FBF0F0C2F200042168421E80
:103120004008CA62E26088636FF00500C1F824902D
:1031300008611C2002210022FDF798FB1C20FDF7EE
:1031400071FB1C20FDF780FB20460421CAF8349057
:103150008AF80070FEF792FC002800F097808AF849
:1031600000900924029808210122FDF7F3F98AF85A
:1031700018905AE0BAF82C0040F00100AAF82C0090
:103180009AF8030000287FF4B5AEBAF82C0040F09E
:103190000200AAF82C009AF8040000287FF4AFAED1
:1031A000BAF82C0040F00400AAF82C009AF80500A8
:1031B00000287FF4A9AEBAF82C0040F00800AAF865
:1031C0002C009AF8060000287FF4A3AEBAF82C0071
:1031D00040F01000AAF82C009AF8070000287FF4AD
:1031E0009DAEBAF82C0040F02000AAF82C009AF806
:1031F000080000287FF497AEBAF82C0040F0400099
:10320000AAF82C009AF8090000283FF4FFAB9AF8BE
:103210000A0000287FF405ACBAF82C0040F4807056
:10322000AAF82C00FFF7FDBB082404208AF82040F0
:103230008AF821908AF82300FF208AF827004AF6AE
:10324000AA208AF82840CFF602700A9000980AA9AE
:10325000C0F80090C0F8039045F25550ADF8340026
:1032600030460E2264238DF82C40FEF7EDFDB0FAB7
:1032700080F040098AF829009AF829008AF81B0092
:103280009AF8010000287FF452ADD8E502208AF8B0
:1032900023008AF824709AF8010000287FF447ADD3
:1032A000CDE5000000000000000001020304060755
:1032B000080900000000010203040102AAAA01009B
:1032C0000000000000000000555502030405060739
:1032D00008090A0B0C0D0E0F101000000200000070
:1032E000040000000800000010000000FDFFFFFFC8
:1032F000FBFFFFFFF7FFFFFFEFFFFFFFFFFDFFFFFC
:10330000FFFBFFFFFFF7FFFFFFEFFFFF0010014094
:1033100004000000001001400800000040330008D5
:103320000000002010000000940100085033000845
:103330001000002018090000B4010008000000007F
:10334000010000001000000000127A0000000000E0
:0400000508000131BD
:00000001FF
