:020000040800F2
:1000000030090020F9010008A52300087D1D000823
:10001000A1230008B502000889260008000000009E
:10002000000000000000000000000000CD240008D7
:10003000B902000800000000A9230008D12400082C
:10004000130200081302000813020008130200083C
:10005000130200081302000813020008130200082C
:10006000130200081302000813020008130200081C
:10007000130200081302000813020008130200080C
:1000800013020008130200081302000813020008FC
:10009000130200081302000813020008ED02000812
:1000A00013020008130200081302000813020008DC
:1000B00013020008130200081302000813020008CC
:1000C00013020008130200081302000813020008BC
:1000D00013020008130200081302000813020008AC
:1000E000BD020008130200081302000813020008F2
:1000F000130200081302000813020008130200088C
:10010000130200081302000813020008130200087B
:10011000130200081302000813020008130200086B
:10012000130200081302000813020008130200085B
:1001300000F002F800F050F814A696E8000CB24463
:10014000B344DA4501D100F047F8BAE80F000FA632
:1001500096E83000A5EB040504EB0607AAEB0704BC
:10016000A7F101074FEA15154FEA3414A4F1010471
:10017000AC4201D300F030F813F0010F18BFFB1AA6
:1001800043F0010300F001F8DBE71847CC2E000034
:10019000EC2E0000103A24BF78C878C1FAD8520774
:1001A00024BF30C830C144BF04680C6070470000F1
:1001B000704700000023002400250026103A28BFC5
:1001C00078C1FBD8520728BF30C148BF0B607047C9
:1001D0001FB51FBD10B510BD00F031F81146FFF777
:1001E000F7FF02F053FA00F04FF803B4FFF7F2FF05
:1001F00003BC00F057F80000094880470948004751
:10020000FEE7FEE7FEE7FEE7FEE7FEE7FEE7FEE7C6
:10021000FEE7FEE704480549054A064B7047000023
:10022000D5240008310100083003002030090020E7
:100230003005002030050020704770477047754634
:1002400000F02CF8AE4605006946534620F0070042
:10025000854618B020B5FFF7DDFFBDE820404FF020
:1002600000064FF000074FF000084FF0000BAC46BF
:10027000ACE8C009ACE8C009ACE8C009ACE8C0090A
:1002800021F007018D46704710B50446AFF300809A
:100290002046BDE81040FFF7A8BF000000487047A7
:1002A0001000002001491820ABBEFEE72600020026
:1002B00070470000FEE700007047000080B54FF473
:1002C000806000F02DF84FF4006000F029F84FF442
:1002D000805000F025F84FF4804000F021F84FF4F2
:1002E0000040BDE8804000F01BB8000080B5402011
:1002F00000F016F8802000F013F84FF4807000F042
:100300000FF84FF40070BDE8804000F009B800001D
:10031000EFF3108072B600BFFEE7000070470000E8
:1003200040F21441C4F201010A68024214BF08609D
:100330007047FFF7F3BF00002DE9F04F82B00E6861
:10034000002E00F0E980A0F1804241F6004540F225
:100350000043A2F58432C4F201050624C4F201036D
:100360004FEAB227A84208BF05244FF0000E4FF015
:1003700001080F254FF0000A4FF0000B052F38BF82
:100380004FEAB224009408E00E680AF1010A36FA36
:100390000AF20EF1040E00F0BF8008FA0AFC16EA19
:1003A0000C09F1D04E684FF6FF72C1F2100296426E
:1003B00012DC122E56D8DFE806F0350B4D495555A4
:1003C000555555555555555555555545510000BF31
:1003D000D1F80CB046E000BF4FF6FF72C1F2210227
:1003E00096420FDC0022C1F2110296421AD000227E
:1003F000C1F21202964215D00022C1F221029642A9
:1004000010D02FE00022C1F2220296420AD0002230
:10041000C1F23102964205D00022C1F23202964268
:1004200020D100BF8A684AB1012A14BFC0F814C0A5
:10043000C0F810C04FF0080B14E000BF4FF0040BE1
:1004400010E000BFCA6802F1040B0BE04FF0000B94
:1004500008E000BFCA6802F1080B03E0CA6802F1B5
:100460000C0B00BF02467446B9F5807F24BF0432EE
:10047000203C166805FA04F726EA07070BFA04F68B
:1004800037431760CA79D2067FF57EAF41F218076D
:10049000C4F202073A684FF6084542F001023A609A
:1004A0003A68CFF6FF7502F001020192019A2AF034
:1004B00003021A440F2457590EF00C06B440A74308
:1004C000009C04FA06F6374357514E6840F20C443C
:1004D000F2029A6854BF22EA090242EA0902C4F20F
:1004E00001049A602268B70254BF22EA090242EA74
:1004F000090222605A68B70354BF22EA090242EA9D
:1005000009025A600F251A68F70354BF22EA09024C
:1005100042EA09021A6037E702B0BDE8F08F000036
:100520008068084018BF012070470000002A08BFFB
:10053000090401617047000040F22C30C2F2000053
:1005400000687047002804BF01207047F0B581B0F3
:10055000044690F83D0028B9002084F83C0020466D
:1005600000F0A2F8242084F83D002068016821F002
:1005700001010160016841F400410160016821F45A
:100580000041016000F054FA636848F2A16CC0F2C7
:10059000010C40F60011C0F23D0163453CBF48F23A
:1005A0008041C0F21E01884202D2012001B0F0BD9C
:1005B0004DF68361C4F21B31A0FB01122168970C38
:1005C000D1F804E04FF496762EF03F0545EA9245C7
:1005D0004D60774348F638160D6AC0F24106A7FB16
:1005E000067625F03F07634538BF960C721C3A43E8
:1005F0000A62CA6948F2A0664CF6FF77C0F20106AB
:10060000B34222EA07020BD801385B00B0FBF3F0DB
:1006100001306FF31F30042898BF04201BE000BF97
:10062000A768013857B119277B43B0FBF3F00130BD
:100630006FF31F3070B100F5804007E003EB430318
:10064000B0FBF3F001306FF31F3018B100F500403C
:1006500001E000BF01201043C8610868D4E9072306
:1006600020F0C000104318430860886848F2FF3249
:1006700004F10C0790438CCF18431043A66988609F
:10068000C86820F0FF0038433043C860086840F075
:100690000100086000202021206484F83D102063C0
:1006A00084F83E0001B0F0BD10B586B0006845F298
:1006B0000041C4F2000188424FF00000CDE904007F
:1006C000CDE9020002D006B010BD00BF41F218040F
:1006D000C4F20204206802A940F0080020602068EB
:1006E00000F00800019001984FF440700290122031
:1006F00003900320059040F60040C4F20100FFF78C
:100700001BFE0420C4F20100016841F0E06141F0E9
:1007100002010160606840F400106060606800F4ED
:1007200000100190019806B010BD000040F20000DA
:1007300040F22C31C2F20000C2F2000100780A68D7
:10074000104408607047000080B542F20000C4F217
:100750000200016841F010010160032000F07AF806
:100760000F2000F005F800F027F8002080BD000001
:1007700070B540F20006C2F2000640F2080132787D
:10078000C2F200014FF47A730968B3FBF2F2044637
:10079000B1FBF2F1084600F06DFE0F2C4FF00105A1
:1007A00008D838B94FF0FF3021460022002500F06C
:1007B00025F87460284670BD82B041F21800C4F27A
:1007C00002000168022241F001010160016801F0AC
:1007D000010101910199416841F0805141604068F7
:1007E00000F08050009000980420C4F201000168DD
:1007F00062F31A61016002B07047000010B54EF656
:100800000C5CCEF2000CDCF80030C3F3022E8EF04C
:100810000704042C28BF0424BEF103034FF0FF3E5D
:100820000EFA04F438BF0023A14399400EFA03F3F3
:100830009A43114300F00F0200F160430901043AAA
:1008400003F564436244002848BF02F10C031970A9
:1008500010BD00004EF60C51CEF200010A684FF6B2
:10086000FF031A4060F30A2242F0806040F0FD70FE
:1008700008607047002804BF012070472DE9F0434D
:1008800081B042F20008C4F202080446D8F8000021
:100890000D4600F0070081420CD9D8F8000020F086
:1008A00007002843C8F80000D8F8000000F007004F
:1008B000A8426CD1206841F204098107C4F2020900
:1008C00017D5410705D5D9F8001041F4E061C9F802
:1008D0000010010705D5D9F8001041F46051C9F89E
:1008E0000010D9F80010A26821F0F0011143C9F8F6
:1008F0000010C00742D1D8F8000000F00700854280
:100900000CD2D8F8000020F007002843C8F80000F7
:10091000D8F8000000F00700A84238D1206841074D
:1009200007D5D9F80010E26821F4E0611143C9F855
:100930000010000708D5D9F80000216920F46050A4
:1009400040EAC100C9F80000D9F8002002F00C000C
:10095000082841F20020C0F27A004DD143F238035A
:10096000C2F38341C0F60003595CD20338D440F689
:100970000010C0F23D0048433EE000BF606859F8F7
:10098000041C022808D0012826D1890306D401209E
:1009900001B0BDE8F08300BF8901F8D5D9F8001097
:1009A00021F003010843C9F80000FFF7C5FD064622
:1009B00041F28837D9F80000616800F00C00B0EB14
:1009C000810F98D0FFF7B8FD801BB842F2D9032001
:1009D00001B0BDE8F08300BF8907D8D5DEE700BFCE
:1009E000D9F8002043F22803C2F34042C0F60003C6
:1009F0009A5C4843B0FBF2F0D9F8001043F21002C1
:100A0000C1F30311C0F60002515C40F2080220FA63
:100A100001F140F20400C2F200000068C2F20002DC
:100A20001160FFF7A5FE002001B0BDE8F0830000D3
:100A300040F2080041F20401C2F20000C4F20201D7
:100A40000068096843F22002C1F30221C0F60002E7
:100A5000515CC8407047000040F2080041F20401B8
:100A6000C2F20000C4F202010068096843F22002E9
:100A7000C1F3C221C0F60002515CC84070470000BB
:100A8000002804BF012070472DE9F04182B00446E0
:100A9000007841F20006C007C4F202060CD070686C
:100AA00000F00C00042840F081803068800303D5FA
:100AB0006068002800F04681207880071BD57068A8
:100AC00010F00C0F09D0706800F00C00082840F0FE
:100AD00087807068C00300F183803068800703D589
:100AE0002069012840F02E813068616920F0F8000B
:100AF00040EAC10030602078000713D42078400716
:100B00002CD4E569002D00F01881706800F00C000D
:100B1000082840F0A780012D40F00481012002B098
:100B2000BDE8F081A069002800F084800020C4F2B4
:100B300042200121C0F88014FFF7FEFC054600BFEB
:100B4000706A800700F1B280FFF7F6FC401B0228B4
:100B5000F6D9032002B0BDE8F08100BFF0695FEA7A
:100B6000C00808D4F06940F08050F061F06900F0EE
:100B700080500090009847F20007C4F200073868E0
:100B8000C00549D4386840F480703860FFF7D4FC61
:100B9000054600BF3868C0053ED4FFF7CDFC401BBA
:100BA0006428F7D9032002B0BDE8F081706800F036
:100BB0000C00082803D17068C0033FF576AF616868
:100BC0003068002900F00C81B1F5A02F00F0008101
:100BD000B1F5803F40F01A8140F480301CE100BF45
:100BE0002069002840F20000C4F2422000F0888012
:100BF00001210160FFF7A0FC054600BF30688007B7
:100C00003FF572AFFFF798FC401B0228F6D903208E
:100C100002B0BDE8F08100BFE168306A002900F051
:100C20009D80052900F09280012940F0AF8040F0BE
:100C30000100B1E00020C4F242200021C0F880147D
:100C4000FFF77AFC054600BF706A80077FF556AF54
:100C5000FFF772FC401B0228F6D9032002B0BDE862
:100C6000F08100BF0027C4F2422700203866FFF75A
:100C700063FC022D05460DD13068800140F1DE8015
:100C8000FFF75AFC401B02284FF00300F4D902B0D2
:100C9000BDE8F081306880014FD5FFF74DFC401B67
:100CA00002284FF00300F5D9F1E700BF40F2080039
:100CB000C2F20000006844F6D351C1F26201A0FB09
:100CC0000101480A019000BF00BF0198411E0028A1
:100CD00001913FF413AF00BF0198411E002801911C
:100CE0003FF40CAF00BF0198411E002801913FF472
:100CF00005AF00BF0198411E00280191E4D1FDE637
:100D000000210160FFF718FC054600BF306880072E
:100D10007FF5F1AEFFF710FC401B02284FF00300F7
:100D2000F4D9B4E77068216A00F480328A4209D1AC
:100D3000616A00F47010884204D1002002B0BDE85E
:100D4000F08100BF012002B0BDE8F08140F0040056
:100D50003062306A40F001001EE000BF20F0010068
:100D60003062306A20F004003062FFF7E5FB054690
:100D700041F28837306A800720D5FFF7DDFB401B42
:100D8000B8424FF00300F5D981E700BF20F0010021
:100D90003062306A20F004003062FFF7CDFB054678
:100DA00041F28837306A800708D4FFF7C5FB401B43
:100DB000B842F7D9032002B0BDE8F081B8F1000FC6
:100DC0003FF59FAEF06920F08050F06199E600BFDA
:100DD00040F480203060306840F480301CE000BF78
:100DE00020F480303060306820F480203060FFF7DD
:100DF000A3FB0546306880037FF55EAEFFF79CFBE2
:100E0000401B64284FF00300F4D940E720F4803001
:100E10003060306820F480203060FFF78DFB05469D
:100E2000306880033FF548AEFFF786FB401B64281F
:100E3000F6D9032002B0BDE8F08100BF206AB0F50A
:100E4000803F05D17168A26821F4003111437160BF
:100E50007168626A21F474111143084370600120C3
:100E60003866FFF769FB0446306880013FF565AFDF
:100E7000FFF762FB001B02284FF00300F4D906E7DE
:100E800070B528B1416A29B100210161142106E041
:100E9000012070BD4168B1F5827F02D01C21002283
:100EA00042500026866290F8511029B980F85060AF
:100EB000054600F039F82846022180F8511090E8E4
:100EC0002E0002F482720C6803F4044324F0400400
:100ED0000C601A4405F4006305691A4405F0020326
:100EE00045691A4405F001038569C4691A4405F48B
:100EF00000731A4404F03803046A1A4404F08003AF
:100F0000846A1A4304F400531A430A60042202EA72
:100F100015424A60CA6922F40062CA61012146652D
:100F200080F85110304670BD70B586B040F60004B0
:100F3000C4F20104006804F5205100268842059699
:100F4000CDE90366029601D006B070BD41F21800EB
:100F5000C4F20200016802AD41F4805101600168F1
:100F600001F4805101910199016841F0040101608F
:100F70000068294600F0040001900198A02002902A
:100F800002200390032005902046FFF7D5F940206A
:100F9000CDE902060120049020462946FFF7CCF94E
:100FA00006B070BD2DE9F04182B01D4616460F46D1
:100FB0000446FFF7C1FA94F8511001290ED180467A
:100FC000002F4FF0010018BF002E03D102B0BDE882
:100FD000F08100BF94F85000012803D1022002B034
:100FE000BDE8F081012084F850000320002184F83E
:100FF000510061652763A686E686A163A187E18724
:10100000A0682164B0F5004F2068616407D10168D1
:1010100021F040010160016841F4804101600168F4
:10102000490603D4016841F0400101606168731E04
:10103000E268B1FA81F1B3FA83F349095B09B2F5C9
:10104000006F41EA030139D131B137F8021BC160A9
:101050002763E08E0138E086E08E002870D0681C9F
:101060000BD11AE0216B31F8022BC2602163E08EB4
:101070000138E086E08E002862D020688168890708
:10108000F0D4FFF759FAA0EB0800A842F2D338E0F9
:10109000FFF752FAE08E002852D020688168890755
:1010A000F6D5216B31F8022BC2602163E08E013846
:1010B000E086E08E0028F0D142E000BF39B13978F7
:1010C0000173206B01302063E08E0138E086E08EF2
:1010D000B0B3681C0BD123E0216B09780173206B3E
:1010E00001302063E08E0138E086E08E40B3206856
:1010F00081688907F0D4FFF71FFAA0EB0800A84227
:10110000F3D3012084F85100002084F8500003201C
:1011100002B0BDE8F08100BFFFF70EFAE08E78B1B3
:10112000206881688907F7D5216B09780173206BE6
:1011300001302063E08E0138E086E08E0028EFD198
:101140002046022101222B46CDF8008001F02EF925
:1011500040B92046802100222B46CDF8008001F0C6
:1011600025F928B1606D40F02000606520206065A1
:10117000A06838B9002001902068C168019180689A
:1011800001900198012084F85100002084F850005B
:10119000606D002818BF012002B0BDE8F08100009A
:1011A0002DE9F04383B01E4615460F460446FFF76F
:1011B000C3F994F851108146012909D1002F4FF04D
:1011C000010018BF002D0FD103B0BDE8F08300BFB0
:1011D0006068B0F5827F0DD104294FF00200F3D191
:1011E000A1680029EAD0EFE7002EEDD094F8500076
:1011F000012803D1022003B0BDE8F083012084F868
:10120000500094F85100002104281CBF052084F8E8
:1012100051006165A563E687A6872763E686206897
:10122000A686216461640168490603D4016841F01F
:10123000400101606168731EE268B1FA81F1B3FA9E
:1012400083F3DDF8288049095B09B2F5006F41EAB4
:10125000030165D131B137F8021BC1602763E08E0D
:101260000138E086012518F1010032D102E000BF0B
:10127000FFF762F9E08E18B9E08F002800F0B8801F
:101280002068816889070CD5E18E51B1012D08D104
:10129000216B002531F8022BC2602163E18E0139F8
:1012A000E1868168C907E3D0E18F0029E0D0C068FA
:1012B000A16B012521F8020BA163E08F0138E087C3
:1012C000D6E700BFFFF738F9A0EB0900404580F0F2
:1012D000AF80E08E18B9E08F002800F08980206888
:1012E000816889070CD5E18E51B1012D08D1216BA0
:1012F000002531F8022BC2602163E18E0139E186BD
:101300008168C907DED0E18F0029DBD0C068A16BFE
:10131000012521F8020BA163E08F0138E087D1E7B6
:1013200039B139780173206B01302063E08E0138C8
:10133000E086012518F1010032D101E0FFF7FCF849
:10134000E08E10B9E08F002852D0206881688907AC
:101350000ED5E18E61B1012D0AD1216B00250978EE
:101360000173216B206801312163E18E0139E1862F
:101370008168C907E2D0E18F0029DFD0C068A16B86
:1013800001250870A06B0130A063E08F0138E08771
:10139000D4E700BFFFF7D0F8A0EB0900404547D2E3
:1013A000E08E08B9E08F18B32068816889070ED5F0
:1013B000E18E61B1012D0AD1216B002509780173FD
:1013C000216B206801312163E18E0139E18681685A
:1013D000C907DFD0E18F0029DCD0C068A16B0125EF
:1013E0000870A06B0130A063E08F0138E087D1E77F
:1013F0002046022101224346CDF8009000F0D6FF9E
:1014000040B92046802100224346CDF8009000F0EC
:10141000CDFFB8B1606D40F02000606520206065B0
:10142000002084F85000012003B0BDE8F08300BF25
:10143000012084F85100002084F85000032003B0FC
:10144000BDE8F083A06838B9002002902068C16828
:101450000291806802900298012084F851000020D7
:1014600084F85000606D002818BF012003B0BDE86B
:10147000F0830000411E0020B0EB116F1CBF012063
:1014800070474EF21002CEF2000251604EF6235128
:10149000CEF20001F0230B700721906011607047BD
:1014A00090F83C20012A4FF0020242D010B580F89B
:1014B0003D200268D2F804E0D2F808C00C682EF093
:1014C0007003234340F6FF34C4F20004A242536089
:1014D00010DCB2F1804F1FD040F20043C4F2000391
:1014E0009A4219D040F60003C4F200039A4213D086
:1014F00017E000BF40F60043C4F200039A420BD04D
:1015000043F20043C4F201039A4205D042F600437D
:10151000C4F201039A4204D149682CF080031943B4
:1015200091600121002280F83D1080F83C20BDE848
:10153000104010467047000090F83C30012B04BF6B
:10154000022070474FEAB202032A00F21D812DE902
:10155000F041DFE802F003C7479100BF036843F2A0
:1015600000461D6A1A6A25F0020522F001021A627D
:101570001A465C6852F818CF8F68D1F800E0C4F2C0
:101580000106B34245EA070505D042F60047C4F21A
:101590000107BB4205D1CF6825F00C0527F00407F1
:1015A0003D43B34205D042F60046C4F20106B342C1
:1015B00005D1D1E9056724F4407434433C432CF051
:1015C000730747EA0E075C609F614F6809695F63B4
:1015D0001D629F6947F008079F619F6927F0040714
:1015E0009F61C6E0036843F200461D6A1A6A25F44B
:1015F000007522F480721A621A46D3F804C052F8B9
:101600001CEF8F68D1F80080C4F20106B34245EAAE
:10161000072505D042F60047C4F20107BB4208D1B6
:10162000CF6840F2FF443F0225F4406527EA0404F6
:101630002543B34205D042F60044C4F20104A3425C
:1016400006D1D1E905462CF44057264347EA061C4B
:101650002EF0730747EA0807C3F804C0DF614F683C
:101660000969DF631D62DF6947F00807DF61DF6931
:1016700027F00407DF617CE0036843F20047D3F8FA
:1016800020C01A6AC4F2010722F480521A621A4674
:101690005C6852F81C5FD1F800E08E68BB4205D050
:1016A00042F60047C4F20107BB4204D14F6924F45B
:1016B000804444EA87142CF4005747EA063725F49F
:1016C000E64646EA0E265C60DE614E6809691E64E5
:1016D0001F62DF6947F40067DF61DF6927F4806715
:1016E000DF6145E0036843F200481D6A1A6A25F08D
:1016F000200522F010021A621A465C6852F818CFD0
:101700008F68D1F800E0C4F20108434545EA0715A7
:1017100005D042F60047C4F20107BB4207D1CF68AB
:101720006FF0400625F0C00506EA0716354343452D
:1017300005D042F60046C4F20106B34206D1D1E913
:10174000056724F440643E4344EA86042CF4E647EB
:1017500047EA0E275C609F614F6809699F631D62BD
:101760009F6947F400679F619F6927F480679F61C5
:1017700009021368194311600021BDE8F0410022FD
:1017800080F83C20084670470121002280F83C2068
:1017900008467047002804BF0120704710B5044672
:1017A00090F83D0028B9002084F83C00204600F065
:1017B0001FF8022084F83D002068211D00F08CFEF7
:1017C000012084F8460084F83E0084F83F0084F845
:1017D000400084F8410084F8420084F8430084F813
:1017E000440084F8450084F83D00002010BD00004E
:1017F00083B0006840F60001C4F20001884227D09F
:1018000040F20041C4F20001884211D0B0F1804F93
:101810002BD141F21C00C4F20200016841F0010129
:101820000160006800F001000290029803B0704768
:1018300041F21C00C4F20200016841F002010160A3
:10184000006800F002000190019803B0704700BFEB
:1018500041F21C00C4F20200016841F00401016081
:10186000006800F004000090009803B0704700008A
:10187000C1B1042908D0082914BF41224022825C4A
:10188000012A05D016E000BF3F22825C012A11D157
:101890000222082910D0042914BF80F8412080F8C2
:1018A0003F200BE090F83E20012A03D1022280F86D
:1018B0003E2003E00120704780F84020006801F0DE
:1018C0001F010122036A02FA01F123EA0102026206
:1018D000026A114340F6FF32C4F2000290420162F4
:1018E0000EDCB0F1804F25D040F20041C4F200017F
:1018F00088421FD040F60001C4F2000118E000BF8A
:1019000040F60041C4F20001884213D043F2004285
:10191000C4F2010242F600419042C4F2010101D03A
:1019200088420ED1436C904243F40043436401D09B
:10193000884206D1816801F00701062904BF002012
:101940007047016841F0010101600020704700000C
:1019500010B5026801F01F0E4FF0010C146A0CFA6A
:101960000EF324EA0303136243F20044136AC4F241
:101970000104A242136205D042F60043C4F20103FF
:101980009A4209D1136A41F21114234204D1136A15
:1019900040F2444423420FD0136A41F2111423420F
:1019A00013D1136A40F2444423420ED1136823F04A
:1019B0000103136009E000BF536C23F40043536438
:1019C000136A41F211142342EBD0082912D00429E2
:1019D0000AD000294FF0010114BF80F8411080F8AF
:1019E0003E10002010BD00BF012180F83F100020F4
:1019F00010BD00BF012180F84010002010BD000084
:101A0000002804BF0120704710B5044690F841003B
:101A100028B9002084F84000204600F063F8242014
:101A200084F841002068D4E90212C36823F400530B
:101A3000C360036923F440531A430261D4E90423C9
:101A40001143C268194341F20C639A431143C160C8
:101A50004169A26921F44071114343F60002C4F2C6
:101A600001029042416103D0FEF7E2FF02E000BFB5
:101A7000FEF7F2FFD4E90023192148439900B0FB97
:101A8000F1F048F21F5CC5F2EB1CA0FB0C314FF6E5
:101A90009C734909C0F6FF7301FB0300322303EB7B
:101AA0000010A0FB0C03F02000EA531000EB011023
:101AB000C3F34311084490601069202120F4904042
:101AC0001061506920F02A005061D06840F4005045
:101AD000D0600020606484F8411084F84210606394
:101AE00010BD000070B586B0006844F60001C4F275
:101AF0000001002688420596CDE90366029635D09E
:101B000044F20041C4F2000188426BD141F2180056
:101B1000C4F20200416840F6000441F40031416023
:101B20004168C4F2010401F4003101910199016896
:101B300002AD41F0040101600068294600F0040094
:101B40000190019804200290022003900320059048
:101B50002046FEF7F1FB082002900020CDE90300AB
:101B600020462946FEF7E8FB06B070BD41F218009A
:101B7000C4F20200416802AD41F480214160416835
:101B800001F4802101910199016841F01001016087
:101B90000068294600F01000019001984FF4806021
:101BA0000290022003900320059040F60000C4F24A
:101BB000010000F500642046FEF7BEFB4FF4006014
:101BC000CDE90206204629460496FEF7B5FB04201F
:101BD000C4F20100016841F0E06141F0100121F020
:101BE0002001016006B070BD2DE9F04381B00446CC
:101BF00090F84100202809D100294FF0010018BFBA
:101C0000002A07D101B0BDE8F08300BF022001B077
:101C1000BDE8F0830020606421201D460E4684F854
:101C200041001746FEF788FCA784E784A168814637
:101C3000B1F5805F02D1206900285DD037460020D1
:101C4000E28C2168002A5DD06A1C24D0002D4AD085
:101C5000804600BF0868000608D4FEF76DFCA0EBC4
:101C60000900A8427AD82168C868F3E717B117F8C5
:101C7000010B04E038F8020B00276FF35F20486087
:101C8000E08C0138E084E08C0028E3D13AE000BF2A
:101C90000A68120609D40A68120606D40A681206EF
:101CA0005CBF0A685FEA0262F2D51FB117F8012B28
:101CB00005E000BF30F8022B00276FF35F224A6077
:101CC000E28C013AE284E28C002AE4D11AE000BFFF
:101CD00030F8022B00276FF35F224A60E28C013A52
:101CE000E284E28C72B10A68120635D5002FEFD07B
:101CF00017F8012BF1E700BF00273046E28C21687E
:101D0000002AA1D1086840061ED42DB3681C14D146
:101D1000086840062AD40868400627D408684006A8
:101D200024D4086840064FF00000F1D50DE000BF54
:101D30002068C1680068400618D4FEF7FDFBA0EBE0
:101D40000900A842F4D909E00020202184F84110BC
:101D500001B0BDE8F08300BFFEF7EEFB03202021B9
:101D600084F8411001B0BDE8F08300BF00202021BD
:101D700084F8411001B0BDE8F0830000FEE70000E8
:101D800080B5FEF7D9FB40F2EC03C2F200035860C5
:101D90004FF0000C41F20000C4F201004FF480410A
:101DA000012283F800C0BDE88040FEF7BFBB000001
:101DB00080B5FEF7C1FB40F2EC03C2F200035968A4
:101DC000411AB1F5FA7F38BF80BD19785860481EB6
:101DD000B0FA80F081F0010C420941F20000C4F237
:101DE00001004FF4804183F800C0BDE88040FEF759
:101DF0009DBB00002DE9F04786B0002441F2180099
:101E0000CDE90444CDE90244C4F20200016841F284
:101E1000000841F0100101600168C4F2010801F0FE
:101E20001001019101990168002241F02001016037
:101E3000016801F0200101910199016841F004015C
:101E40000160016801F0040101910199016841F00C
:101E50000801016000684FF4C04100F008000190E3
:101E600001984046FEF762FB40463C2101224FF0BC
:101E70000109FEF75BFBA8F5006528460121002259
:101E8000FEF754FBA8F58066304643F2210100229C
:101E9000FEF74CFB304690210122FEF747FB46F24D
:101EA0003C0002AFCDE902094FF0020A4046394634
:101EB0000494CDF814A0FEF73FFA4FF40040CDE9AA
:101EC0000204404639460494FEF736FA284639465D
:101ED000CDE90299CDE9044AFEF72EFA43F2B100AA
:101EE000CDE9020930463946CDE9044AFEF724FA25
:101EF0004FF44040CDE90204304639460494FEF7E1
:101F00001BFA4FF47070CDE9020440463946049440
:101F1000FEF712FA4FF4E050CDE9020428463946A4
:101F20000494FEF709FA06B0BDE8F08780B540F2E8
:101F3000181045F20041C2F20000C4F2000148F25C
:101F4000A06200234FF4804CC0F2010280E80E0032
:101F5000C0E9033CC0E90533C0E90733FEF7F2FAF4
:101F6000002808BF80BDBDE88040FEF7D1B9000061
:101F7000B0B540F26C1043F20001C2F20000C4F2AE
:101F800001014FF48272002380E80E0000F10C0181
:101F90004FF0020C4FF0010E4FF40074202581E841
:101FA00008500A21C0E90645C0E90833C0E90A31F2
:101FB000FEF766FF002808BFB0BDBDE8B040FEF7E1
:101FC000A7B90000B0B590B040F2C4100021C2F231
:101FD00000006325CDE90811CDE90611CDE9041112
:101FE0004FF080424723C0E9021501618021C0E91A
:101FF00000238161FFF7CEFB002818BFFEF788F9A8
:1020000040F2C410C2F2000008A9FFF749FA002804
:1020100018BFFEF77DF9602040F2C4140190322011
:10202000C2F200040290002501A920460422039573
:102030000595FFF781FA002818BFFEF769F92068B7
:1020400040F60001C4F2000188420F95CDE90D551C
:102050000C9529D040F20041C4F20001884217D00B
:10206000B0F1804F3AD141F21800C4F20200016889
:1020700041F0040101600068022100F004000B90AF
:102080000B9840F60040C4F20100A0F580601DE00E
:1020900041F21800C4F20200016841F00801016039
:1020A000006802210AE000BF41F21800C4F20200F9
:1020B000016841F0080101600068402100F008005B
:1020C0000B900B9840F60040C4F201000C910221E5
:1020D0000D9103210F910CA9FEF72EF910B0B0BDA0
:1020E00070B590B040F6004440F20C20C4F20104F8
:1020F0000021C2F2000040F2E736CDE90811CDE937
:102100000611CDE90411A4F584324723C0E9021673
:1021100001618021C0E900238161FFF73BFB0028BA
:1021200018BFFEF7F5F840F20C20C2F2000008A933
:10213000FFF7B6F9002818BFFEF7EAF8602040F272
:102140000C2501903220C2F200050290002601A960
:1021500028460C2203960596FFF7EEF9002818BFD3
:10216000FEF7D6F8286840F60001C4F20001884264
:102170000F96CDE90D660C962AD040F20041C4F2CC
:102180000001884214D0B0F1804F38D141F21800DC
:10219000C4F202000168A4F5806441F0040101600A
:1021A000006800F004000B900B9802201EE000BFB6
:1021B00041F21800C4F20200016841F00801016018
:1021C000006800F008000B900B9802200EE000BFA2
:1021D00041F21800C4F20200016841F008010160F8
:1021E000006800F008000B900B9840200C90022033
:1021F0000D9003200F900CA92046FEF79DF810B01B
:1022000070BD000070B590B040F6004440F254201C
:10221000C4F201040021C2F2000040F2E736CDE929
:102220000811CDE90611CDE90411A4F58232472346
:10223000C0E9021601618021C0E900238161FFF736
:10224000A9FA002818BFFEF763F840F25420C2F242
:10225000000008A9FFF724F9002818BFFEF758F876
:10226000602040F2542501903220C2F20005029015
:10227000002601A92846002203960596FFF75CF97F
:10228000002818BFFEF744F8286840F60001C4F2A1
:10229000000188420F96CDE90D660C962AD040F2D7
:1022A0000041C4F20001884214D0B0F1804F38D10F
:1022B00041F21800C4F202000168A4F5806441F004
:1022C00004010160006800F004000B900B980220EC
:1022D0001EE000BF41F21800C4F20200016841F0A4
:1022E00008010160006800F008000B900B980220C4
:1022F0000EE000BF41F21800C4F20200016841F094
:1023000008010160006800F008000B900B98402065
:102310000C9002200D9003200F900CA92046FEF790
:102320000BF810B070BD000080B540F29C2044F264
:102330000041C2F20000C4F2000100234FF00C0C77
:102340004FF4E13280E80E00C0E90333C0E905C371
:10235000C361FFF755FB002808BF80BDBDE8804082
:10236000FDF7D6BF80B540F2E42044F60001C2F28A
:102370000000C4F2000100234FF00C0C4FF4E132D6
:1023800080E80E00C0E90333C0E905C3C361FFF76D
:1023900037FB002808BF80BDBDE88040FDF7B8BF0F
:1023A000FEE70000FEE70000704700002DE9F04363
:1023B00081B0089C984615460E468146FEF7BCF84B
:1023C000201A00EB0804FEF7B7F840F20801C2F249
:1023D00000010968C1F3CB3161430091D9F80010C5
:1023E0008A683240921BB2FA82F2520995423DD07D
:1023F000074618F1010031D0FEF79EF8C01BA0423D
:1024000038D2009800990028A1F101010091D9F873
:102410000010896808BF044601EA0600801BB0FA74
:1024200080F040098542E7D120E000BF8868304055
:10243000801BB0FA80F04009854217D08868304090
:10244000801BB0FA80F0400985420FD08868304088
:10245000801BB0FA80F04009854207D08868304080
:10246000801BB0FA80F040098542DFD1002001B026
:10247000BDE8F083D9E900014268B1F5827F22F01E
:10248000E00242600BD1D9F80810B1F5004F02D03C
:10249000B1F5806F03D1016821F040010160D9F8E6
:1024A0002810B1F5005F07D1016821F400510160E7
:1024B000016841F400510160012089F851000020B9
:1024C00089F85000032001B0BDE8F0837047000098
:1024D000FEF72CB97047000010B540F6FF320368D4
:1024E000C4F2000240F6004E43F2004C9042C4F2A7
:1024F000000EC4F2010C21DCB0F1804F28D040F274
:102500000044C4F20004A04222D040F60004C4F209
:102510000004A0421CD0904220DCB0F1804F27D0B4
:1025200040F20042C4F20002904221D040F6000284
:10253000C4F2000290421BD01EE000BF704507D0DD
:10254000604505D042F60044C4F20104A042E2D145
:102550004C6823F0700323439042DEDD704507D0C2
:10256000604505D042F60042C4F20102904203D118
:10257000CA6823F4407313434C6923F08002D1F8F6
:1025800000E08B68224360450260C362C0F828E027
:1025900005D042F60042C4F20102904201D109691D
:1025A0000163012141610169C90708BF10BD0169CB
:1025B00021F00101016110BD2DE9F04385B0044611
:1025C0008DF80C100068A18800250022CDF80D5070
:1025D000FDF7ACFF40F26C19C2F2000903AE0DF139
:1025E00007074FF0FF38484631463A460523CDF8F5
:1025F0000080FEF7D5FD2068A1880122FDF796FF37
:102600002068A18800228DF810500395FDF78EFFF9
:10261000484631463A460523CDF80080FEF7C0FD16
:102620002068A1880122FDF781FF029800BA05B059
:10263000BDE8F08310B582B0044641F080008DF80B
:102640000300100E8DF80400100C8DF80500100A20
:102650008DF806002068A1888DF807200022FDF77C
:1026600065FF40F26C10C2F200000DF1030105227B
:102670004FF0FF33FEF796FC2068A1880122FDF79A
:1026800055FF02B010BD0000FEE7000090B0FEF75D
:102690005BF800240120CDE90B44CDE90944069004
:1026A0000A904FF4E0104FF4803102250F9006A8F5
:1026B000CDE90714CDE90D51FEF7E2F920B1EFF3B2
:1026C000108072B6FEE700BF0F20CDE901054FF480
:1026D0008060CDE9040401A802210394FEF7CAF842
:1026E00020B1EFF3108072B6FEE700BF40F60004A1
:1026F000C4F20104FFF77EFBFFF716FEFFF716FC9E
:10270000FFF736FCFFF75EFCFFF7EAFCFFF77AFD08
:10271000FFF728FEFFF734FB04F500652846282163
:1027200001224FF00109FDF701FF04F580663046F4
:1027300010210122FDF7FAFE2046012100224FF070
:10274000000AFDF7F3FE304601210022FDF7EEFE00
:102750003046202100220096FDF7E8FEFDF7ECFE52
:1027600040F2700BC2F2000BCBF83000FDF7E4FE34
:10277000CBF8340040F6260040F2E42743F2480646
:1027800040F2F408C2F22600C2F20007C0F60006CA
:10279000C2F200088BF80090CBF83800FFF708FB76
:1027A0003868016809070FD5CDF818A001680691AF
:1027B000416806910699D8F810100131C8F8101038
:1027C00002E000BF8BF827A00168890670D5416838
:1027D000D8F80C20CBB20132C8F80C208BF82410AA
:1027E0009BF827200AB9552BEED1012A01D1552B90
:1027F000E8D1531CDCB242440E2C8BF82730117503
:10280000E2D398F814200021552A8BF827102CD1F8
:1028100098F81520552A28D198F81620012A24D195
:1028200098F817200ABB98F81820F2B998F81920E0
:10283000DAB998F81A20C2B998F81B20AAB998F802
:102840001C2092B998F81D207AB998F81E2062B918
:1028500098F81F204AB998F82020AA2A05D198F89C
:102860002110AA39B1FA81F149098BF825109BF89A
:102870002510A9B1D8F8040043F22A010130C8F8A4
:1028800004003846C0F600010E226423FFF7ACF9BD
:10289000B0FA80F040098BF82600386894E700BF52
:1028A000D8F808100131C8F808108BF826A08BE77B
:1028B000FDF742FEDBF83010401A0A2876D3FDF708
:1028C0003BFECBF8300028464021FDF729FE8BF86F
:1028D0000100009C4FF400412046FDF721FE8BF8DB
:1028E000020020464FF48041FDF71AFE8BF80300EA
:1028F00028464FF40071FDF713FE8BF804002846BC
:102900004FF48071FDF70CFE8BF8050028468021FE
:10291000FDF706FE40F60004C4F201048BF8060041
:1029200020464FF48051FDF7FBFD8BF80700204651
:102930004FF40061FDF7F4FD8BF8080020464FF4DA
:102940008061FDF7EDFD8BF80900ABF828A09BF83E
:102950000100002800F072819BF80200002800F0BE
:1029600078819BF80300002800F07E819BF804002A
:10297000002800F084819BF80500002800F08A817F
:102980009BF80600002800F090819BF807000028C3
:1029900000F096819BF80800002800F09C819BF8CD
:1029A0000900002800F0A2818BF80A909BF8000033
:1029B00001284BD1FDF7C0FDDBF83410401A642824
:1029C00044D330460421FFF7F7FDCBF83C00DBF899
:1029D0003C0000F07F4000F15040B0FA80F0400928
:1029E0008BF80B008BF80C908BF800A09BF80B0079
:1029F00060B3304600210822FFF71CFE304600215C
:102A0000FFF7DAFDCBF84000DBF840000838B0FAF9
:102A100080F040098BF80D008BF80E909BF80D00AC
:102A2000A0B130460121FFF7C7FDCBF84400304686
:102A3000012107228BF80F90FFF7FCFDFDF77CFDCD
:102A4000CBF848008BF8109004E000BF9BF8100012
:102A5000012818D1FDF770FDDBF84810401A6428F2
:102A600011D330460121FFF7A7FDCBF84C00DBF86E
:102A70004C0000F0040089EA90008BF811008BF8FC
:102A800012908BF810A09BF8120010B19BF8130065
:102A900050B39BF8130098B39BF8140080BB3046EA
:102AA00010214FF44072FFF7C5FDDBF850200324DE
:102AB00064F3030230466C21FFF7BCFD30466C2105
:102AC000FFF77AFDCBF85400DBF85400DBF8501028
:102AD00064F30301401AB0FA80F040098BF8150046
:102AE0008BF814900CE000BF30466C21FFF764FDBA
:102AF000CBF850008BF813909BF813000028CBD133
:102B00009BF8150050B19BF816109BF81700002990
:102B100008BF002806D090B93BE000BF9BF8170023
:102B200068B936E0284608210022FDF7FFFCFDF7D2
:102B300003FDCBF858008BF817908BF81890FDF731
:102B4000FBFCDBF85810401AC82822D3304601217C
:102B5000FFF732FDCBF85C0030466F21FFF72CFD0C
:102B6000CBF86000DBF85C0000F00600B0FA80F003
:102B700040098BF819009BF8190030B92846082144
:102B80000122FDF7D3FC8BF818A08BF816908BF878
:102B900017A09BF8180038B19BF8190020B19BF8DA
:102BA0001A00002800F0AA809BF8180038B19BF8A2
:102BB0001C0020B19BF81D00002800F0C7809BF886
:102BC0001800002800F00E819BF82000002800F07B
:102BD00009819BF82100002840F004819BF8220025
:102BE000002800F0E180FDF7A7FCD8F80010401A9B
:102BF000B0F5966FC0F0F68040F2C410C2F200004B
:102C00000421CDE908AACDE906AAFEF7A1FE02201B
:102C100006A940F6000481E801060320C4F201047D
:102C20000990204606A9FDF787FB204602210022D5
:102C3000FDF77CFC8BF823A0D2E000BFBBF8280096
:102C400040F00100ABF828009BF8020000287FF458
:102C500088AEBBF8280040F00200ABF828009BF8D3
:102C6000030000287FF482AEBBF8280040F0040087
:102C7000ABF828009BF8040000287FF47CAEBBF87A
:102C8000280040F00800ABF828009BF80500002859
:102C90007FF476AEBBF8280040F01000ABF82800B7
:102CA0009BF8060000287FF470AEBBF8280040F0C7
:102CB0002000ABF828009BF8070000287FF46AAEDC
:102CC000BBF8280040F04000ABF828009BF8080053
:102CD00000287FF464AEBBF8280040F08000ABF819
:102CE00028009BF8090000287FF45EAEBBF828009E
:102CF00040F48070ABF8280056E600BF9BF81B003C
:102D0000012800F08780002840F08C80022006A96E
:102D100040F6000481E801060320C4F20104099092
:102D2000204606A9FDF708FB204601210022FDF7F9
:102D3000FDFB204602210022FDF7F8FBFDF7FCFB1E
:102D4000CBF864008BF81B902EE700BF9BF81E00A9
:102D5000012800F09780002840F09C80022006A9FE
:102D600040F6000481E801060320C4F20104099042
:102D7000204606A9FDF7E0FA204601210022FDF7D2
:102D8000D5FB204602210022FDF7D0FB30466A2108
:102D9000FFF712FCCBF87000FDF7CEFBCBF8740008
:102DA0008BF81E900BE700BF40F60004C4F201044C
:102DB000204601210022FDF7B9FB20460221002216
:102DC000FDF7B4FBFDF7B8FBC8F8000040F2C410F3
:102DD000C2F200000421FEF74BFD002800F09280B3
:102DE0008BF821909BF8180000283FF4D7ACFDF732
:102DF000A3FBDBF85810401A41F270718842FFF4CF
:102E0000CDAC284608210122FDF790FB8BF818A0D5
:102E1000C4E400BFFDF790FBDBF8641088427DD16D
:102E20009BF81B00022808D1FDF786FBDBF8641035
:102E3000884240F099809BF81B0003287FF4B4AED1
:102E4000FDF77AFBDBF8641088423FF4ADAE304604
:102E50006A21CDE908AACDE906AAFFF7ADFBCBF8B8
:102E60006C00DBF86C00DBF86810401A6FF39F20F1
:102E7000ABF82A00BBF82A00012840F09580012019
:102E800099E000BFFDF758FBDBF8741088425BD176
:102E90009BF81E00022807D1FDF74EFBDBF87410EB
:102EA000884271D19BF81E0003287FF488AEFDF79D
:102EB00043FBDBF87410401A3128FFF480AE9BF816
:102EC0001F000130C1B210298BF81F00FFF468AF5A
:102ED00030466A21CDE908AACDE906AAFFF76CFBC6
:102EE000CBF87800DBF87800DBF87010401A6FF34D
:102EF0009F20ABF82C00BBF82C0010286ED10120CD
:102F000073E000BF8BF823908BF822909BF8180099
:102F100000287FF46CAFFFF741BC00BF30466A2148
:102F2000FFF74AFBCBF8680040F60000C4F201004E
:102F300002210122FDF7FAFAFDF7FEFACBF8640050
:102F400002208BF81B002FE640F60000C4F20100BF
:102F500002210122FDF7EAFAFDF7EEFACBF8740040
:102F600002208BF81E002AE640F60000C4F20100A1
:102F700002210022FDF7DAFAFDF7DEFACBF8640051
:102F800003208BF81B000FE640F60000C4F201009E
:102F900002210022FDF7CAFAFDF7CEFACBF8740041
:102FA00003208BF81E000AE6BBF82A00A0F2FF30CF
:102FB000B0FA80F040098BF81C0002208BF81A90C0
:102FC000CDE906000320099040F60000C4F201009C
:102FD00006A9CDF820A0FDF7AFF9E5E5BBF82C0078
:102FE000A0F57C70B0FA80F040098BF82000022038
:102FF0008BF81D90CDE906000320099040F60000F3
:10300000C4F2010006A9CDF820A0FDF795F9D6E598
:103010000000000000000000010203040607080988
:1030200000000000010203040102AAAA010000003E
:1030300000000000000055550203040506070809BA
:103040000A0B0C0D0E0F10100010014004000000C0
:103050000010014008000000783000080000002047
:1030600010000000940100088830000810000020C3
:1030700020090000B4010008010000001000000059
:0830800000127A0000000000BC
:0400000508000131BD
:00000001FF
