:020000040800F2
:10000000C8080020F9010008491D00081D17000854
:10001000451D0008B50200083D1E00080000000054
:10002000000000000000000000000000511D00085A
:10003000B9020008000000004D1D0008551D000811
:10004000130200081302000813020008130200083C
:10005000130200081302000813020008130200082C
:10006000130200081302000813020008130200081C
:10007000130200081302000813020008130200080C
:1000800013020008130200081302000813020008FC
:10009000130200081302000813020008ED02000812
:1000A00013020008130200081302000813020008DC
:1000B00013020008130200081302000813020008CC
:1000C00013020008130200081302000813020008BC
:1000D00013020008130200081302000813020008AC
:1000E000BD020008130200081302000813020008F2
:1000F000130200081302000813020008130200088C
:10010000130200081302000813020008130200087B
:10011000130200081302000813020008130200086B
:10012000130200081302000813020008130200085B
:1001300000F002F800F050F814A696E8000CB24463
:10014000B344DA4501D100F047F8BAE80F000FA632
:1001500096E83000A5EB040504EB0607AAEB0704BC
:10016000A7F101074FEA15154FEA3414A4F1010471
:10017000AC4201D300F030F813F0010F18BFFB1AA6
:1001800043F0010300F001F8DBE71847F81F000017
:1001900018200000103A24BF78C878C1FAD8520756
:1001A00024BF30C830C144BF04680C6070470000F1
:1001B000704700000023002400250026103A28BFC5
:1001C00078C1FBD8520728BF30C148BF0B607047C9
:1001D0001FB51FBD10B510BD00F031F81146FFF777
:1001E000F7FF01F02DFE00F04FF803B4FFF7F2FF28
:1001F00003BC00F057F80000094880470948004751
:10020000FEE7FEE7FEE7FEE7FEE7FEE7FEE7FEE7C6
:10021000FEE7FEE704480549054A064B7047000023
:10022000591D000831010008C8020020C80800203C
:10023000C8040020C8040020704770477047754606
:1002400000F02CF8AE4605006946534620F0070042
:10025000854618B020B5FFF7DDFFBDE820404FF020
:1002600000064FF000074FF000084FF0000BAC46BF
:10027000ACE8C009ACE8C009ACE8C009ACE8C0090A
:1002800021F007018D46704710B50446AFF300809A
:100290002046BDE81040FFF7A8BF000000487047A7
:1002A0001000002001491820ABBEFEE72600020026
:1002B00070470000FEE700007047000080B54FF473
:1002C000806000F02DF84FF4006000F029F84FF442
:1002D000805000F025F84FF4804000F021F84FF4F2
:1002E0000040BDE8804000F01BB8000080B5402011
:1002F00000F016F8802000F013F84FF4807000F042
:100300000FF84FF40070BDE8804000F009B800001D
:10031000EFF3108072B600BFFEE7000070470000E8
:1003200040F21441C4F201010A68024214BF08609D
:100330007047FFF7F3BF00002DE9F04F82B00E6861
:10034000002E00F0E980A0F1804241F6004540F225
:100350000043A2F58432C4F201050624C4F201036D
:100360004FEAB227A84208BF05244FF0000E4FF015
:1003700001080F254FF0000A4FF0000B052F38BF82
:100380004FEAB224009408E00E680AF1010A36FA36
:100390000AF20EF1040E00F0BF8008FA0AFC16EA19
:1003A0000C09F1D04E684FF6FF72C1F2100296426E
:1003B00012DC122E56D8DFE806F0350B4D495555A4
:1003C000555555555555555555555545510000BF31
:1003D000D1F80CB046E000BF4FF6FF72C1F2210227
:1003E00096420FDC0022C1F2110296421AD000227E
:1003F000C1F21202964215D00022C1F221029642A9
:1004000010D02FE00022C1F2220296420AD0002230
:10041000C1F23102964205D00022C1F23202964268
:1004200020D100BF8A684AB1012A14BFC0F814C0A5
:10043000C0F810C04FF0080B14E000BF4FF0040BE1
:1004400010E000BFCA6802F1040B0BE04FF0000B94
:1004500008E000BFCA6802F1080B03E0CA6802F1B5
:100460000C0B00BF02467446B9F5807F24BF0432EE
:10047000203C166805FA04F726EA07070BFA04F68B
:1004800037431760CA79D2067FF57EAF41F218076D
:10049000C4F202073A684FF6084542F001023A609A
:1004A0003A68CFF6FF7502F001020192019A2AF034
:1004B00003021A440F2457590EF00C06B440A74308
:1004C000009C04FA06F6374357514E6840F20C443C
:1004D000F2029A6854BF22EA090242EA0902C4F20F
:1004E00001049A602268B70254BF22EA090242EA74
:1004F000090222605A68B70354BF22EA090242EA9D
:1005000009025A600F251A68F70354BF22EA09024C
:1005100042EA09021A6037E702B0BDE8F08F000036
:100520008068084018BF012070470000002A08BFFB
:10053000090401617047000040F2C420C2F20000CB
:1005400000687047002804BF01207047F0B581B0F3
:10055000044690F83D0028B9002084F83C0020466D
:1005600000F0A2F8242084F83D002068016821F002
:1005700001010160016841F400410160016821F45A
:100580000041016000F054FA636848F2A16CC0F2C7
:10059000010C40F60011C0F23D0163453CBF48F23A
:1005A0008041C0F21E01884202D2012001B0F0BD9C
:1005B0004DF68361C4F21B31A0FB01122168970C38
:1005C000D1F804E04FF496762EF03F0545EA9245C7
:1005D0004D60774348F638160D6AC0F24106A7FB16
:1005E000067625F03F07634538BF960C721C3A43E8
:1005F0000A62CA6948F2A0664CF6FF77C0F20106AB
:10060000B34222EA07020BD801385B00B0FBF3F0DB
:1006100001306FF31F30042898BF04201BE000BF97
:10062000A768013857B119277B43B0FBF3F00130BD
:100630006FF31F3070B100F5804007E003EB430318
:10064000B0FBF3F001306FF31F3018B100F500403C
:1006500001E000BF01201043C8610868D4E9072306
:1006600020F0C000104318430860886848F2FF3249
:1006700004F10C0790438CCF18431043A66988609F
:10068000C86820F0FF0038433043C860086840F075
:100690000100086000202021206484F83D102063C0
:1006A00084F83E0001B0F0BD10B586B0006845F298
:1006B0000041C4F2000188424FF00000CDE904007F
:1006C000CDE9020002D006B010BD00BF41F218040F
:1006D000C4F20204206802A940F0080020602068EB
:1006E00000F00800019001984FF440700290122031
:1006F00003900320059040F60040C4F20100FFF78C
:100700001BFE0420C4F20100016841F0E06141F0E9
:1007100002010160606840F400106060606800F4ED
:1007200000100190019806B010BD000040F20000DA
:1007300040F2C421C2F20000C2F2000100780A684F
:10074000104408607047000080B542F20000C4F217
:100750000200016841F010010160032000F07AF806
:100760000F2000F005F800F027F8002080BD000001
:1007700070B540F20006C2F2000640F2080132787D
:10078000C2F200014FF47A730968B3FBF2F2044637
:10079000B1FBF2F1084600F005FC0F2C4FF001050B
:1007A00008D838B94FF0FF3021460022002500F06C
:1007B00025F87460284670BD82B041F21800C4F27A
:1007C00002000168022241F001010160016801F0AC
:1007D000010101910199416841F0805141604068F7
:1007E00000F08050009000980420C4F201000168DD
:1007F00062F31A61016002B07047000010B54EF656
:100800000C5CCEF2000CDCF80030C3F3022E8EF04C
:100810000704042C28BF0424BEF103034FF0FF3E5D
:100820000EFA04F438BF0023A14399400EFA03F3F3
:100830009A43114300F00F0200F160430901043AAA
:1008400003F564436244002848BF02F10C031970A9
:1008500010BD00004EF60C51CEF200010A684FF6B2
:10086000FF031A4060F30A2242F0806040F0FD70FE
:1008700008607047002804BF012070472DE9F0434D
:1008800081B042F20008C4F202080446D8F8000021
:100890000D4600F0070081420CD9D8F8000020F086
:1008A00007002843C8F80000D8F8000000F007004F
:1008B000A8426CD1206841F204098107C4F2020900
:1008C00017D5410705D5D9F8001041F4E061C9F802
:1008D0000010010705D5D9F8001041F46051C9F89E
:1008E0000010D9F80010A26821F0F0011143C9F8F6
:1008F0000010C00742D1D8F8000000F00700854280
:100900000CD2D8F8000020F007002843C8F80000F7
:10091000D8F8000000F00700A84238D1206841074D
:1009200007D5D9F80010E26821F4E0611143C9F855
:100930000010000708D5D9F80000216920F46050A4
:1009400040EAC100C9F80000D9F8002002F00C000C
:10095000082841F20020C0F27A004DD142F274130F
:10096000C2F38341C0F60003595CD20338D440F689
:100970000010C0F23D0048433EE000BF606859F8F7
:10098000041C022808D0012826D1890306D401209E
:1009900001B0BDE8F08300BF8901F8D5D9F8001097
:1009A00021F003010843C9F80000FFF7C5FD064622
:1009B00041F28837D9F80000616800F00C00B0EB14
:1009C000810F98D0FFF7B8FD801BB842F2D9032001
:1009D00001B0BDE8F08300BF8907D8D5DEE700BFCE
:1009E000D9F8002042F26413C2F34042C0F600037B
:1009F0009A5C4843B0FBF2F0D9F8001042F24C1276
:100A0000C1F30311C0F60002515C40F2080220FA63
:100A100001F140F20400C2F200000068C2F20002DC
:100A20001160FFF7A5FE002001B0BDE8F0830000D3
:100A300040F2080041F20401C2F20000C4F20201D7
:100A40000068096842F25C12C1F30221C0F600029C
:100A5000515CC8407047000040F2080041F20401B8
:100A6000C2F20000C4F202010068096842F25C129E
:100A7000C1F3C221C0F60002515CC84070470000BB
:100A8000002804BF012070472DE9F04182B00446E0
:100A9000007841F20006C007C4F202060CD070686C
:100AA00000F00C00042840F081803068800303D5FA
:100AB0006068002800F04681207880071BD57068A8
:100AC00010F00C0F09D0706800F00C00082840F0FE
:100AD00087807068C00300F183803068800703D589
:100AE0002069012840F02E813068616920F0F8000B
:100AF00040EAC10030602078000713D42078400716
:100B00002CD4E569002D00F01881706800F00C000D
:100B1000082840F0A780012D40F00481012002B098
:100B2000BDE8F081A069002800F084800020C4F2B4
:100B300042200121C0F88014FFF7FEFC054600BFEB
:100B4000706A800700F1B280FFF7F6FC401B0228B4
:100B5000F6D9032002B0BDE8F08100BFF0695FEA7A
:100B6000C00808D4F06940F08050F061F06900F0EE
:100B700080500090009847F20007C4F200073868E0
:100B8000C00549D4386840F480703860FFF7D4FC61
:100B9000054600BF3868C0053ED4FFF7CDFC401BBA
:100BA0006428F7D9032002B0BDE8F081706800F036
:100BB0000C00082803D17068C0033FF576AF616868
:100BC0003068002900F00C81B1F5A02F00F0008101
:100BD000B1F5803F40F01A8140F480301CE100BF45
:100BE0002069002840F20000C4F2422000F0888012
:100BF00001210160FFF7A0FC054600BF30688007B7
:100C00003FF572AFFFF798FC401B0228F6D903208E
:100C100002B0BDE8F08100BFE168306A002900F051
:100C20009D80052900F09280012940F0AF8040F0BE
:100C30000100B1E00020C4F242200021C0F880147D
:100C4000FFF77AFC054600BF706A80077FF556AF54
:100C5000FFF772FC401B0228F6D9032002B0BDE862
:100C6000F08100BF0027C4F2422700203866FFF75A
:100C700063FC022D05460DD13068800140F1DE8015
:100C8000FFF75AFC401B02284FF00300F4D902B0D2
:100C9000BDE8F081306880014FD5FFF74DFC401B67
:100CA00002284FF00300F5D9F1E700BF40F2080039
:100CB000C2F20000006844F6D351C1F26201A0FB09
:100CC0000101480A019000BF00BF0198411E0028A1
:100CD00001913FF413AF00BF0198411E002801911C
:100CE0003FF40CAF00BF0198411E002801913FF472
:100CF00005AF00BF0198411E00280191E4D1FDE637
:100D000000210160FFF718FC054600BF306880072E
:100D10007FF5F1AEFFF710FC401B02284FF00300F7
:100D2000F4D9B4E77068216A00F480328A4209D1AC
:100D3000616A00F47010884204D1002002B0BDE85E
:100D4000F08100BF012002B0BDE8F08140F0040056
:100D50003062306A40F001001EE000BF20F0010068
:100D60003062306A20F004003062FFF7E5FB054690
:100D700041F28837306A800720D5FFF7DDFB401B42
:100D8000B8424FF00300F5D981E700BF20F0010021
:100D90003062306A20F004003062FFF7CDFB054678
:100DA00041F28837306A800708D4FFF7C5FB401B43
:100DB000B842F7D9032002B0BDE8F081B8F1000FC6
:100DC0003FF59FAEF06920F08050F06199E600BFDA
:100DD00040F480203060306840F480301CE000BF78
:100DE00020F480303060306820F480203060FFF7DD
:100DF000A3FB0546306880037FF55EAEFFF79CFBE2
:100E0000401B64284FF00300F4D940E720F4803001
:100E10003060306820F480203060FFF78DFB05469D
:100E2000306880033FF548AEFFF786FB401B64281F
:100E3000F6D9032002B0BDE8F08100BF206AB0F50A
:100E4000803F05D17168A26821F4003111437160BF
:100E50007168626A21F474111143084370600120C3
:100E60003866FFF769FB0446306880013FF565AFDF
:100E7000FFF762FB001B02284FF00300F4D906E7DE
:100E800070B528B1416A29B100210161142106E041
:100E9000012070BD4168B1F5827F02D01C21002283
:100EA00042500026866290F8511029B980F85060AF
:100EB000054600F039F82846022180F8511090E8E4
:100EC0002E0002F482720C6803F4044324F0400400
:100ED0000C601A4405F4006305691A4405F0020326
:100EE00045691A4405F001038569C4691A4405F48B
:100EF00000731A4404F03803046A1A4404F08003AF
:100F0000846A1A4304F400531A430A60042202EA72
:100F100015424A60CA6922F40062CA61012146652D
:100F200080F85110304670BD70B586B040F60004B0
:100F3000C4F20104006804F5205100268842059699
:100F4000CDE90366029601D006B070BD41F21800EB
:100F5000C4F20200016802AD41F4805101600168F1
:100F600001F4805101910199016841F0040101608F
:100F70000068294600F0040001900198A02002902A
:100F800002200390032005902046FFF7D5F940206A
:100F9000CDE902060120049020462946FFF7CCF94E
:100FA00006B070BD411E0020B0EB116F1CBF0120C8
:100FB00070474EF21002CEF2000251604EF62351FD
:100FC000CEF20001F0230B70072190601160704792
:100FD00090F83C20012A4FF0020242D010B580F870
:100FE0003D200268D2F804E0D2F808C00C682EF068
:100FF0007003234340F6FF34C4F20004A24253605E
:1010000010DCB2F1804F1FD040F20043C4F2000365
:101010009A4219D040F60003C4F200039A4213D05A
:1010200017E000BF40F60043C4F200039A420BD021
:1010300043F20043C4F201039A4205D042F6004352
:10104000C4F201039A4204D149682CF08003194389
:1010500091600121002280F83D1080F83C20BDE81D
:10106000104010467047000090F83C30012B04BF40
:10107000022070474FEAB202032A00F21D812DE9D7
:10108000F041DFE802F003C7479100BF036843F275
:1010900000461D6A1A6A25F0020522F001021A6252
:1010A0001A465C6852F818CF8F68D1F800E0C4F295
:1010B0000106B34245EA070505D042F60047C4F2EF
:1010C0000107BB4205D1CF6825F00C0527F00407C6
:1010D0003D43B34205D042F60046C4F20106B34296
:1010E00005D1D1E9056724F4407434433C432CF026
:1010F000730747EA0E075C609F614F6809695F6389
:101100001D629F6947F008079F619F6927F00407E8
:101110009F61C6E0036843F200461D6A1A6A25F41F
:10112000007522F480721A621A46D3F804C052F88D
:101130001CEF8F68D1F80080C4F20106B34245EA83
:10114000072505D042F60047C4F20107BB4208D18B
:10115000CF6840F2FF443F0225F4406527EA0404CB
:101160002543B34205D042F60044C4F20104A34231
:1011700006D1D1E905462CF44057264347EA061C20
:101180002EF0730747EA0807C3F804C0DF614F6811
:101190000969DF631D62DF6947F00807DF61DF6906
:1011A00027F00407DF617CE0036843F20047D3F8CF
:1011B00020C01A6AC4F2010722F480521A621A4649
:1011C0005C6852F81C5FD1F800E08E68BB4205D025
:1011D00042F60047C4F20107BB4204D14F6924F430
:1011E000804444EA87142CF4005747EA063725F474
:1011F000E64646EA0E265C60DE614E6809691E64BA
:101200001F62DF6947F40067DF61DF6927F48067E9
:10121000DF6145E0036843F200481D6A1A6A25F061
:10122000200522F010021A621A465C6852F818CFA4
:101230008F68D1F800E0C4F20108434545EA07157C
:1012400005D042F60047C4F20107BB4207D1CF6880
:101250006FF0400625F0C00506EA07163543434502
:1012600005D042F60046C4F20106B34206D1D1E9E8
:10127000056724F440643E4344EA86042CF4E647C0
:1012800047EA0E275C609F614F6809699F631D6292
:101290009F6947F400679F619F6927F480679F619A
:1012A00009021368194311600021BDE8F0410022D2
:1012B00080F83C20084670470121002280F83C203D
:1012C00008467047002804BF0120704710B5044647
:1012D00090F83D0028B9002084F83C00204600F03A
:1012E0001FF8022084F83D002068211D00F036FD23
:1012F000012084F8460084F83E0084F83F0084F81A
:10130000400084F8410084F8420084F8430084F8E7
:10131000440084F8450084F83D00002010BD000022
:1013200083B0006840F60001C4F20001884227D073
:1013300040F20041C4F20001884211D0B0F1804F68
:101340002BD141F21C00C4F20200016841F00101FE
:101350000160006800F001000290029803B070473D
:1013600041F21C00C4F20200016841F00201016078
:10137000006800F002000190019803B0704700BFC0
:1013800041F21C00C4F20200016841F00401016056
:10139000006800F004000090009803B0704700005F
:1013A000002804BF0120704710B5044690F84100A2
:1013B00028B9002084F84000204600F063F824207B
:1013C00084F841002068D4E90212C36823F4005372
:1013D000C360036923F440531A430261D4E9042330
:1013E0001143C268194341F20C639A431143C1602F
:1013F0004169A26921F44071114343F60002C4F22D
:1014000001029042416103D0FFF712FB02E000BFEE
:10141000FFF722FBD4E90023192148439900B0FBD0
:10142000F1F048F21F5CC5F2EB1CA0FB0C314FF64B
:101430009C734909C0F6FF7301FB0300322303EBE1
:101440000010A0FB0C03F02000EA531000EB011089
:10145000C3F34311084490601069202120F49040A8
:101460001061506920F02A005061D06840F40050AB
:10147000D0600020606484F8411084F842106063FA
:1014800010BD000070B586B0006844F60001C4F2DB
:101490000001002688420596CDE90366029635D004
:1014A00044F20041C4F2000188426BD141F21800BD
:1014B000C4F20200416840F6000441F4003141608A
:1014C0004168C4F2010401F40031019101990168FD
:1014D00002AD41F0040101600068294600F00400FB
:1014E00001900198042002900220039003200590AF
:1014F0002046FEF721FF082002900020CDE90300DE
:1015000020462946FEF718FF06B070BD41F21800CC
:10151000C4F20200416802AD41F48021416041689B
:1015200001F4802101910199016841F010010160ED
:101530000068294600F01000019001984FF4806087
:101540000290022003900320059040F60000C4F2B0
:10155000010000F500642046FEF7EEFE4FF4006047
:10156000CDE90206204629460496FEF7E5FE042052
:10157000C4F20100016841F0E06141F0100121F086
:101580002001016006B070BD2DE9F04381B0044632
:1015900090F84100202809D100294FF0010018BF20
:1015A000002A07D101B0BDE8F08300BF022001B0DE
:1015B000BDE8F0830020606421201D460E4684F8BB
:1015C00041001746FEF7B8FFA784E784A16881466B
:1015D000B1F5805F02D1206900285DD03746002038
:1015E000E28C2168002A5DD06A1C24D0002D4AD0EC
:1015F000804600BF0868000608D4FEF79DFFA0EBF8
:101600000900A8427AD82168C868F3E717B117F82B
:10161000010B04E038F8020B00276FF35F204860ED
:10162000E08C0138E084E08C0028E3D13AE000BF90
:101630000A68120609D40A68120606D40A68120655
:101640005CBF0A685FEA0262F2D51FB117F8012B8E
:1016500005E000BF30F8022B00276FF35F224A60DD
:10166000E28C013AE284E28C002AE4D11AE000BF65
:1016700030F8022B00276FF35F224A60E28C013AB8
:10168000E284E28C72B10A68120635D5002FEFD0E1
:1016900017F8012BF1E700BF00273046E28C2168E4
:1016A000002AA1D1086840061ED42DB3681C14D1AD
:1016B000086840062AD40868400627D4086840060F
:1016C00024D4086840064FF00000F1D50DE000BFBB
:1016D0002068C1680068400618D4FEF72DFFA0EB13
:1016E0000900A842F4D909E00020202184F8411023
:1016F00001B0BDE8F08300BFFEF71EFF03202021EC
:1017000084F8411001B0BDE8F08300BF0020202123
:1017100084F8411001B0BDE8F0830000FEE700004E
:1017200080B5FEF709FF40F2A803C2F2000358603B
:101730004FF0000C41F20000C4F201004FF4804170
:10174000012283F800C0BDE88040FEF7EFBE000034
:1017500080B5FEF7F1FE40F2A803C2F2000359681B
:10176000411AB1F5FA7F38BF80BD19785860481E1C
:10177000B0FA80F081F0010C420941F20000C4F29D
:1017800001004FF4804183F800C0BDE88040FEF7BF
:10179000CDBE00002DE9F04786B0002441F21800CC
:1017A000CDE90444CDE90244C4F20200016841F2EB
:1017B000000841F0100101600168C4F2010801F065
:1017C0001001019101990168002241F0200101609E
:1017D000016801F0200101910199016841F00401C3
:1017E0000160016801F0040101910199016841F073
:1017F0000801016000684FF4C04100F0080001904A
:1018000001984046FEF792FE40463C2101224FF0EF
:101810000109FEF78BFEA8F500652846012100228C
:10182000FEF784FEA8F58066304643F221010022CF
:10183000FEF77CFE304690210122FEF777FE46F24D
:101840003C0002AFCDE902094FF0020A404639469A
:101850000494CDF814A0FEF76FFD4FF40040CDE9DD
:101860000204404639460494FEF766FD2846394690
:10187000CDE90299CDE9044AFEF75EFD43F2B100DD
:10188000CDE9020930463946CDE9044AFEF754FD58
:101890004FF44040CDE90204304639460494FEF747
:1018A0004BFD4FF47070CDE9020440463946049474
:1018B000FEF742FD4FF4E050CDE9020428463946D8
:1018C0000494FEF739FD06B0BDE8F08780B540F21C
:1018D000B00045F20041C2F20000C4F2000148F23B
:1018E000A06200234FF4804CC0F2010280E80E0099
:1018F000C0E9033CC0E90533C0E90733FEF722FE27
:10190000002808BF80BDBDE88040FEF701BD000093
:10191000B0B540F2041043F20001C2F20000C4F27C
:1019200001014FF48272002380E80E0000F10C01E7
:101930004FF0020C4FF0010E4FF40074202581E8A7
:1019400008500A21C0E90645C0E90833C0E90A3158
:10195000FFF796FA002808BFB0BDBDE8B040FEF71B
:10196000D7BC0000B0B590B040F25C100021C2F2CC
:10197000000040F2E735CDE90811CDE90611CDE9C7
:1019800004114FF080424723C0E902150161802114
:10199000C0E900238161FFF795FC002818BFFEF71E
:1019A000B7FC40F25C10C2F2000008A9FFF710FB80
:1019B000002818BFFEF7ACFC602040F25C140190D8
:1019C0003220C2F200040290002501A92046042220
:1019D00003950595FFF748FB002818BFFEF798FC14
:1019E000206840F60001C4F2000188420F95CDE95D
:1019F0000D550C952AD040F20041C4F200018842F6
:101A000018D0B0F1804F3BD141F21800C4F202006F
:101A1000016841F0040101600068022100F0040047
:101A20000B900B9840F60040C4F20100A0F58060D6
:101A30001EE000BF41F21800C4F20200016841F04C
:101A400008010160006802210AE000BF41F21800AD
:101A5000C4F20200016841F0080101600068402101
:101A600000F008000B900B9840F60040C4F2010013
:101A70000C9102210D9103210F910CA9FEF75CFC42
:101A800010B0B0BD70B590B040F6004440F2A41064
:101A9000C4F201040021C2F2000040F2E736CDE9B1
:101AA0000811CDE90611CDE90411A4F584324723CC
:101AB000C0E9021601618021C0E900238161FFF7BE
:101AC00001FC002818BFFEF723FC40F2A410C2F26C
:101AD000000008A9FFF77CFA002818BFFEF718FCE1
:101AE000602040F2A41501903220C2F2000502905D
:101AF000002601A928460C2203960596FFF7B4FAA2
:101B0000002818BFFEF704FC286840F60001C4F264
:101B1000000188420F96CDE90D660C962AD040F25E
:101B20000041C4F20001884214D0B0F1804F38D196
:101B300041F21800C4F202000168A4F5806441F08B
:101B400004010160006800F004000B900B98022073
:101B50001EE000BF41F21800C4F20200016841F02B
:101B600008010160006800F008000B900B9802204B
:101B70000EE000BF41F21800C4F20200016841F01B
:101B800008010160006800F008000B900B984020ED
:101B90000C9002200D9003200F900CA92046FEF718
:101BA000CBFB10B070BD000070B590B040F60044A3
:101BB00040F2EC10C4F201040021C2F2000040F235
:101BC000E736CDE90811CDE90611CDE90411A4F5F8
:101BD00082324723C0E9021601618021C0E9002357
:101BE0008161FFF76FFB002818BFFEF791FB40F201
:101BF000EC10C2F2000008A9FFF7EAF9002818BFAC
:101C0000FEF786FB602040F2EC1501903220C2F214
:101C100000050290002601A9284600220396059699
:101C2000FFF722FA002818BFFEF772FB286840F67B
:101C30000001C4F2000188420F96CDE90D660C96B2
:101C40002AD040F20041C4F20001884214D0B0F121
:101C5000804F38D141F21800C4F202000168A4F5A7
:101C6000806441F004010160006800F004000B9002
:101C70000B9802201EE000BF41F21800C4F20200DF
:101C8000016841F008010160006800F008000B9055
:101C90000B9802200EE000BF41F21800C4F20200CF
:101CA000016841F008010160006800F008000B9035
:101CB0000B9840200C9002200D9003200F900CA94F
:101CC0002046FEF739FB10B070BD000080B540F231
:101CD000342044F20041C2F20000C4F200010023AB
:101CE0004FF00C0C4FF4E13280E80E00C0E90333F2
:101CF000C0E905C3C361FFF753FB002808BF80BDDF
:101D0000BDE88040FEF704BB80B540F27C2044F67D
:101D10000001C2F20000C4F2000100234FF00C0CDD
:101D20004FF4E13280E80E00C0E90333C0E905C397
:101D3000C361FFF735FB002808BF80BDBDE88040C8
:101D4000FEF7E6BAFEE70000FEE70000704700007D
:101D500070470000FEF7EABC7047000010B540F67F
:101D6000FF320368C4F2000240F6004E43F2004C1A
:101D70009042C4F2000EC4F2010C21DCB0F1804F9D
:101D800028D040F20044C4F20004A04222D040F621
:101D90000004C4F20004A0421CD0904220DCB0F148
:101DA000804F27D040F20042C4F20002904221D07E
:101DB00040F60002C4F2000290421BD01EE000BFB9
:101DC000704507D0604505D042F60044C4F20104D6
:101DD000A042E2D14C6823F0700323439042DEDD41
:101DE000704507D0604505D042F60042C4F20102BA
:101DF000904203D1CA6823F4407313434C6923F023
:101E00008002D1F800E08B68224360450260C36223
:101E1000C0F828E005D042F60042C4F20102904228
:101E200001D109690163012141610169C90708BF45
:101E300010BD016921F00101016110BDFEE7000044
:101E400090B0FEF781FC00240120CDE90B44CDE9E0
:101E5000094406900A904FF4E0104FF480310225B7
:101E60000F9006A8CDE90714CDE90D51FEF708FE45
:101E700020B1EFF3108072B6FEE700BF0F20CDE96E
:101E800001054FF48060CDE9040401A80221039408
:101E9000FEF7F0FC20B1EFF3108072B6FEE700BF52
:101EA00040F60048C4F20108FFF774FCFFF70EFF8C
:101EB000FFF70CFDFFF72CFDFFF754FDFFF7E2FDE8
:101EC000FFF772FEFFF720FFFFF72AFC08F5806599
:101ED000284628210122FEF729FB40461021012235
:101EE000FEF724FBA8F5806B584601210022002450
:101EF000FEF71CFB404601210022FEF717FB40467F
:101F000020210022FEF712FBFEF716FB40F27006BE
:101F1000C2F20006306140F6260040F27C2942F20F
:101F2000661AC2F22600C2F20009C0F6000A706109
:101F300002E000BF01207072FFF70AFCD9F8000030
:101F4000016809070BD5069401680691416806915E
:101F50000699716A0131716201E000BF7473016812
:101F6000890661D54168326ACBB201323262B17200
:101F7000727B0AB9552BF2D1012A01D1552BEDD133
:101F8000531CDFB232440E2F737382F82810E6D34D
:101F900096F828200021552A71732CD196F8292013
:101FA000552A28D196F82A20012A24D196F82B20E8
:101FB0000ABB96F82C20F2B996F82D20DAB996F8DB
:101FC0002E20C2B996F82F20AAB996F8302092B9DF
:101FD00096F831207AB996F8322062B996F8332013
:101FE0004AB996F83420AA2A05D196F83510AA39AC
:101FF000B1FA81F14909F172F17A79B1B0695146CA
:102000000130B06148460E226423FFF7BDFAB0FAF2
:1020100080F040093073D9F80000A0E7F169013180
:10202000F16134739BE700BFFEF786FA3169401A0D
:102030000A28FFF481AFFEF77FFA3061284640217D
:10204000FEF76EFA307040464FF40041FEF768FA32
:10205000707040464FF48041FEF762FAB070284637
:102060004FF40071FEF75CFAF07028464FF480716F
:10207000FEF756FA307128468021FEF751FA70714A
:1020800058464FF48051FEF74BFAB07158464FF462
:102090000061FEF745FAF07158464FF48061FEF793
:1020A0003FFA3072F481307890B17078B8B1B0787E
:1020B000E0B1F07808B3307930B3707958B3B079C3
:1020C00080B3F079A8B3307A00287FF433AF38E0DA
:1020D000F08940F00100F08170780028E7D1F089A4
:1020E00040F00200F081B0780028E2D1F08940F0A1
:1020F0000400F081F0780028DDD1F08940F008007C
:10210000F08130790028D8D1F08940F01000F081BA
:1021100070790028D3D1F08940F02000F081B079A7
:102120000028CED1F08940F04000F081F0790028FD
:10213000C9D1F08940F08000F081307A00287FF426
:10214000F9AEF08940F48070F081F3E60000000001
:102150000000000001020304060708090000000057
:10216000010203040102AAAA01000000000000000D
:102170000000555502030405060708090A0B0C0D5B
:102180000E0F1010A8210008000000201000000011
:1021900094010008B821000810000020B8080000D1
:1021A000B401000800000000010000001000000061
:0821B00000127A00000000009B
:0400000508000131BD
:00000001FF
