:020000040800F2
:10000000D0080020F9010008C5200008711A000876
:10001000C1200008B5020008A92300080000000064
:10002000000000000000000000000000ED210008BA
:10003000B902000800000000C9200008F1210008F2
:10004000130200081302000813020008130200083C
:10005000130200081302000813020008130200082C
:10006000130200081302000813020008130200081C
:10007000130200081302000813020008130200080C
:1000800013020008130200081302000813020008FC
:10009000130200081302000813020008ED02000812
:1000A00013020008130200081302000813020008DC
:1000B00013020008130200081302000813020008CC
:1000C00013020008130200081302000813020008BC
:1000D00013020008130200081302000813020008AC
:1000E000BD020008130200081302000813020008F2
:1000F000130200081302000813020008130200088C
:10010000130200081302000813020008130200087B
:10011000130200081302000813020008130200086B
:10012000130200081302000813020008130200085B
:1001300000F002F800F050F814A696E8000CB24463
:10014000B344DA4501D100F047F8BAE80F000FA632
:1001500096E83000A5EB040504EB0607AAEB0704BC
:10016000A7F101074FEA15154FEA3414A4F1010471
:10017000AC4201D300F030F813F0010F18BFFB1AA6
:1001800043F0010300F001F8DBE71847B424000056
:10019000D4240000103A24BF78C878C1FAD8520796
:1001A00024BF30C830C144BF04680C6070470000F1
:1001B000704700000023002400250026103A28BFC5
:1001C00078C1FBD8520728BF30C148BF0B607047C9
:1001D0001FB51FBD10B510BD00F031F81146FFF777
:1001E000F7FF02F0E3F800F04FF803B4FFF7F2FF77
:1001F00003BC00F057F80000094880470948004751
:10020000FEE7FEE7FEE7FEE7FEE7FEE7FEE7FEE7C6
:10021000FEE7FEE704480549054A064B7047000023
:10022000F521000831010008D0020020D00800208C
:10023000D0040020D00400207047704770477546F6
:1002400000F02CF8AE4605006946534620F0070042
:10025000854618B020B5FFF7DDFFBDE820404FF020
:1002600000064FF000074FF000084FF0000BAC46BF
:10027000ACE8C009ACE8C009ACE8C009ACE8C0090A
:1002800021F007018D46704710B50446AFF300809A
:100290002046BDE81040FFF7A8BF000000487047A7
:1002A0001000002001491820ABBEFEE72600020026
:1002B00070470000FEE700007047000080B54FF473
:1002C000806000F02DF84FF4006000F029F84FF442
:1002D000805000F025F84FF4804000F021F84FF4F2
:1002E0000040BDE8804000F01BB8000080B5402011
:1002F00000F016F8802000F013F84FF4807000F042
:100300000FF84FF40070BDE8804000F009B800001D
:10031000EFF3108072B600BFFEE7000070470000E8
:1003200040F21441C4F201010A68024214BF08609D
:100330007047FFF7F3BF00002DE9F04F82B00E6861
:10034000002E00F0E980A0F1804241F6004540F225
:100350000043A2F58432C4F201050624C4F201036D
:100360004FEAB227A84208BF05244FF0000E4FF015
:1003700001080F254FF0000A4FF0000B052F38BF82
:100380004FEAB224009408E00E680AF1010A36FA36
:100390000AF20EF1040E00F0BF8008FA0AFC16EA19
:1003A0000C09F1D04E684FF6FF72C1F2100296426E
:1003B00012DC122E56D8DFE806F0350B4D495555A4
:1003C000555555555555555555555545510000BF31
:1003D000D1F80CB046E000BF4FF6FF72C1F2210227
:1003E00096420FDC0022C1F2110296421AD000227E
:1003F000C1F21202964215D00022C1F221029642A9
:1004000010D02FE00022C1F2220296420AD0002230
:10041000C1F23102964205D00022C1F23202964268
:1004200020D100BF8A684AB1012A14BFC0F814C0A5
:10043000C0F810C04FF0080B14E000BF4FF0040BE1
:1004400010E000BFCA6802F1040B0BE04FF0000B94
:1004500008E000BFCA6802F1080B03E0CA6802F1B5
:100460000C0B00BF02467446B9F5807F24BF0432EE
:10047000203C166805FA04F726EA07070BFA04F68B
:1004800037431760CA79D2067FF57EAF41F218076D
:10049000C4F202073A684FF6084542F001023A609A
:1004A0003A68CFF6FF7502F001020192019A2AF034
:1004B00003021A440F2457590EF00C06B440A74308
:1004C000009C04FA06F6374357514E6840F20C443C
:1004D000F2029A6854BF22EA090242EA0902C4F20F
:1004E00001049A602268B70254BF22EA090242EA74
:1004F000090222605A68B70354BF22EA090242EA9D
:1005000009025A600F251A68F70354BF22EA09024C
:1005100042EA09021A6037E702B0BDE8F08F000036
:10052000002A08BF090401617047000040F2C8209A
:10053000C2F2000000687047002804BF0120704725
:10054000F0B581B0044690F83D0028B9002084F849
:100550003C00204600F0A2F8242084F83D002068EA
:10056000016821F001010160016841F4004101606E
:10057000016821F40041016000F066FA636848F206
:10058000A16CC0F2010C40F60011C0F23D016345C0
:100590003CBF48F28041C0F21E01884202D20120D5
:1005A00001B0F0BD4DF68361C4F21B31A0FB011216
:1005B0002168970CD1F804E04FF496762EF03F05B1
:1005C00045EA92454D60774348F638160D6AC0F209
:1005D0004106A7FB067625F03F07634538BF960C1A
:1005E000721C3A430A62CA6948F2A0664CF6FF7769
:1005F000C0F20106B34222EA07020BD801385B00C1
:10060000B0FBF3F001306FF31F30042898BF0420D3
:100610001BE000BFA768013857B119277B43B0FB27
:10062000F3F001306FF31F3070B100F5804007E048
:1006300003EB4303B0FBF3F001306FF31F3018B14D
:1006400000F5004001E000BF01201043C8610868C8
:10065000D4E9072320F0C0001043184308608868DD
:1006600048F2FF3204F10C0790438CCF184310433B
:10067000A6698860C86820F0FF0038433043C8602E
:10068000086840F00100086000202021206484F800
:100690003D10206384F83E0001B0F0BD10B586B077
:1006A000006845F20041C4F2000188424FF00000AA
:1006B000CDE90400CDE9020002D006B010BD00BFB4
:1006C00041F21804C4F20204206802A940F00800B4
:1006D0002060206800F00800019001984FF44070FD
:1006E0000290122003900320059040F60040C4F2CF
:1006F0000100FFF721FE0420C4F20100016841F06F
:10070000E06141F002010160606840F40010606047
:10071000606800F400100190019806B010BD000060
:1007200040F2000040F2C821C2F20000C2F2000113
:1007300000780A68104408607047000080B542F2F3
:100740000000C4F20200016841F0100101600320C2
:1007500000F08CF80F2000F005F800F027F80020DA
:1007600080BD000070B540F20006C2F2000640F203
:1007700008013278C2F200014FF47A730968B3FBC2
:10078000F2F20446B1FBF2F1084600F07FFE0F2CB6
:100790004FF0010508D838B94FF0FF30214600224C
:1007A000002500F037F87460284670BD82B041F231
:1007B0001800C4F202000168022241F00101016048
:1007C000016801F0010101910199416841F08051F6
:1007D0004160406800F08050009000980420C4F20E
:1007E0000100016862F31A61016002B07047000005
:1007F000002848BF704700F01F01012202FA01F1F2
:100800001C2202EAD0004EF20012CEF20002815009
:100810007047000010B54EF60C5CCEF2000CDCF810
:100820000030C3F3022E8EF00704042C28BF0424EA
:10083000BEF103034FF0FF3E0EFA04F438BF00236D
:10084000A14399400EFA03F39A43114300F00F02BB
:1008500000F160430901043A03F56443624400284F
:1008600048BF02F10C03197010BD00004EF60C5188
:10087000CEF200010A684FF6FF031A4060F30A2225
:1008800042F0806040F0FD7008607047002804BFAF
:10089000012070472DE9F04381B042F20008C4F214
:1008A00002080446D8F800000D4600F00700814217
:1008B0000CD9D8F8000020F007002843C8F8000041
:1008C000D8F8000000F00700A8426CD1206841F27F
:1008D00004098107C4F2020917D5410705D5D9F8E3
:1008E000001041F4E061C9F80010010705D5D9F8FE
:1008F000001041F46051C9F80010D9F80010A26846
:1009000021F0F0011143C9F80010C00742D1D8F816
:10091000000000F0070085420CD2D8F8000020F05B
:1009200007002843C8F80000D8F8000000F00700CE
:10093000A84238D12068410707D5D9F80010E268ED
:1009400021F4E0611143C9F80010000708D5D9F877
:100950000000216920F4605040EAC100C9F800009D
:10096000D9F8002002F00C00082841F20020C0F263
:100970007A004DD142F22063C2F38341C0F60003F6
:10098000595CD20338D440F60010C0F23D00484311
:100990003EE000BF606859F8041C022808D0012816
:1009A00026D1890306D4012001B0BDE8F08300BF41
:1009B0008901F8D5D9F8001021F003010843C9F8DE
:1009C0000000FFF7B3FD064641F28837D9F8000072
:1009D000616800F00C00B0EB810F98D0FFF7A6FD26
:1009E000801BB842F2D9032001B0BDE8F08300BFFC
:1009F0008907D8D5DEE700BFD9F8002042F21E6390
:100A0000C2F34042C0F600039A5C4843B0FBF2F0E8
:100A1000D9F8001042F20662C1F30311C0F60002D9
:100A2000515C40F2080220FA01F140F20400C2F2E7
:100A300000000068C2F200021160FFF793FE002080
:100A400001B0BDE8F083000040F2080041F204016B
:100A5000C2F20000C4F202010068096842F21662A4
:100A6000C1F30221C0F60002515CC840704700008B
:100A700040F2080041F20401C2F20000C4F2020197
:100A80000068096842F21662C1F3C221C0F6000292
:100A9000515CC84070470000002804BF0120704727
:100AA0002DE9F04182B00446007841F20006C0070B
:100AB000C4F202060CD0706800F00C00042840F06C
:100AC00081803068800303D56068002800F046818B
:100AD000207880071BD5706810F00C0F09D0706863
:100AE00000F00C00082840F087807068C00300F117
:100AF00083803068800703D52069012840F02E816B
:100B00003068616920F0F80040EAC1003060207868
:100B1000000713D4207840072CD4E569002D00F09D
:100B20001881706800F00C00082840F0A780012DA3
:100B300040F00481012002B0BDE8F081A0690028E6
:100B400000F084800020C4F242200121C0F880140B
:100B5000FFF7ECFC054600BF706A800700F1B28029
:100B6000FFF7E4FC401B0228F6D9032002B0BDE8E1
:100B7000F08100BFF0695FEAC00808D4F06940F076
:100B80008050F061F06900F080500090009847F2CA
:100B90000007C4F200073868C00549D4386840F43B
:100BA00080703860FFF7C2FC054600BF3868C0059A
:100BB0003ED4FFF7BBFC401B6428F7D9032002B0EA
:100BC000BDE8F081706800F00C00082803D170685F
:100BD000C0033FF576AF61683068002900F00C81F2
:100BE000B1F5A02F00F00081B1F5803F40F01A81EF
:100BF00040F480301CE100BF2069002840F2000072
:100C0000C4F2422000F0888001210160FFF78EFCD1
:100C1000054600BF306880073FF572AFFFF786FCDE
:100C2000401B0228F6D9032002B0BDE8F08100BFC6
:100C3000E168306A002900F09D80052900F092806B
:100C4000012940F0AF8040F00100B1E00020C4F283
:100C500042200021C0F88014FFF768FC054600BF61
:100C6000706A80077FF556AFFFF760FC401B0228D3
:100C7000F6D9032002B0BDE8F08100BF0027C4F21E
:100C8000422700203866FFF751FC022D05460DD1A2
:100C90003068800140F1DE80FFF748FC401B0228ED
:100CA0004FF00300F4D902B0BDE8F0813068800154
:100CB0004FD5FFF73BFC401B02284FF00300F5D94E
:100CC000F1E700BF40F20800C2F20000006844F6FD
:100CD000D351C1F26201A0FB0101480A019000BF9B
:100CE00000BF0198411E002801913FF413AF00BFDF
:100CF0000198411E002801913FF40CAF00BF0198FC
:100D0000411E002801913FF405AF00BF0198411E2C
:100D100000280191E4D1FDE600210160FFF706FC07
:100D2000054600BF306880077FF5F1AEFFF7FEFB98
:100D3000401B02284FF00300F4D9B4E77068216A21
:100D400000F480328A4209D1616A00F4701088424E
:100D500004D1002002B0BDE8F08100BF012002B044
:100D6000BDE8F08140F004003062306A40F00100DC
:100D70001EE000BF20F001003062306A20F0040065
:100D80003062FFF7D3FB054641F28837306A8007AF
:100D900020D5FFF7CBFB401BB8424FF00300F5D93D
:100DA00081E700BF20F001003062306A20F00400CB
:100DB0003062FFF7BBFB054641F28837306A800797
:100DC00008D4FFF7B3FB401BB842F7D9032002B0A9
:100DD000BDE8F081B8F1000F3FF59FAEF06920F05B
:100DE0008050F06199E600BF40F4802030603068A8
:100DF00040F480301CE000BF20F480303060306868
:100E000020F480203060FFF791FB054630688003B6
:100E10007FF55EAEFFF78AFB401B64284FF00300AE
:100E2000F4D940E720F480303060306820F480202E
:100E30003060FFF77BFB0546306880033FF548AE26
:100E4000FFF774FB401B6428F6D9032002B0BDE80D
:100E5000F08100BF206AB0F5803F05D17168A268BB
:100E600021F40031114371607168626A21F47411D8
:100E700011430843706001203866FFF757FB0446B2
:100E8000306880013FF565AFFFF750FB001B02287B
:100E90004FF00300F4D906E770B528B1416A29B1D3
:100EA00000210161142106E0012070BD4168B1F507
:100EB000827F02D01C21002242500026866290F8D8
:100EC000511029B980F85060054600F039F82846DD
:100ED000022180F8511090E82E0002F482720C6812
:100EE00003F4044324F040040C601A4405F4006346
:100EF00005691A4405F0020345691A4405F0010327
:100F00008569C4691A4405F400731A4404F038036F
:100F1000046A1A4404F08003846A1A4304F40053F8
:100F20001A430A60042202EA15424A60CA6922F49E
:100F30000062CA610121466580F85110304670BDDB
:100F400070B586B040F60004C4F20104006804F5F0
:100F50002051002688420596CDE90366029601D00D
:100F600006B070BD41F21800C4F20200016802AD83
:100F700041F480510160016801F4805101910199AF
:100F8000016841F0040101600068294600F0040096
:100F900001900198A0200290022003900320059068
:100FA0002046FFF7C9F94020CDE902060120049050
:100FB00020462946FFF7C0F906B070BD2DE9F04183
:100FC00082B01D4616460F460446FFF7AFFA94F866
:100FD000511001290ED18046002F4FF0010018BF9B
:100FE000002E03D102B0BDE8F08100BF94F850009C
:100FF000012803D1022002B0BDE8F081012084F86D
:1010000050000320002184F8510061652763A68603
:10101000E686A163A187E187A0682164B0F5004F4F
:101020002068616407D1016821F040010160016816
:1010300041F4804101600168490603D4016841F030
:10104000400101606168731EE268B1FA81F1B3FA90
:1010500083F349095B09B2F5006F41EA030139D115
:1010600031B137F8021BC1602763E08E0138E0869A
:10107000E08E002870D0681C0BD11AE0216B31F88B
:10108000022BC2602163E08E0138E086E08E0028EA
:1010900062D0206881688907F0D4FFF747FAA0EB97
:1010A0000800A842F2D338E0FFF740FAE08E0028AB
:1010B00052D0206881688907F6D5216B31F8022B60
:1010C000C2602163E08E0138E086E08E0028F0D116
:1010D00042E000BF39B139780173206B01302063E1
:1010E000E08E0138E086E08EB0B3681C0BD123E0BF
:1010F000216B09780173206B01302063E08E013889
:10110000E086E08E40B3206881688907F0D4FFF75D
:101110000DFAA0EB0800A842F3D3012084F8510097
:10112000002084F85000032002B0BDE8F08100BF29
:10113000FFF7FCF9E08E78B1206881688907F7D560
:10114000216B09780173206B01302063E08E013838
:10115000E086E08E0028EFD12046022101222B46B6
:10116000CDF8008000F0B2FF40B920468021002277
:101170002B46CDF8008000F0A9FF28B1606D40F04B
:101180002000606520206065A06838B900200190CB
:101190002068C1680191806801900198012084F85D
:1011A0005100002084F85000606D002818BF012015
:1011B00002B0BDE8F08100002DE9F04383B01E4687
:1011C00015460F460446FFF7B1F994F851108146D1
:1011D000012909D1002F4FF0010018BF002D0FD1B8
:1011E00003B0BDE8F08300BF6068B0F5827F0DD129
:1011F00004294FF00200F3D1A1680029EAD0EFE7FB
:10120000002EEDD094F85000012803D1022003B045
:10121000BDE8F083012084F8500094F851000021CB
:1012200004281CBF052084F851006165A563E6878A
:10123000A6872763E6862068A68621646164016824
:10124000490603D4016841F0400101606168731EE2
:10125000E268B1FA81F1B3FA83F3DDF82880490935
:101260005B09B2F5006F41EA030165D131B137F88E
:10127000021BC1602763E08E0138E086012518F16A
:10128000010032D102E000BFFFF750F9E08E18B93B
:10129000E08F002800F0B8802068816889070CD5AD
:1012A000E18E51B1012D08D1216B002531F8022BBF
:1012B000C2602163E18E0139E1868168C907E3D00C
:1012C000E18F0029E0D0C068A16B012521F8020B55
:1012D000A163E08F0138E087D6E700BFFFF726F96A
:1012E000A0EB0900404580F0AF80E08E18B9E08F98
:1012F000002800F089802068816889070CD5E18E7C
:1013000051B1012D08D1216B002531F8022BC260AB
:101310002163E18E0139E1868168C907DED0E18F62
:101320000029DBD0C068A16B012521F8020BA16365
:10133000E08F0138E087D1E739B139780173206B4C
:1013400001302063E08E0138E086012518F10100AC
:1013500032D101E0FFF7EAF8E08E10B9E08F002803
:1013600052D02068816889070ED5E18E61B1012DC8
:101370000AD1216B002509780173216B20680131A6
:101380002163E18E0139E1868168C907E2D0E18FEE
:101390000029DFD0C068A16B01250870A06B013067
:1013A000A063E08F0138E087D4E700BFFFF7BEF805
:1013B000A0EB0900404547D2E08E08B9E08F18B392
:1013C0002068816889070ED5E18E61B1012D0AD1AF
:1013D000216B002509780173216B2068013121639D
:1013E000E18E0139E1868168C907DFD0E18F0029EC
:1013F000DCD0C068A16B01250870A06B0130A06330
:10140000E08F0138E087D1E72046022101224346E0
:10141000CDF8009000F05AFE40B92046802100220D
:101420004346CDF8009000F051FEB8B1606D40F039
:101430002000606520206065002084F850000120B5
:1014400003B0BDE8F08300BF012084F85100002004
:1014500084F85000032003B0BDE8F083A06838B9D9
:10146000002002902068C168029180680290029872
:10147000012084F85100002084F85000606D00289D
:1014800018BF012003B0BDE8F0830000411E00201A
:10149000B0EB116F1CBF012070474EF21002CEF26C
:1014A000000251604EF62351CEF20001F0230B7082
:1014B000072190601160704790F83C20012A4FF09E
:1014C000020242D010B580F83D200268D2F804E054
:1014D000D2F808C00C682EF07003234340F6FF34A6
:1014E000C4F20004A242536010DCB2F1804F1FD05E
:1014F00040F20043C4F200039A4219D040F60003C0
:10150000C4F200039A4213D017E000BF40F6004334
:10151000C4F200039A420BD043F20043C4F2010329
:101520009A4205D042F60043C4F201039A4204D124
:1015300049682CF08003194391600121002280F852
:101540003D1080F83C20BDE8104010467047000078
:1015500090F83C30012B04BF022070474FEAB202E2
:10156000032A00F21D812DE9F041DFE802F003C7F4
:10157000479100BF036843F200461D6A1A6A25F0CE
:10158000020522F001021A621A465C6852F818CF6E
:101590008F68D1F800E0C4F20106B34245EA0705BE
:1015A00005D042F60047C4F20107BB4205D1CF681F
:1015B00025F00C0527F004073D43B34205D042F661
:1015C0000046C4F20106B34205D1D1E9056724F40F
:1015D000407434433C432CF0730747EA0E075C60C9
:1015E0009F614F6809695F631D629F6947F0080743
:1015F0009F619F6927F004079F61C6E0036843F27B
:1016000000461D6A1A6A25F4007522F480721A6277
:101610001A46D3F804C052F81CEF8F68D1F8008046
:10162000C4F20106B34245EA072505D042F6004759
:10163000C4F20107BB4208D1CF6840F2FF443F0229
:1016400025F4406527EA04042543B34205D042F659
:101650000044C4F20104A34206D1D1E905462CF4AA
:101660004057264347EA061C2EF0730747EA08074F
:10167000C3F804C0DF614F680969DF631D62DF6979
:1016800047F00807DF61DF6927F00407DF617CE0CE
:10169000036843F20047D3F820C01A6AC4F2010776
:1016A00022F480521A621A465C6852F81C5FD1F824
:1016B00000E08E68BB4205D042F60047C4F2010745
:1016C000BB4204D14F6924F4804444EA87142CF4CB
:1016D000005747EA063725F4E64646EA0E265C60E0
:1016E000DE614E6809691E641F62DF6947F40067A6
:1016F000DF61DF6927F48067DF6145E0036843F25B
:1017000000481D6A1A6A25F0200522F010021A62AC
:101710001A465C6852F818CF8F68D1F800E0C4F21E
:101720000108434545EA071505D042F60047C4F2D3
:101730000107BB4207D1CF686FF0400625F0C00516
:1017400006EA07163543434505D042F60046C4F283
:101750000106B34206D1D1E9056724F440643E4353
:1017600044EA86042CF4E64747EA0E275C609F6152
:101770004F6809699F631D629F6947F400679F6115
:101780009F6927F480679F610902136819431160FC
:101790000021BDE8F041002280F83C200846704757
:1017A0000121002280F83C2008467047002804BF31
:1017B0000120704710B5044690F83D0028B900207C
:1017C00084F83C00204600F01FF8022084F83D0019
:1017D0002068211D00F010FD012084F8460084F8E7
:1017E0003E0084F83F0084F8400084F8410084F80B
:1017F000420084F8430084F8440084F8450084F8EB
:101800003D00002010BD000083B0006840F60001DC
:10181000C4F20001884227D040F20041C4F2000126
:10182000884211D0B0F1804F2BD141F21C00C4F29C
:101830000200016841F001010160006800F0010050
:101840000290029803B0704741F21C00C4F20200FB
:10185000016841F002010160006800F0020001909F
:10186000019803B0704700BF41F21C00C4F20200AF
:10187000016841F004010160006800F0040000907C
:10188000009803B070470000002804BF0120704793
:1018900010B5044690F8410028B9002084F84000B3
:1018A000204600F063F8242084F841002068D4E941
:1018B0000212C36823F40053C360036923F4405346
:1018C0001A430261D4E904231143C268194341F267
:1018D0000C639A431143C1604169A26921F44071CC
:1018E000114343F60002C4F201029042416103D069
:1018F000FFF7AAF802E000BFFFF7BAF8D4E9002327
:10190000192148439900B0FBF1F048F21F5CC5F281
:10191000EB1CA0FB0C314FF69C734909C0F6FF731A
:1019200001FB0300322303EB0010A0FB0C03F020AB
:1019300000EA531000EB0110C3F343110844906018
:101940001069202120F490401061506920F02A0095
:101950005061D06840F40050D0600020606484F88A
:10196000411084F84210606310BD000070B586B06D
:10197000006844F60001C4F2000100268842059682
:10198000CDE90366029635D044F20041C4F200016D
:1019900088426BD141F21800C4F20200416840F65F
:1019A000000441F4003141604168C4F2010401F4D3
:1019B000003101910199016802AD41F0040101601B
:1019C0000068294600F0040001900198042002906C
:1019D00002200390032005902046FEF7ADFC08206E
:1019E00002900020CDE9030020462946FEF7A4FC22
:1019F00006B070BD41F21800C4F20200416802ADA9
:101A000041F480214160416801F4802101910199F4
:101A1000016841F0100101600068294600F01000E3
:101A2000019001984FF480600290022003900320FF
:101A3000059040F60000C4F2010000F50064204665
:101A4000FEF77AFC4FF40060CDE9020620462946F5
:101A50000496FEF771FC0420C4F20100016841F015
:101A6000E06141F0100121F02001016006B070BD7D
:101A7000FEE7000080B5FEF759FD40F2AC03C2F26C
:101A8000000358604FF0000C41F20000C4F2010066
:101A90004FF48041012283F800C0BDE88040FEF78A
:101AA0003FBD000080B5FEF741FD40F2AC03C2F23D
:101AB00000035968411AB1F5FA7F38BF80BD197823
:101AC0005860481EB0FA80F081F0010C420941F2E2
:101AD0000000C4F201004FF4804183F800C0BDE86B
:101AE0008040FEF71DBD00002DE9F04F85B00024B9
:101AF00041F21800CDE90344CDE90144C4F20200EB
:101B0000016841F2000841F0100101600168C4F26F
:101B1000010801F01001009100990168002241F0D4
:101B200020010160016801F0200100910099016825
:101B300041F004010160016801F004010091009985
:101B4000016841F00801016000684FF4C04100F0F5
:101B50000800009000984046FEF7E2FC40463C2119
:101B600001224FF00109FEF7DBFCA8F5006B584697
:101B700001210022FEF7D4FCA8F58066304643F22E
:101B800021010022FEF7CCFC304690210122FEF715
:101B9000C7FC46F23C0001AFCDE901094FF0020A53
:101BA000404639460394CDF810A0FEF7C5FB4FF42C
:101BB0000040CDE90104404639460394FEF7BCFBE2
:101BC00058463946CDE90199CDE9034AFEF7B4FB01
:101BD00043F2B100CDE9010930463946CDE9034A67
:101BE000FEF7AAFB4FF4404000250190C1F2110519
:101BF00030463946CDE90254FEF79EFB4FF4707033
:101C0000CDE90105404639460394FEF795FB4FF4B4
:101C1000E050CDE90105584639460394FEF78CFBA8
:101C2000172000210022FEF7F5FD1720FEF7E0FD4A
:101C3000282000210022FEF7EDFD2820FEF7D8FD28
:101C400005B0BDE8F08F000080B540F2B40045F269
:101C50000041C2F20000C4F2000148F2A062002379
:101C60004FF4804CC0F2010280E80E00C0E9033C52
:101C7000C0E90533C0E90733FEF75EFC002808BF62
:101C800080BDBDE88040FEF743BB0000B0B540F228
:101C9000081043F20001C2F20000C4F201014FF447
:101CA0008272002380E80E0000F10C014FF0020C5C
:101CB0004FF0010E4FF40074202581E808500A21EE
:101CC000C0E90645C0E90833C0E90A31FFF7E4F886
:101CD000002808BFB0BDBDE8B040FEF719BB00004A
:101CE000B0B590B040F260100021C2F2000040F2A6
:101CF000E735CDE90811CDE90611CDE904114FF022
:101D000080424723C0E9021501618021C0E9002318
:101D10008161FFF74BFD002818BFFEF7F9FA40F28A
:101D20006010C2F2000008A9FFF7C6FB002818BF28
:101D3000FEF7EEFA602040F2601401903220C2F209
:101D400000040290002501A9204604220395059570
:101D5000FFF7FEFB002818BFFEF7DAFA206840F60E
:101D60000001C4F2000188420F95CDE90D550C9594
:101D70002AD040F20041C4F20001884218D0B0F1EC
:101D8000804F3BD141F21800C4F20200016841F0DB
:101D9000040101600068022100F004000B900B9820
:101DA00040F60040C4F20100A0F580601EE000BFD4
:101DB00041F21800C4F20200016841F0080101601C
:101DC000006802210AE000BF41F21800C4F20200DC
:101DD000016841F0080101600068402100F008003E
:101DE0000B900B9840F60040C4F201000C910221C8
:101DF0000D9103210F910CA9FEF79EFA10B0B0BD12
:101E000070B590B040F6004440F2A810C4F201044E
:101E10000021C2F2000040F2E736CDE90811CDE919
:101E20000611CDE90411A4F584324723C0E9021656
:101E300001618021C0E900238161FFF7B7FC002820
:101E400018BFFEF765FA40F2A810C2F2000008A918
:101E5000FFF732FB002818BFFEF75AFA602040F265
:101E6000A81501903220C2F200050290002601A9B7
:101E700028460C2203960596FFF76AFB002818BF38
:101E8000FEF746FA286840F60001C4F200018842D5
:101E90000F96CDE90D660C962AD040F20041C4F2AF
:101EA0000001884214D0B0F1804F38D141F21800BF
:101EB000C4F202000168A4F5806441F004010160ED
:101EC000006800F004000B900B9802201EE000BF99
:101ED00041F21800C4F20200016841F008010160FB
:101EE000006800F008000B900B9802200EE000BF85
:101EF00041F21800C4F20200016841F008010160DB
:101F0000006800F008000B900B9840200C90022015
:101F10000D9003200F900CA92046FEF70DFA10B08B
:101F200070BD000070B590B040F6004440F2F01073
:101F3000C4F201040021C2F2000040F2E736CDE90C
:101F40000811CDE90611CDE90411A4F58232472329
:101F5000C0E9021601618021C0E900238161FFF719
:101F600025FC002818BFFEF7D3F940F2F010C2F2AA
:101F7000000008A9FFF7A0FA002818BFFEF7C8F96B
:101F8000602040F2F01501903220C2F2000502906C
:101F9000002601A92846002203960596FFF7D8FAE5
:101FA000002818BFFEF7B4F9286840F60001C4F213
:101FB000000188420F96CDE90D660C962AD040F2BA
:101FC0000041C4F20001884214D0B0F1804F38D1F2
:101FD00041F21800C4F202000168A4F5806441F0E7
:101FE00004010160006800F004000B900B980220CF
:101FF0001EE000BF41F21800C4F20200016841F087
:1020000008010160006800F008000B900B980220A6
:102010000EE000BF41F21800C4F20200016841F076
:1020200008010160006800F008000B900B98402048
:102030000C9002200D9003200F900CA92046FEF773
:102040007BF910B070BD000080B540F2382044F23A
:102050000041C2F20000C4F2000100234FF00C0C5A
:102060004FF4E13280E80E00C0E90333C0E905C354
:10207000C361FFF709FC002808BF80BDBDE88040B0
:10208000FEF746B980B540F2802044F60001C2F266
:102090000000C4F2000100234FF00C0C4FF4E132B9
:1020A00080E80E00C0E90333C0E905C3C361FFF750
:1020B000EBFB002808BF80BDBDE88040FEF728B9D3
:1020C000FEE70000FEE70000704700002DE9F04346
:1020D00081B0089C984615460E468146FEF726FAC2
:1020E000201A00EB0804FEF721FA40F20801C2F2C0
:1020F00000010968C1F3CB3161430091D9F80010A8
:102100008A683240921BB2FA82F2520995423DD05F
:10211000074618F1010031D0FEF708FAC01BA042B3
:1021200038D2009800990028A1F101010091D9F856
:102130000010896808BF044601EA0600801BB0FA57
:1021400080F040098542E7D120E000BF8868304038
:10215000801BB0FA80F04009854217D08868304073
:10216000801BB0FA80F0400985420FD0886830406B
:10217000801BB0FA80F04009854207D08868304063
:10218000801BB0FA80F040098542DFD1002001B009
:10219000BDE8F083D9E900014268B1F5827F22F001
:1021A000E00242600BD1D9F80810B1F5004F02D01F
:1021B000B1F5806F03D1016821F040010160D9F8C9
:1021C0002810B1F5005F07D1016821F400510160CA
:1021D000016841F400510160012089F8510000209C
:1021E00089F85000032001B0BDE8F083704700007B
:1021F000FEF796BA7047000010B540F6FF3203684C
:10220000C4F2000240F6004E43F2004C9042C4F289
:10221000000EC4F2010C21DCB0F1804F28D040F256
:102220000044C4F20004A04222D040F60004C4F2EC
:102230000004A0421CD0904220DCB0F1804F27D097
:1022400040F20042C4F20002904221D040F6000267
:10225000C4F2000290421BD01EE000BF704507D0C0
:10226000604505D042F60044C4F20104A042E2D128
:102270004C6823F0700323439042DEDD704507D0A5
:10228000604505D042F60042C4F20102904203D1FB
:10229000CA6823F4407313434C6923F08002D1F8D9
:1022A00000E08B68224360450260C362C0F828E00A
:1022B00005D042F60042C4F20102904201D1096900
:1022C0000163012141610169C90708BF10BD0169AE
:1022D00021F00101016110BD2DE9F04385B00446F4
:1022E0008DF80C100068A18800250022CDF80D5053
:1022F000FEF716F940F20819C2F2000903AE0DF11B
:1023000007074FF0FF38484631463A460523CDF8D7
:102310000080FEF751FF2068A1880122FEF700F936
:102320002068A18800228DF810500395FEF7F8F878
:10233000484631463A460523CDF80080FEF73CFF7B
:102340002068A1880122FEF7EBF8029800BA05B0D8
:10235000BDE8F08310B582B0044641F080008DF8EE
:102360000300100E8DF80400100C8DF80500100A03
:102370008DF806002068A1888DF807200022FEF75E
:10238000CFF840F20810C2F200000DF1030105225F
:102390004FF0FF33FEF712FE2068A1880122FEF7FE
:1023A000BFF802B010BD0000FEE7000090B0FEF7DD
:1023B000C5F900240120CDE90B44CDE9094406907C
:1023C0000A904FF4E0104FF4803102250F9006A8D8
:1023D000CDE90714CDE90D51FEF75EFB20B1EFF317
:1023E000108072B6FEE700BF0F20CDE901054FF463
:1023F0008060CDE9040401A802210394FEF746FAA7
:1024000020B1EFF3108072B6FEE700BF41F2000882
:10241000C4F20108FFF768FBFFF716FEFFF714FC94
:10242000FFF734FCFFF75CFCFFF7EAFCFFF77AFDEF
:10243000FFF728FEFFF71EFB404608210122012678
:10244000FEF76EF8FEF772F840F2700742F2306560
:10245000C2F20007C0F60005002441F288394FF0AF
:10246000030A38613E7000BFFFF71CFB3878012873
:102470003AD1FEF75BF83969401A642834D328460C
:102480000421FFF729FF7861786900F07F4000F1AF
:102490005040B0FA80F040097870BE703C70787897
:1024A00010B3284600210822FFF754FF28460021D8
:1024B000FFF712FFB861B8690838B0FA80F0400938
:1024C000F8703E71F87878B128460121FFF704FFD3
:1024D000F8612846012107227E71FFF73BFFFEF7D6
:1024E00025F83862BE7102E0B879012812D1FEF7F2
:1024F0001DF8396A401A64280CD328460121FFF7D9
:10250000EBFE7862786A00F0040086EA9000F871C9
:102510003E72BC71387A08B1787AF8B1787A38B3FB
:10252000B87A28BB284610210022FFF713FFBA6AA9
:1025300028466AF303026C21FFF70CFF28466C2142
:10254000FFF7CAFEF862F86AB96A6AF30301401A33
:10255000B0FA80F04009F872BE7209E028466C219A
:10256000FFF7BAFEB8627E72787A0028D8D100BF31
:10257000F87A38B1397B787B002908BF002805D06C
:1025800070B92EE0787B58B92BE000BF4046082197
:102590000022FDF7C5FFFDF7C9FF38637E73BE73E8
:1025A000FDF7C4FF396B401AC8281AD32846012109
:1025B000FFF792FE786328466F21FFF78DFEB86320
:1025C000786B00F00600B0FA80F04009F873F87BF1
:1025D00028B9404608210122FDF7A2FFBC733E73D3
:1025E0007C73B87B00283FF43FAFFDF79FFF396B4A
:1025F000401A4845FFF438AF404608210122FDF754
:102600008FFFBC7330E700000000000000000102F3
:102610000304060708090000000001020304010288
:1026200002030405060708090A0B0C0D0E0F101013
:1026300000100140040000000010014008000000EC
:10264000602600080000002010000000940100082F
:102650007026000810000020C0080000B401000827
:10266000010000001000000000127A0000000000CD
:0400000508000131BD
:00000001FF
